:020000040800F2
:1028000000500020C94500081B4600082746000864
:102810002D46000833460008394600080000000035
:102820000000000000000000000000003F4600081B
:102830004B460008000000005746000831490008D8
:1028400019460008314800081946000819460008D2
:1028500019460008194600081946000819460008DC
:1028600019460008194600081946000819460008CC
:10287000294A000819460008314000081946000896
:10288000194600081946000819460008A541000825
:10289000A942000819460008194600081946000810
:1028A000194600081946000819460008194600088C
:1028B000194600081946000819460008194600087C
:1028C000194600081946000819460008194600086C
:1028D000194600081D400008194600083D49000837
:1028E00019460008194600081946000800000000B3
:1028F00000000000000000000000000000000000D8
:0C29000000000000000000005FF808F17B
:10290C0010B5054C237833B9044B13B10448AFF31D
:10291C0000800123237010BD44050020000000003E
:10292C00704B000808B5034B1BB103490348AFF3C8
:10293C00008008BD0000000048050020704B000816
:10294C00034613F8012B002AFBD1181A01387047E3
:10295C0080B483B000AF7860054A7B6843F0BF63F6
:10296C0043F40033D36000BF0C37BD4680BC7047C6
:10297C0000ED00E080B487B000AF786000237B618D
:10298C0000233B610F23FB607B68DB78002B3AD084
:10299C00274BDB68DB431B0A03F007037B617B6976
:1029AC00C3F104033B61FA687B6922FA03F3FB6011
:1029BC007B685B781A463B6902FA03F37B617B68A0
:1029CC009B781A46FB6813407A6913437B617B69D9
:1029DC001B017B61174A7B681B787969C9B2134468
:1029EC000A4683F800237B681B7803F01F03114908
:1029FC007A6812785209D2B21046012202FA03F315
:102A0C0041F820300FE07B681B7803F01F03094965
:102A1C007A6812785209D2B2104601229A4000F11B
:102A2C00200341F8232000BF1C37BD4680BC7047F3
:102A3C0000ED00E000E100E080B483B000AF78600E
:102A4C0039603B6823F0604323F07F0304497A68C4
:102A5C0013438B6000BF0C37BD4680BC704700BF72
:102A6C0000ED00E080B483B000AF78607B68042B8D
:102A7C0006D1094B1B68084A43F00403136005E0B8
:102A8C00054B1B68044A23F00403136000BF0C378A
:102A9C00BD4680BC704700BF10E000E080B485B03C
:102AAC0000AF786039600023FB737B689B6803F090
:102ABC008063B3F1806F02D10023FB7315E07B6858
:102ACC009B6803F00063B3F1006F02D10123FB7329
:102ADC000BE07B689B6803F08053B3F1805F02D1FD
:102AEC000223FB7301E00423FB73FB7B042B00F03C
:102AFC009F80FB7B7A6818331B0113441A68FB7B9D
:102B0C0002F00102796818331B010B441A603B6810
:102B1C001B7A002B13D1FB7B7A6818331B011344EF
:102B2C0019683B681B685B053A68527A1A43FB7B51
:102B3C000A43796818331B010B441A6015E0FB7BC0
:102B4C007A6818331B01134419683B685B68DB0017
:102B5C003A68127A13433A68527A1A43FB7B0A4357
:102B6C00796818331B010B441A603B689B7A03F09D
:102B7C000F03DAB23B689A72FB7B7A6818331B013D
:102B8C00134404331A68FB7B22F00F027968183364
:102B9C001B010B4404331A60FB7B7A6818331B014E
:102BAC00134404331A683B689B7A1946FB7B0A432F
:102BBC00796818331B010B4404331A603B689B7B08
:102BCC001A063B685B7B1B041A433B681B7B1B028E
:102BDC001A433B68DB7A1946FB7B0A4379681B0175
:102BEC000B4403F5C4731A603B689B7C1A063B6864
:102BFC005B7C1B041A433B681B7C1B021A433B681F
:102C0C00DB7B1946FB7B0A4379681B010B4403F5FC
:102C1C00C6731A60FB7B7A6818331B0113441A685D
:102C2C00FB7B42F00102796818331B010B441A60DC
:102C3C00FB7B18461437BD4680BC704780B485B00A
:102C4C0000AFF8600B467A60FB72FB7AFA681B33B4
:102C5C001B0113441B68DBB203F00403DAB27B687C
:102C6C001A727B681B7A002B0BD1FB7AFA681B3328
:102C7C001B0113441B685B0DC3F30A027B681A60CB
:102C8C000AE0FB7AFA681B331B0113441B68DB0850
:102C9C0023F060427B685A60FB7AFA681B331B0195
:102CAC0013441B68DBB203F00203DAB27B685A727E
:102CBC00FB7AFA681B331B01134404331B68DBB229
:102CCC0003F00F03DAB27B689A72FB7AFA681B3353
:102CDC001B01134404331B681B0ADAB27B68DA74D9
:102CEC00FB7AFA681B01134403F5DC731B68DAB238
:102CFC007B68DA72FB7AFA681B01134403F5DC7308
:102D0C001B681B0ADAB27B681A73FB7AFA681B0120
:102D1C00134403F5DC731B681B0CDAB27B685A7323
:102D2C00FB7AFA681B01134403F5DC731B681B0E5A
:102D3C00DAB27B689A73FB7AFA681B01134403F5C9
:102D4C00DE731B68DAB27B68DA73FB7AFA681B01F4
:102D5C00134403F5DE731B681B0ADAB27B681A7422
:102D6C00FB7AFA681B01134403F5DE731B681B0C1A
:102D7C00DAB27B685A74FB7AFA681B01134403F5C8
:102D8C00DE731B681B0EDAB27B689A74FB7A002B1D
:102D9C0006D1FB68DB6843F02002FB68DA6005E0D3
:102DAC00FB681B6943F02002FB681A6100BF1437F3
:102DBC00BD4680BC7047000080B483B000AF786023
:102DCC0039603B68B3F5003F00F0AA803B68B3F56F
:102DDC00003F00F2C3803B68B3F5803F00F09C805D
:102DEC003B68B3F5803F00F2B9803B68B3F5004F08
:102DFC0000F0AD803B68B3F5004F00F2AF803B684C
:102E0C00B3F5006F00F09C803B68B3F5006F00F2E7
:102E1C00A5803B68B3F5806F00F08E803B68B3F5FE
:102E2C00806F00F29B803B68B3F5007F00F08080E0
:102E3C003B68B3F5007F00F291803B68B3F5807F6F
:102E4C0072D03B68B3F5807F00F288803B68202B02
:102E5C004AD83B68002B00F081803B68013B1F2B5C
:102E6C007CD801A252F823F0FD2E0008692F00082F
:102E7C00692F0008052F0008692F0008692F00082A
:102E8C00692F00080D2F0008692F0008692F000812
:102E9C00692F0008692F0008692F0008692F0008A6
:102EAC00692F0008692F0008692F0008692F000896
:102EBC00692F0008692F0008692F0008692F000886
:102ECC00692F0008692F0008692F0008692F000876
:102EDC00692F0008692F0008692F0008692F000866
:102EEC00692F0008152F00083B68402B10D035E0E7
:102EFC007B681D4A9A6032E07B680822DA602EE01B
:102F0C007B681022DA602AE07B6808221A6126E0CE
:102F1C007B6810221A6122E07B6808225A601EE04E
:102F2C007B6810225A601AE07B6804225A6016E013
:102F3C007B6804225A6012E07B6804225A600EE01F
:102F4C007B6800229A617B6804225A6007E07B68E8
:102F5C0000229A617B6804225A6000E000BF00BF27
:102F6C000C37BD4680BC70470101010080B483B0B2
:102F7C0000AF78607B681A684FF6FE7313407A686E
:102F8C0013607B6800221A607B6800225A607B68A1
:102F9C0000229A607B680022DA607B68434A934285
:102FAC0006D1434B5B68424A43F00F03536077E012
:102FBC007B68404A934206D13D4B5B683C4A43F0E8
:102FCC00F00353606CE07B683B4A934206D1384B6C
:102FDC005B68374A43F47063536061E07B68374A3F
:102FEC00934206D1324B5B68314A43F470435360D1
:102FFC0056E07B68324A934206D12D4B5B682C4AD3
:10300C0043F4702353604BE07B682E4A934206D105
:10301C00274B5B68264A43F47003536040E07B689F
:10302C00294A934206D1224B5B68214A43F07063D4
:10303C00536035E07B68254A934206D1244B5B688C
:10304C00234A43F00F0353602AE07B68214A9342E2
:10305C0006D11F4B5B681E4A43F0F00353601FE020
:10306C007B681D4A934206D1194B5B68184A43F49E
:10307C007063536014E07B68184A934206D1144B7A
:10308C005B68134A43F47043536009E07B68144A4D
:10309C00934205D10E4B5B680D4A43F47023536089
:1030AC0000BF0C37BD4680BC704700BF0800024013
:1030BC00000002401C00024030000240440002406C
:1030CC00580002406C00024080000240080402409C
:1030DC00000402401C04024030040240440402403C
:1030EC005804024080B485B000AF7860396000238A
:1030FC00FB607B681B68FB60FB6823F4FF4323F0D9
:10310C007003FB603B689A683B681B6A1A433B6818
:10311C001B691A433B685B691A433B689B691A43FA
:10312C003B68DB691A433B685B6A1A433B689B6AE2
:10313C001343FA681343FB607B68FA681A603B68B8
:10314C00DA687B685A603B681A687B689A603B68EF
:10315C005A687B68DA6000BF1437BD4680BC704784
:10316C0080B483B000AF78600B46FB70FB78002B0B
:10317C0006D07B681B6843F001027B681A6006E08E
:10318C007B681A684FF6FE7313407A68136000BFB1
:10319C000C37BD4680BC704780B485B000AFF8607A
:1031AC00B9601346FB71FB79002B06D0FB681A68DB
:1031BC00BB681A43FB681A6006E0FB681A68BB68B8
:1031CC00DB431A40FB681A6000BF1437BD4680BC55
:1031DC007047000080B483B000AF78607B6803F068
:1031EC008053002B03D0064A7B68536002E0054AEB
:1031FC007B68536000BF0C37BD4680BC704700BF76
:10320C00000402400000024080B485B000AF78603A
:10321C000023FB730023BB607B6803F08053002BFF
:10322C0003D00B4B1B68BB6002E00A4B1B68BB60F6
:10323C00BA687B681340002B02D00123FB7301E0BA
:10324C000023FB73FB7B18461437BD4680BC7047CC
:10325C00000402400000024080B485B000AF7860EA
:10326C000023FB730023BB600C4B1B687A68134074
:10327C00BB600A4B5A697B681340002B05D0BB68B6
:10328C00002B02D00123FB7301E00023FB73FB7BBB
:10329C0018461437BD4680BC704700BF000401407F
:1032AC0080B483B000AF7860034A7B68536100BF81
:1032BC000C37BD4680BC70470004014080B489B017
:1032CC0000AF786039600023FB6100233B61002371
:1032DC00BB610023FB6000237B610023BB603B6868
:1032EC00DB7803F00F03FB613B68DB7803F0100322
:1032FC00002B05D03B689B781A46FB691343FB6196
:10330C003B681B88DBB2002B44D07B681B687B615D
:10331C000023BB6138E00122BB6902FA03F3FB60B6
:10332C003B681B881A46FB6813403B613A69FB6893
:10333C009A4226D1BB699B00FB600F22FB6802FA04
:10334C0003F3BB60BB68DB437A6913407B61FA69AA
:10335C00FB6802FA03F37A6913437B613B68DB7801
:10336C00282B05D10122BB699A407B685A6108E081
:10337C003B68DB78482B04D10122BB699A407B68FF
:10338C001A61BB690133BB61BB69072BC3D97B686D
:10339C007A691A603B681B88FF2B46D97B685B688F
:1033AC007B610023BB613AE0BB690833012202FA5E
:1033BC0003F3FB603B681B881A46FB6813403B61B8
:1033CC003A69FB689A4227D1BB699B00FB600F22CC
:1033DC00FB6802FA03F3BB60BB68DB437A691340FA
:1033EC007B61FA69FB6802FA03F37A6913437B6128
:1033FC003B68DB78282B05D1BB69083301229A4046
:10340C007B685A613B68DB78482B05D1BB69083374
:10341C0001229A407B681A61BB690133BB61BB69AD
:10342C00072BC1D97B687A695A6000BF2437BD4627
:10343C0080BC704780B483B000AF78600B467B8053
:10344C007A887B685A6100BF0C37BD4680BC7047D8
:10345C0080B485B000AF78600023FB73084B5A68CA
:10346C007B681340002B02D00123FB7301E0002387
:10347C00FB73FB7B18461437BD4680BC704700BFFE
:10348C000070004080B483B000AF7860054B1A68C0
:10349C007B689B00034913430B6000BF0C37BD4690
:1034AC0080BC70470070004080B487B000AF78607B
:1034BC0000237B6100233B610023FB600023BB6086
:1034CC004F4B5B6803F00C037B617B69082B11D0BD
:1034DC007B69082B3AD87B69002B03D07B69042BC2
:1034EC0004D033E07B68474A1A6033E07B68454A76
:1034FC001A602FE0424B5B6803F470133B61404B46
:10350C005B6803F48033FB603B699B0C02333B61CB
:10351C00FB68002B06D13B693B4A02FB03F27B683C
:10352C001A6017E0364B5B6803F40033002B06D0AF
:10353C003B69354A02FB03F27B681A600AE03B697F
:10354C00304A02FB03F27B681A6003E07B682D4A69
:10355C001A6000BF2A4B5B6803F0F0037B617B6948
:10356C001B097B61294A7B6913441B78DBB2BB6066
:10357C007B681A68BB68DA407B685A60204B5B68D2
:10358C0003F4E0637B617B691B0A7B611F4A7B69E7
:10359C0013441B78DBB2BB607B685A68BB68DA40AB
:1035AC007B689A60164B5B6803F460537B617B69A4
:1035BC00DB0A7B61154A7B6913441B78DBB2BB6069
:1035CC007B685A68BB68DA407B68DA600C4B5B68D6
:1035DC0003F440437B617B699B0B7B610C4A7B69E9
:1035EC0013441B78DBB2BB607B68DA68BB68B2FB48
:1035FC00F3F27B681A6100BF1C37BD4680BC704774
:10360C000010024000127A0000093D00000000206A
:10361C001000002080B483B000AF78600B46FB70C4
:10362C00FB78002B06D0094B5A6908497B68134379
:10363C004B6106E0054B5A697B68DB430349134039
:10364C004B6100BF0C37BD4680BC70470010024078
:10365C0080B483B000AF78600B46FB70FB78002B16
:10366C0006D0094B9A6908497B6813438B6106E0C5
:10367C00054B9A697B68DB43034913408B6100BFA0
:10368C000C37BD4680BC70470010024080B483B03C
:10369C0000AF78600B46FB70FB78002B06D0094B13
:1036AC00DA6908497B681343CB6106E0054BDA699C
:1036BC007B68DB4303491340CB6100BF0C37BD462D
:1036CC0080BC70470010024080B483B000AF7860BB
:1036DC000B46FB70FB78002B06D0094BDA680849C7
:1036EC007B681343CB6006E0054BDA687B68DB43F1
:1036FC0003491340CB6000BF0C37BD4680BC7047FC
:10370C000010024080B483B000AF78600B46FB70B1
:10371C00FB78002B06D0094B1A6908497B681343C8
:10372C000B6106E0054B1A697B68DB4303491340C8
:10373C000B6100BF0C37BD4680BC704700100240C7
:10374C0080B582B000AF78607B68264A93420AD17C
:10375C0001214FF48040FFF7B7FF00214FF4804068
:10376C00FFF7B2FF3AE07B681F4A93420AD101216E
:10377C004FF40030FFF7C6FF00214FF40030FFF785
:10378C00C1FF2BE07B68194A93420AD101214FF407
:10379C008020FFF7B7FF00214FF48020FFF7B2FF26
:1037AC001CE07B68124A93420AD101214FF400209D
:1037BC00FFF7A8FF00214FF40020FFF7A3FF0DE057
:1037CC007B680C4A934209D101214FF48010FFF71A
:1037DC0099FF00214FF48010FFF794FF00BF0837CA
:1037EC00BD4680BD00380140004400400048004008
:1037FC00004C00400050004080B58CB000AF7860A9
:10380C0039600023FB620023BB6200237B62002330
:10381C003B620023FB617B68FB617B681B8A9BB26C
:10382C00FB62FA6A4CF6FF731340FB623B68DB8861
:10383C001A46FB6A1343FB62FB6A9AB27B681A82D4
:10384C007B689B899BB2FB62FA6A4EF6F3131340BA
:10385C00FB623B689A883B681B8913439AB23B68AE
:10386C005B8913439BB21A46FB6A1343FB62FB6AE8
:10387C009AB27B689A817B689B8A9BB2FB62FA6ADC
:10388C004FF6FF431340FB623B689B891A46FB6A69
:10389C001343FB62FB6A9AB27B689A8207F10803B6
:1038AC001846FFF701FEFB692E4A934202D17B6951
:1038BC00BB6201E03B69BB627B689B899BB21BB21C
:1038CC00002B0CDABA6A13469B0013449A001A4474
:1038DC003B681B685B00B2FBF3F37B620BE0BA6ADC
:1038EC0013469B0013449A001A443B681B689B00C8
:1038FC00B2FBF3F37B627B6A1B4AA2FB03235B09DB
:10390C001B01FB62FB6A1B09642202FB03F37A6A4C
:10391C00D31A3B627B689B899BB21BB2002B0CDADF
:10392C003B6ADB003233104AA2FB03235B0903F032
:10393C000703FA6A1343FB620BE03B6A1B01323349
:10394C00094AA2FB03235B0903F00F03FA6A134332
:10395C00FB62FB6A9AB27B681A8100BF3037BD46A6
:10396C0080BD00BF003801401F85EB5180B485B08D
:10397C0000AF786039600023FB607B681B8A9BB2C8
:10398C00FB60FA684FF2FF031340FB603B681A8838
:10399C003B685B8813439AB23B689B8813439AB28B
:1039AC003B68DB8813439BB21A46FB681343FB60EE
:1039BC00FB689AB27B681A8200BF1437BD4680BC84
:1039CC00704780B483B000AF78600B46FB70FB7817
:1039DC00002B08D07B689B899BB243F400539AB2AE
:1039EC007B689A8107E07B689B899BB223F4005328
:1039FC009AB27B689A8100BF0C37BD4680BC704779
:103A0C0080B487B000AF78600B467B8013467B7028
:103A1C0000233B610023FB600023BB6000237B6120
:103A2C007B687B617B88DBB25B09DBB23B617B88AB
:103A3C0003F01F03FB600122FB6802FA03F3BB6077
:103A4C003B69012B03D17B690C337B6109E03B693A
:103A5C00022B03D17B6910337B6102E07B69143349
:103A6C007B617B78002B06D07B6919687B69BA680F
:103A7C000A431A6006E07B691968BB68DA437B6904
:103A8C000A401A6000BF1C37BD4680BC704780B42A
:103A9C0083B000AF78600B467B8013467B707B78DD
:103AAC00002B08D07B689B8A9AB27B8813439AB20E
:103ABC007B689A8209E07B689B8A9AB27B88DB439D
:103ACC009BB213409AB27B689A8200BF0C37BD46FA
:103ADC0080BC704780B483B000AF78607B689B88F3
:103AEC009BB2C3F308039BB218460C37BD4680BC8F
:103AFC00704780B487B000AF78600B467B800023A2
:103B0C00FB6000237B610023BB600023FB747B887C
:103B1C00DBB25B09DBB2BB607B8803F01F037B610C
:103B2C0001227B6902FA03F37B61BB68012B07D18D
:103B3C007B689B899BB21A467B6913407B6111E0C1
:103B4C00BB68022B07D17B681B8A9BB21A467B6928
:103B5C0013407B6106E07B689B8A9BB21A467B69AB
:103B6C0013407B617B881B0A9BB2FB600122FB68C4
:103B7C0002FA03F3FB607B681B889BB21A46FB6856
:103B8C001340FB607B69002B05D0FB68002B02D037
:103B9C000123FB7401E00023FB74FB7C18461C37EB
:103BAC00BD4680BC704780B485B000AF78600B46D2
:103BBC007B800023FB810023BB817B881B0AFB815C
:103BCC00FB89012202FA03F3BB81BB89DB439AB266
:103BDC007B681A8000BF1437BD4680BC704700005C
:103BEC0080B487B000AFF860B9607A6000237B6165
:103BFC0011E000BF0D4B1B889BB203F04003002B60
:103C0C00F8D07B69BA6813441A78084B92B29A8040
:103C1C007B6901337B617A697B689A42E9DB7B685B
:103C2C0018461C37BD4680BC704700BF00380140A9
:103C3C0080B500AF01210520FFF70AFD01214FF4EB
:103C4C008040FFF705FD01210920FFF701FD01214F
:103C5C004FF48020FFF71AFD00BF80BD80B582B005
:103C6C0000AF25233B7100237B710123BB71012322
:103C7C00FB713B1D1846FEF77DFE0E233B710023A6
:103C8C007B710223BB710123FB713B1D1846FEF7B0
:103C9C0071FE00BF0837BD4680BD000080B582B004
:103CAC0000AF0323BB710423FB714FF48063BB8013
:103CBC003B1D19460848FFF701FB1823FB714FF415
:103CCC000073BB803B1D19460348FFF7F7FA00BF92
:103CDC000837BD4680BD00BF0008014080B588B0E4
:103CEC0000AF7860396000233B8100237B814FF467
:103CFC000073BB810023FB817B681B6807F1080202
:103D0C0011461846FFF732FE7B681B681846FFF712
:103D1C0017FD3B681B683B613B681B7903F00F0385
:103D2C00DBB2082B02D10023BB8209E03B681B7974
:103D3C0003F00F03DBB2092B02D14FF48053BB828B
:103D4C003B681B7903F03003DBB2002B02D100235C
:103D5C00FB8214E03B681B7903F03003DBB2102BC1
:103D6C0003D14FF44053FB8209E03B681B7903F00D
:103D7C003003DBB2202B02D14FF40053FB823B68A3
:103D8C001B7923F03F03DBB2002B02D100233B83D2
:103D9C0014E03B681B7923F03F03DBB2402B03D1CB
:103DAC004FF4C0633B8309E03B681B7923F03F036E
:103DBC00DBB2802B02D14FF480633B830023BB83A7
:103DCC000C237B837B681B6807F110021146184695
:103DDC00FFF712FD7B681B68012280211846FFF754
:103DEC0056FE7B681B68012240F225511846FFF7EE
:103DFC0007FE7B681B6840F225511846FFF7D3FE7F
:103E0C007B681B6801211846FFF7DBFD00BF2037DC
:103E1C00BD4680BD80B58EB000AF78607B681B68F6
:103E2C007B6301210120FFF7F5FB7B6B9B68184638
:103E3C00FFF79CF87B6B1B680433BB607B687433A7
:103E4C00FB6010233B616C237B610023BB618023EF
:103E5C00FB6100233B6200237B622023BB624FF497
:103E6C000053FB6200233B637B6B9B6807F10802EA
:103E7C0011461846FFF736F97B6B9B68012202212D
:103E8C001846FFF789F97B6B9B6800211846FFF7F2
:103E9C0067F900BF3837BD4680BD000080B584B0DF
:103EAC0000AF78607B681B681B68FB6040F2255193
:103EBC00F868FFF71EFE0346002B3CD00421F8687F
:103ECC0000F002F9034683F00103DBB2002B2DD086
:103EDC00F868FFF7FFFD03461A467B689B79194685
:103EEC00D2B27B680B441A727B689B790133DAB2CD
:103EFC007B689A717B689B799A082549A1FB021211
:103F0C00D2086C2101FB02F29B1ADAB27B689A711F
:103F1C007B689A797B68DB799A4207D17B680022AF
:103F2C009A7101220421F86800F09AF840F22551A8
:103F3C00F868FFF738FE40F22661F868FFF7D9FD04
:103F4C000346002B11D000220121F86800F088F8FC
:103F5C00AFF3008040F22661F868FFF724FE0022E0
:103F6C0040F22661F868FFF74BFD40F22771F868C4
:103F7C00FFF7BFFD0821F868FFF7BBFD0346012BD7
:103F8C0002D1F868FFF7A6FD00BF1037BD4680BD13
:103F9C00F712DA4B80B584B000AF78607B681B6891
:103FAC000833FB60FB68DB681846FFF72DF9034606
:103FBC00002B26D07B681B681B68144A934210D1D7
:103FCC007B681B681B6840F226611846FFF7EBFD07
:103FDC007B681B681B68012240F226611846FFF7BC
:103FEC000FFDAFF300807B6800225A71FB681B68E1
:103FFC0000211846FFF7B4F8FB685B681846FFF71A
:10400C00E9F800BF1037BD4680BD00BF0048004036
:10401C0080B500AF0248FFF741FF00BF80BD00BF75
:10402C003400002080B500AF0248FFF7B3FF00BF9B
:10403C0080BD00BF3400002080B485B000AF786034
:10404C007B68054A934201D1044BFB60FB68184620
:10405C001437BD4680BC7047003801403400002046
:10406C0080B584B000AF78600B46FB701346BB7014
:10407C007868FFF7E1FFF860FB78013B042B1DD853
:10408C0001A252F823F000BFA9400008B14000087B
:10409C00B9400008C1400008C9400008FB68BA7864
:1040AC005A710CE0FB68BA781A7108E0FB68BA78B0
:1040BC005A7104E0FB68BA781A7100E000BF00BFC7
:1040CC001037BD4680BD00BF80B584B000AF7860AE
:1040DC000B46FB700023FB737868FFF7ADFFB860ED
:1040EC00FB78013B042B2ED801A252F823F000BF21
:1040FC00114100081941000821410008294100081C
:10410C0031410008BB685B79FB731FE0BB681B790E
:10411C00FB731BE0BB685B79FB7317E0BB681B7917
:10412C00FB7313E0BB685B7983F00103DBB2002BFC
:10413C000BD0BB681B7983F00103DBB2002B04D0DE
:10414C000123FB7301E000BF00E000BFFB7B1846BE
:10415C001037BD4680BD00BF80B582B000AFFFF701
:10416C0067FDFFF77BFDFFF799FD084B4FF4E1323C
:10417C001A60074B7B6005497868FFF7AFFD05486F
:10418C00FFF748FE00BF0837BD4680BD1400002075
:10419C001C0000203400002080B586B000AF3D4BE1
:1041AC00B3F87830002B0BD13A4B00221A70394BF4
:1041BC00002283F87620374B0022A3F87C2060E0A5
:1041CC00344BB3F87830072B2AD90823BB72002361
:1041DC00FB8214E02F4BB3F87A305A1C91B22D4A63
:1041EC00A2F87A101946FB8A2A4A0A44527807F137
:1041FC0018010B4403F80D2CFB8A0133FB82FB8A5C
:10420C00072BE7D93B4619462348FEF747FC214BC1
:10421C00B3F87830083B9AB21E4BA3F8782030E004
:10422C001C4BB3F87830002B2BD01A4BB3F87830EA
:10423C00DBB2BB720023FB8214E0164BB3F87A306E
:10424C005A1C91B2134AA2F87A101946FB8A114AE9
:10425C000A44527807F118010B4403F80D2CFB8A21
:10426C000133FB820B4BB3F87830FA8A9A42E4D3D1
:10427C003B4619460848FEF711FC064B0022A3F8F2
:10428C00782001210448FEF797FD00BF1837BD4682
:10429C0080BD00BFE40500200064004090B589B0EB
:1042AC0000AF00F051F9B86104233B723B461A464B
:1042BC000021A248FEF7C2FCA14B1B78002B40F05A
:1042CC0035819F4BB3F87E301A467B689A4205D0F5
:1042DC009B4BB3F87E30002B40F02881984BB3F801
:1042EC007A30002B4DD1964B012283F876207B68D7
:1042FC009AB2934BA3F87E20914BB3F87E301B0AF5
:10430C009BB2DAB28E4B5A708D4BB3F87E30DAB268
:10431C008B4B9A708A4BB3F87A3002339AB2884B33
:10432C00A3F87A200023FB8311E0FA8BFB8B8449E2
:10433C00B1F87A100B4407F120010A4412F8151C4D
:10434C007F4A13440A465A70FB8B0133FB83BB7ABA
:10435C009BB2FA8B9A42E8D3794BB3F87820784B1E
:10436C005B799BB213449AB2754BA3F87820744BCB
:10437C00B3F878306D2B1ED9714B6D22A3F87820D1
:10438C0019E00023FB8311E0FA8BFB8B6C49B1F82D
:10439C007A100B4407F120010A4412F8151C684AE4
:1043AC0013440A465A70FB8B0133FB83BB7A9BB2D6
:1043BC00FA8B9A42E8D3624BB3F87A20BB7A9BB261
:1043CC0013449AB25E4BA3F87A205D4BB3F87A2073
:1043DC005B4BB3F878309A4205D2594BB3F87A302C
:1043EC006C2B40F2A380564BDB789BB21B029AB22B
:1043FC00534B1B799BB21344FB82FB8A002B22D1BB
:10440C00504B1B78002B7AD10023BB830BE0BA8B6B
:10441C00BB8B4B490A4451784A4A13440A465A709A
:10442C00BB8B0133BB83464BB3F87830BA8B9A42C3
:10443C00EDD3434BB3F87820424BA3F87820414B93
:10444C0001221A705BE00123FB8353E0FB8B013BE1
:10445C00BA6904335B0013445B88FA8A9A4209D028
:10446C00FB8B013BBA6904335B001344DB88FA8A8B
:10447C009A423CD1FA8B334913465B0113449B009F
:10448C000B441B78002B39D10023BB8312E0BB8B70
:10449C00FA8BB98B2A4803445C782A4813465B0193
:1044AC0013449B0003440B44013322461A70BB8B0C
:1044BC000133BB83224BB3F87830BA8B9A42E6D3E4
:1044CC00FA8B1F4BB3F878001E4913465B0113445B
:1044DC009B000B44783302461A80FA8B1949134619
:1044EC005B0113449B000B4401221A7006E0FB8B0A
:1044FC000133FB83FB8B022BA8D900E000BF104BD0
:10450C000022A3F87A200E4B0022A3F87E200C4B3D
:10451C00002283F876200A4B0022A3F87C20084B5B
:10452C0000221A70064B0522A3F8782002210348BA
:10453C00FEF742FC00BF2437BD4690BD006400402E
:10454C00600500206806002080B400AF024B1846BE
:10455C00BD4680BC704700BF0008002080B500AF8E
:10456C00FFF7FAFD00BF80BD80B500AF00F0CCF9BD
:10457C00FFF7F4FF0C4800F029F90C4800F026F97D
:10458C000B4800F023F90B4800F020F9084800F024
:10459C001DF9094800F01AF9054800F017F903480D
:1045AC0000F014F9FEE700BF884B00088C4B0008A4
:1045BC00B44B0008DC4B0008044C0008DFF834D086
:1045CC00002103E00C4B5B58435004310B480C4B5F
:1045DC0042189A42F6D30B4A02E0002342F8043BFD
:1045EC00094B9A42F9D300F037F800F031FAFFF793
:1045FC00BBFF704700500020404C0008000000201A
:10460C00440500204405002028090020FEE780B462
:10461C0000AF00BFBD4680BC704780B400AFFEE762
:10462C0080B400AFFEE780B400AFFEE780B400AF0B
:10463C00FEE780B400AF00BFBD4680BC704780B4BD
:10464C0000AF00BFBD4680BC704780B400AF00BF58
:10465C00BD4680BC7047000080B500AF154B1B6891
:10466C00144A43F001031360124B5A681149124B60
:10467C0013404B600F4B1B680E4A23F0847323F4DA
:10468C00803313600B4B1B680A4A23F4802313609E
:10469C00084B5B68074A23F4FE035360054B4FF449
:1046AC001F029A6000F00CF8044B4FF000629A6005
:1046BC0000BF80BD001002400000FFF800ED00E0DC
:1046CC0080B500AF00F002F800BF80BD80B483B0AD
:1046DC0000AF00237B6000233B603A4B1B68394AD8
:1046EC0043F480331360374B1B6803F400333B6097
:1046FC007B6801337B603B68002B03D17B68B3F58F
:10470C00A06FF0D12F4B1B6803F40033002B02D0A9
:10471C0001233B6001E000233B603B68012B4BD144
:10472C00294B1B68284A43F010031360264B1B6867
:10473C00254A23F003031360234B1B68224A43F0E2
:10474C00020313601F4B1F4A5B6853601D4B1D4ACD
:10475C005B6853601B4B5B681A4A43F4806353607D
:10476C00184B5B68174A23F47C135360154B5B683A
:10477C00144A43F4E8135360124B1B68114A43F07C
:10478C008073136000BF0F4B1B6803F00073002B8A
:10479C00F9D00C4B5B680B4A23F003035360094BB5
:1047AC005B68084A43F00203536000BF054B5B682B
:1047BC0003F00C03082BF9D100BF0C37BD4680BCAD
:1047CC00704700BF001002400020024080B586B048
:1047DC0000AF78607868FEF7B3F803463B610023BE
:1047EC00FB603A6979680120FFF7FAF9F860012259
:1047FC000B490120FFF7F4F90246FB681344FB60F8
:10480C003B690133FA689A4202D100237B6102E0D2
:10481C004FF0FF337B617B6918461837BD4680BD6E
:10482C002C4C000880B500AF4FF48030FEF714FD1F
:10483C000346002B0CD04FF48030FEF731FD0420E2
:10484C00FEF706FE0346002B02D00420FEF71AFEEC
:10485C0000BF80BD80B483B000AF03463960FB71EC
:10486C0097F90730002B0BDA3B68DAB20C49FB796D
:10487C0003F00F03043B1201D2B20B441A7609E089
:10488C003B68DAB2074997F907301201D2B20B44F0
:10489C0083F8002300BF0C37BD4680BC704700BFB7
:1048AC0000ED00E000E100E080B582B000AF786080
:1048BC007B68B3F1807F01D3012311E07B6823F087
:1048CC007F43094A013B53600F214FF0FF30FFF744
:1048DC00C1FF054B00229A60034B07221A6000238C
:1048EC0018460837BD4680BD10E000E080B500AF2B
:1048FC004FF420514FF00060FEF79EF84FF4E0604B
:10490C00FEF726F800BF80BD80B500AFFFF7EEFFC5
:10491C0042F22830FFF7C8FF6FF00400FEF7A2F850
:10492C0000BF80BD80B400AF00BFBD4680BC7047E7
:10493C0080B500AF40F225513448FFF7DAF8034652
:10494C00002B3FD03148FFF7C5F803461A46304BD1
:10495C00B3F87A301946D2B22D4B0B445A702C4B0B
:10496C00B3F87A30002B08D1294B0022A3F87C2015
:10497C00274B022283F8762003E0254B0022A3F874
:10498C007C20234BB3F87A3001339AB2204BA3F836
:10499C007A201F4BB3F87A306C2B0ED91C4B0022AB
:1049AC00A3F87A201A4B002283F87620184B0022A9
:1049BC00A3F87C20164B00221A7040F225511348A4
:1049CC00FFF7F1F840F226611048FFF792F8034622
:1049DC00002B19D04FF480510E48FEF72BFD0E4BD7
:1049EC0000221A700C4B0022A3F87A20084B0022EC
:1049FC00A3F87C20064B012283F8762040F2266136
:104A0C000248FFF7D0F800BF00BF80BD004800404F
:104A1C0014080020000C01409808002080B500AF5D
:104A2C002020FEF7D7FB00210748FEF799FB40F248
:104A3C0026610648FFF7B7F8012240F226610348C9
:104A4C00FEF7DEFF00BF80BD1C00024000480040A6
:104A5C0070B500260C4D0D4C641BA410A64209D158
:104A6C0000F080F800260A4D0A4C641BA410A642E4
:104A7C0005D170BD55F8043B98470136EEE755F863
:104A8C00043B98470136F2E7344C0008344C0008DC
:104A9C00344C00083C4C0008024B13B1024800F0A7
:104AAC0005B8704700000000C54A00080023014605
:104ABC001A46184600F016B838B5074D074C641B5B
:104ACC00A4101CB9BDE8384000F052B8013C55F8B0
:104ADC0024309847F5E700BF3C4C0008404C0008D8
:104AEC00704770472DE9F8431C4D064628689846D8
:104AFC000F469146FFF7F4FF194B28461B68D3F875
:104B0C0048411CB903F5A674C3F8484165680068B0
:104B1C001F2D05DDFFF7E5FF4FF0FF30BDE8F883F3
:104B2C009EB1012204EB8501C1F88890D4F888313C
:104B3C00AA401343022EC4F88831C1F8088102BF81
:104B4C00D4F88C311A43C4F88C216B1C0235636089
:104B5C0044F82570FFF7C5FF0020DFE74005002073
:104B6C00304C0008F8B500BFF8BC08BC9E46704736
:0C4B7C00F8B500BFF8BC08BC9E467047AE
:104B88000D0000002A2A2A2A2A2A2A2A2A2A2A2A18
:104B98002A2A2A2A2A2A2A2A2A2A2A2A2A2A2A2A6D
:104BA8002A2A2A2A2A2A2A0D000000002A20202040
:104BB80020202020202020202020202020202020ED
:104BC80020202020202020202020202020202A0DE6
:104BD800000000002A202020202020204F6E65435E
:104BE8004D2773204170706C69636174696F6E2022
:104BF8002020202020202A0D000000002A2020202C
:104C08002020202056657273696F6E203A20312E5D
:104C180030302020202020202020202020202A0D75
:0C4C2800000000000A000000180100203D
:084C3400A54A0008312900081F
:044C3C000D29000836
:104C40000000000001020304010203040607080932
:104C5000020406088025000008B001000038014069
:104C60002500000044000240001000000E0000007B
:104C7000002000001C0000200000000200000000D6
:104C80000000000000000000000000000000000024
:104C90000000000000000000000000000000000014
:104CA0000000000000000000000000000000000004
:104CB00000000000000000000000000000000000F4
:104CC00000000000000000000000000000000000E4
:104CD00000000000000000000000000000000000D4
:104CE00000000000000000000000000000000000C4
:104CF00000000000000000000000000000000000B4
:104D000000000000000000000000000000000000A3
:104D10000000000000000000000000000000000093
:104D20000000000000000000000000000000000083
:104D30000000000000000000000000000000000073
:104D40000000000000000000000000000000000063
:104D5000000000000000000000000000040400202B
:104D60006C040020D40400200000000000000000BB
:104D70000000000000000000000000000000000033
:104D80000000000000000000000000000000000023
:104D90000000000000000000000000000000000013
:104DA0000000000000000000000000000000000003
:104DB00000000000000000000000000000000000F3
:104DC00000000000000000000000000000000000E3
:104DD00000000000000000000000000000000000D3
:104DE00000000000000000000000000000000000C3
:104DF00000000000000000000000000000000000B3
:104E000001000000000000000E33CDAB34126DE64F
:104E1000ECDE05000B0000000000000000000000B8
:104E20000000000000000000000000000000000082
:104E30000000000000000000000000000000000072
:104E40000000000000000000000000000000000062
:104E50000000000000000000000000000000000052
:045180001C090020E6
:04000005080045C9E1
:00000001FF
