:020000040800F2
:1000000000500020750C0008D1060008DD0600082D
:10001000E3060008E9060008EF06000800000000FB
:10002000000000000000000000000000F5060008CD
:1000300001070008000000000D070008190700086C
:10004000BD0C0008BD0C0008BD0C0008BD0C00086C
:10005000BD0C0008BD0C0008BD0C0008BD0C00085C
:10006000BD0C0008BD0C0008BD0C0008BD0C00084C
:10007000BD0C0008BD0C000825070008310700086A
:10008000BD0C0008BD0C0008BD0C0008BD0C00082C
:10009000BD0C0008BD0C0008BD0C0008BD0C00081C
:1000A000BD0C0008BD0C0008BD0C0008BD0C00080C
:1000B000BD0C0008BD0C0008BD0C0008BD0C0008FC
:1000C000BD0C0008BD0C0008BD0C0008BD0C0008EC
:1000D000BD0C00083D070008BD0C0008BD0C000861
:1000E000BD0C0008BD0C0008BD0C0008000000009D
:1000F0000000000000000000000000000000000000
:0C01000000000000000000005FF808F1A3
:10010C0010B5054C237833B9044B13B10448AFF345
:10011C0000800123237010BD0400002000000000AB
:10012C00AC13000808B5034B1BB103490348AFF3EC
:10013C00008008BD0000000008000020AC1300087F
:10014C0080B400AF044BDB681B0A03F007031846AE
:10015C00BD4680BC704700BF00ED00E080B483B0AA
:10016C0000AF0346FB7197F90730002B0BDBFB79D3
:10017C0003F01F02064997F907305B09012000FACA
:10018C0002F241F8232000BF0C37BD4680BC7047FB
:10019C0000E100E080B483B000AF03463960FB712E
:1001AC0097F90730002B0ADB3B68DAB20C4997F958
:1001BC0007301201D2B20B4483F800230AE03B68EB
:1001CC00DAB20849FB7903F00F03043B1201D2B2F7
:1001DC000B441A7600BF0C37BD4680BC704700BF7D
:1001EC0000E100E000ED00E080B489B000AFF86001
:1001FC00B9607A60FB6803F00703FB61FB69C3F12C
:10020C000703042B28BF0423BB61FB690433062BB3
:10021C0002D9FB69033B00E000237B614FF0FF3206
:10022C00BB6902FA03F3DA43BB681A407B699A4054
:10023C004FF0FF317B6901FA03F3D9437B680B4024
:10024C00134318462437BD4680BC704780B485B034
:10025C0000AF7860084B5A6907497B6813434B61C0
:10026C00054B5A697B681340FB60FB6800BF143771
:10027C00BD4680BC704700BF0010024080B500AF87
:10028C000120FFF7E3FFFFF75BFF0346002200218D
:10029C001846FFF7A9FF034619460E20FFF77AFF11
:1002AC000E20FFF75BFFFFF74BFF034600220021F8
:1002BC001846FFF799FF034619460F20FFF76AFF10
:1002CC000F20FFF74BFF00BF80BD000080B485B04E
:1002DC0000AF7860084B9A6907497B6813438B61C0
:1002EC00054B9A697B681340FB60FB6800BF1437B1
:1002FC00BD4680BC704700BF0010024080B483B084
:10030C0000AF786039603B681B0A9AB27B685A610F
:10031C0000BF0C37BD4680BC7047000080B586B06E
:10032C0000AF3B1D00221A605A609A60DA601A61B5
:10033C001020FFF7CBFF2020FFF7C8FF0820FFF7A6
:10034C00C5FF0420FFF7C2FF12491348FFF7D6FF81
:10035C0010491248FFF7D2FF0E4B7B600123BB60A4
:10036C000223FB6000233B613B1D19460A4800F049
:10037C0058FD084B7B600123BB600223FB6000230C
:10038C003B613B1D1946054800F04BFD00BF18377B
:10039C00BD4680BD2000200400100140000C01402F
:1003AC0080B485B000AF78607B6803F00703FB6016
:1003BC000C4BDB68BB60BA684FF6FF031340BB60A5
:1003CC00FB681A02BB68134343F0BF6343F400336A
:1003DC00BB60044ABB68D36000BF1437BD4680BC09
:1003EC00704700BF00ED00E080B400AF044B1B6809
:1003FC00034A43F48033136000BFBD4680BC704792
:10040C000010024080B400AF064B1B6803F40033AD
:10041C00B3F5003F0CBF01230023DBB21846BD46E9
:10042C0080BC70470010024080B483B000AF78608D
:10043C00064B5B6823F0030204497B6813434B6053
:10044C0000BF0C37BD4680BC704700BF0010024097
:10045C0080B400AF034B5B6803F00C031846BD4639
:10046C0080BC70470010024080B483B000AF78604D
:10047C00064B5B6823F0F00204497B6813434B6026
:10048C0000BF0C37BD4680BC704700BF0010024057
:10049C0080B483B000AF7860064B5B6823F4E062F5
:1004AC0004497B6813434B6000BF0C37BD4680BCCE
:1004BC00704700BF0010024080B483B000AF78607A
:1004CC00064B5B6823F4605204497B6813434B6012
:1004DC0000BF0C37BD4680BC704700BF0010024007
:1004EC0080B400AF044B1B68034A43F08073136065
:1004FC0000BFBD4680BC70470010024080B400AF06
:10050C00064B1B6803F00073B3F1007F0CBF012393
:10051C000023DBB21846BD4680BC70470010024079
:10052C0080B483B000AF78603960084B5B6823F40B
:10053C007C127B6803F440313B680B430349134343
:10054C004B6000BF0C37BD4680BC704700100240AA
:10055C0080B485B000AF7860084BDA6907497B68D6
:10056C001343CB61054BDA697B681340FB60FB6876
:10057C0000BF1437BD4680BC704700BF001002405E
:10058C0080B485B000AF7860084B9A6907497B68E6
:10059C0013438B61054B9A697B681340FB60FB68C6
:1005AC0000BF1437BD4680BC704700BF001002402E
:1005BC0080B483B000AF7860064B1B6823F0070251
:1005CC0004497B6813430B6000BF0C37BD4680BCED
:1005DC00704700BF0020024080B400AF034B1B6883
:1005EC0003F007031846BD4680BC7047002002404C
:1005FC0080B400AF074B5B68064A23F0E06353609E
:10060C00044B5B68034A43F08063536000BFBD46F4
:10061C0080BC70470000014080B500AF0120FFF79F
:10062C00AFFF4FF08050FFF793FF0320FFF7B8FEAA
:10063C00FFF7DEFF00F008F8FFF770FEFFF71EFE75
:10064C0000F062FAFEE7000080B500AF0220FFF771
:10065C00AFFF00BFFFF7C0FF0346022BFAD1FFF735
:10066C00C3FE00BFFFF7CEFE0346012BFAD14FF4B9
:10067C00E0114FF48030FFF753FFFFF731FF00BF5D
:10068C00FFF73CFF0346012BFAD10020FFF7ECFEED
:10069C004FF48060FFF7FCFE0020FFF70DFF0220F7
:1006AC00FFF7C2FE00BFFFF7D3FE0346082BFAD1BB
:1006BC00034800F035FE024800F040FE00BF80BD4C
:1006CC0000A24A0480B400AF00BFBD4680BC704796
:1006DC0080B400AFFEE780B400AFFEE780B400AF9B
:1006EC00FEE780B400AFFEE780B400AF00BFBD46AC
:1006FC0080BC704780B400AF00BFBD4680BC704763
:10070C0080B400AF00BFBD4680BC704780B400AF62
:10071C0000BFBD4680BC704780B400AF00BFBD4673
:10072C0080BC704780B400AF00BFBD4680BC704732
:10073C0080B400AF00BFBD4680BC704780B400AF32
:10074C00154B1B68144A43F001031360124B5A6893
:10075C001149124B13404B600F4B1B680E4A23F090
:10076C00847323F4803313600B4B1B680A4A23F405
:10077C0080231360084B5B68074A23F4FE03536025
:10078C00054B4FF41F029A60054B4FF000629A60C4
:10079C0000BFBD4680BC7047001002400000FFF84F
:1007AC0000ED00E080B400AF044BDB681B0A03F0E3
:1007BC0007031846BD4680BC704700BF00ED00E043
:1007CC0080B483B000AF0346FB7197F90730002B60
:1007DC000BDBFB7903F01F02064997F907305B0925
:1007EC00012000FA02F241F8232000BF0C37BD466D
:1007FC0080BC704700E100E080B483B000AF0346DA
:10080C003960FB7197F90730002B0ADB3B68DAB2D1
:10081C000C4997F907301201D2B20B4483F800232C
:10082C000AE03B68DAB20849FB7903F00F03043B9A
:10083C001201D2B20B441A7600BF0C37BD4680BCF5
:10084C00704700BF00E100E000ED00E080B489B02B
:10085C0000AFF860B9607A60FB6803F00703FB61D6
:10086C00FB69C3F10703042B28BF0423BB61FB699D
:10087C000433062B02D9FB69033B00E000237B61A8
:10088C004FF0FF32BB6902FA03F3DA43BB681A403C
:10089C007B699A404FF0FF317B6901FA03F3D9432E
:1008AC007B680B40134318462437BD4680BC704709
:1008BC0080B485B000AFF860B9607A60BB68013B6A
:1008CC000C4AD35C1A46FB6813441B6823F4804320
:1008DC0023F01003BA68013A06498A5C1146FA689B
:1008EC000A4411467A6813430B6000BF1437BD46A7
:1008FC0080BC7047DC13000880B485B000AFF86092
:10090C00B9607A60BB68013B0B4AD35C1A46FB6842
:10091C0013441B6823F02002BB68013B0649CB5CE7
:10092C001946FB680B4419467B6813430B6000BFE8
:10093C001437BD4680BC7047DC13000880B485B00A
:10094C0000AFF860B9607A60BB68013B0B4AD35CBE
:10095C001A46FB6813441B6823F04002BB68013B3A
:10096C000649CB5C1946FB680B4419467B6813435C
:10097C000B6000BF1437BD4680BC7047DC13000809
:10098C0080B485B000AFF860B9607A60BB68013B99
:10099C000B4AD35C1A46FB6813441B6823F0800295
:1009AC00BB68013B0649CB5C1946FB680B441946F6
:1009BC007B6813430B6000BF1437BD4680BC704787
:1009CC00DC13000880B485B000AFF860B9607A60C1
:1009DC00BB68013B0B4AD35C1A46FB6813441B688B
:1009EC0023F44072BB68013B0649CB5C1946FB689B
:1009FC000B4419467B6813430B6000BF1437BD468C
:100A0C0080BC7047DC13000880B485B000AFF86080
:100A1C00B9607A60BB68013B0B4AD35C1A46FB6831
:100A2C0013441B6823F44062BB68013B0649CB5C52
:100A3C001946FB680B4419467B6813430B6000BFD7
:100A4C001437BD4680BC7047DC13000880B485B0F9
:100A5C0000AFF860B9607A60BB68013B0B4AD35CAD
:100A6C001A46FB6813441B6823F44052BB68013BD5
:100A7C000649CB5C1946FB680B4419467B6813434B
:100A8C000B6000BF1437BD4680BC7047DC130008F8
:100A9C0080B485B000AF7860084B9A6907497B68D1
:100AAC0013438B61054B9A697B681340FB60FB68B1
:100ABC0000BF1437BD4680BC704700BF0010024019
:100ACC0080B483B000AF78607B68DB6843F400527D
:100ADC007B68DA6000BF0C37BD4680BC704780B4C1
:100AEC0083B000AF78607B681B6923F490427B680D
:100AFC001A617B685B6923F02A027B685A6100BF2C
:100B0C000C37BD4680BC704780B58CB000AF07F188
:100B1C00140300221A605A609A60DA601A615A61F2
:100B2C009A613B4600221A605A609A60DA601A6138
:100B3C004FF48040FFF7ACFF0420FFF7A9FF454BB3
:100B4C003B6009237B600323BB600023FB603B46B7
:100B5C001946414800F065F9404B3B6004237B602B
:100B6C003B4619463C4800F05CF9002205213C4804
:100B7C00FFF79EFE002205213948FFF767FF202270
:100B8C0005213748FFF7B8FE002205213448FFF74E
:100B9C00D5FE802205213248FFF7F2FE0022052106
:100BAC002F48FFF70FFF002205212D48FFF72CFFE0
:100BBC00102204212A48FFF77BFE0022042128483A
:100BCC00FFF744FF202204212548FFF795FE002261
:100BDC0004212348FFF7B2FE802204212048FFF7AE
:100BEC00CFFE002204211E48FFF7ECFE0022042158
:100BFC001B48FFF709FFFFF7D5FD03460022002134
:100C0C001846FFF723FE034619462520FFF7F4FD8F
:100C1C002520FFF7D5FD4FF416537B610023BB61F4
:100C2C000023FB6100233B620C237B620023BB622D
:100C3C000023FB6207F1140319460A4800F0F6FA88
:100C4C000848FFF74CFF0748FFF73AFF00BF303763
:100C5C00BD4680BD020002040008014004000404EB
:100C6C000000024000380140002103E00B4B5B58B0
:100C7C00435004310A480B4B42189A42F6D30A4AA5
:100C8C0002E0002342F8043B084B9A42F9D3FFF7E9
:100C9C0055FD00F061FBFFF7BFFC7047EC1300083B
:100CAC000000002004000020040000202000002090
:100CBC00FEE790B488B000AFF860B9607A60FB686A
:100CCC001A46BB681B0E13441C462268BB687B612A
:100CDC007B6993FAA3F33B613B69B3FA83F3DBB211
:100CEC009B000F2101FA03F3DB431A40BB68FB6145
:100CFC00FB6993FAA3F3BB61BB69B3FA83F3DBB271
:100D0C009B00796801FA03F31343236000BF20377B
:100D1C00BD4690BC704790B488B000AFF860B96025
:100D2C007A60FB681A46BB681B0E13441C4622688B
:100D3C00BB687B617B6993FAA3F33B613B69B3FAB4
:100D4C0083F3DBB29B00032101FA03F3DB431A406C
:100D5C00BB68FB61FB6993FAA3F3BB61BB69B3FA94
:100D6C0083F3DBB29B00796801FA03F3134323602E
:100D7C0000BF2037BD4690BC704790B488B000AF20
:100D8C00F860B9607A60FB681A46BB681B0E1344A6
:100D9C001C462268BB687B617B6993FAA3F33B61B9
:100DAC003B69B3FA83F3DBB29B00042101FA03F332
:100DBC00DB431A40BB68FB61FB6993FAA3F3BB618D
:100DCC00BB69B3FA83F3DBB29B00796801FA03F3D6
:100DDC001343236000BF2037BD4690BC704780B4DE
:100DEC0087B000AFF860B9607A60FB68DA68BB68FE
:100DFC001B0ADB431A40BB681B0A7B617B6993FAB5
:100E0C00A3F33B613B69B3FA83F3DBB219467B680E
:100E1C008B401A43FB68DA6000BF1C37BD4680BCB0
:100E2C00704780B588B000AF786039603B681B684C
:100E3C001B021B0C7B617B693B613B6993FAA3F33F
:100E4C00FB60FB68B3FA83F3DBB2FB6140E0012289
:100E5C00FB699A407B691340002B36D0FB69072B4A
:100E6C0006D840F20112FB6902FA03F3BB6108E0F9
:100E7C00FB69083B4FF0011202FA03F343F0806365
:100E8C00BB613B685B681A46B9697868FFF711FF6C
:100E9C003B681B691A46B9697868FFF7A0FF3B6885
:100EAC005B68012B03D03B685B68092B0DD13B6859
:100EBC009B681A46B9697868FFF72DFF3B68DB68B9
:100ECC001A46B9697868FFF758FFFB690133FB6173
:100EDC007A69FB6922FA03F3002BB8D10023184678
:100EEC002037BD4680BD000080B400AF034B5B686B
:100EFC0003F00C031846BD4680BC7047001002403E
:100F0C0080B400AF034B5B6803F0F0031846BD469A
:100F1C0080BC70470010024080B400AF034B5B688C
:100F2C0003F4E0631846BD4680BC704700100240D5
:100F3C0080B400AF034B5B6803F460531846BD46A6
:100F4C0080BC70470010024080B400AF034B5B685C
:100F5C0003F480331846BD4680BC70470010024035
:100F6C0080B400AF034B5B6803F470131846BD46A6
:100F7C0080BC70470010024080B400AF044B5B682B
:100F8C005B0C03F001031846BD4680BC704700BFE4
:100F9C000010024080B582B000AF786000F020F8FD
:100FAC0002467B681A607B681B68184600F03AF8AA
:100FBC0002467B685A607B685B68184600F048F80C
:100FCC0002467B689A607B685B68184600F054F8B0
:100FDC0002467B68DA6000BF0837BD4680BD000062
:100FEC0080B582B000AF00237B60FFF77DFF034626
:100FFC00042B06D0082B07D0002B09D1084B7B60A3
:10100C0009E0074B7B6006E000F04AF8786002E0EC
:10101C00034B7B6000BF7B6818460837BD4680BD1C
:10102C0000127A0080B582B000AF7860FFF768FFDD
:10103C0003461B0903F00F03044AD35C1A467B6872
:10104C00D34018460837BD4680BD00BFC413000806
:10105C0080B582B000AF7860FFF75EFF03461B0AD5
:10106C00044AD35C1A467B68D34018460837BD4601
:10107C0080BD00BFD413000880B582B000AF78608B
:10108C00FFF756FF0346DB0A044AD35C1A467B681B
:10109C00D34018460837BD4680BD00BFD4130008A6
:1010AC0080B582B000AF00237B6000233B60FFF76C
:1010BC004BFF38603B68002B03D0B3F5803F03D067
:1010CC000BE00D4B7B600BE0FFF756FF0346013343
:1010DC000A4AB2FBF3F37B6002E0074B7B6000BF74
:1010EC00FFF73EFF03469B0C02337A6802FB03F3C7
:1010FC0018460837BD4680BD00093D0000127A0035
:10110C0080B483B000AF78607B68DB6803F4005375
:10111C00B3F5005F0CBF01230023DBB218460C377C
:10112C00BD4680BC704780B483B000AF7860396036
:10113C007B681B6923F440523B681A437B681A6135
:10114C0000BF0C37BD4680BC704780B483B000AF85
:10115C00786039607B685B6923F440723B681A43A2
:10116C007B685A6100BF0C37BD4680BC70470000DD
:10117C0080B485B000AFF860B9607A60BA68134685
:10118C009B0013449A001A447B689B00B2FBF3F358
:10119C00254AA2FB03235B099BB21B0199B2BA68D7
:1011AC0013469B0013449A001A447B689B00B2FBC5
:1011BC00F3F21D4BA3FB02035B09642000FB03F35A
:1011CC00D31A1B013233184AA2FB03235B099BB2CF
:1011DC0003F0F0039BB20B4499B2BA6813469B0020
:1011EC0013449A001A447B689B00B2FBF3F20E4B3B
:1011FC00A3FB02035B09642000FB03F3D31A1B015E
:10120C003233094AA2FB03235B099BB203F00F03A1
:10121C009BB20B449BB21A46FB689A6000BF143712
:10122C00BD4680BC704700BF1F85EB5180B588B0B0
:10123C0000AF786039600123FB770023BB617868CD
:10124C00FFF75EFF0346002B45D17B68DB6823F478
:10125C00B05323F00C033A6851683A68D2681143D2
:10126C003A6812690A431A437B68DA603B689B68E8
:10127C0019467868FFF757FF3B685B691946786831
:10128C00FFF763FF07F108031846FFF783FE7B683F
:10129C00134A934202D17B69BB610CE07B68114A13
:1012AC00934202D13B69BB6105E07B680E4A9342D5
:1012BC0001D13B69BB61BB69002B0CD03B681B683F
:1012CC00002B08D00023FB773B681B681A46B969D2
:1012DC007868FFF74DFFFB7F18462037BD4680BD71
:1012EC0000380140004400400048004080B483B006
:1012FC0000AF786039607A683B68B2FBF3F3074A59
:10130C00013B5360054B00229A60044B05221A6086
:10131C0000BF0C37BD4680BC704700BF10E000E03A
:10132C0080B582B000AF78604FF47A717868FFF7BF
:10133C00DDFF00BF0837BD4680BD000080B483B020
:10134C0000AF7860034A7B68136000BF0C37BD4662
:10135C0080BC70470000002070B500250C4E0D4C71
:10136C00A41BA410A54209D100F01AF800250A4EBE
:10137C000A4CA41BA410A54205D170BD56F825300B
:10138C0098470135EEE756F8253098470135F2E7D6
:10139C00E4130008E4130008E4130008E813000841
:1013AC00F8B500BFF8BC08BC9E467047F8B500BF46
:0813BC00F8BC08BC9E46704716
:1013C40000000000000000000102030406070809F1
:1013D4000000000001020304081C3044586C800023
:0413E40031010008CB
:0413E8000D010008EB
:0413EC000024F400E5
:0400000508000C756E
:00000001FF
