:020000040800F2
:100000000050002029060008890300089503000815
:100010009B030008A1030008A703000800000000DC
:10002000000000000000000000000000AD03000818
:10003000B903000800000000C5030008D103000850
:1000400071060008710600087106000871060008B4
:1000500071060008710600087106000871060008A4
:100060007106000871060008710600087106000894
:100070007106000871060008DD030008F10300089E
:100080007106000871060008710600087106000874
:100090007106000871060008710600087106000864
:1000A0007106000871060008710600087106000854
:1000B0007106000871060008710600087106000844
:1000C0007106000871060008710600087106000834
:1000D0007106000805040008710600087106000892
:1000E0007106000871060008710600080000000093
:1000F0000000000000000000000000000000000000
:0C01000000000000000000005FF808F1A3
:10010C0010B5054C237833B9044B13B10448AFF345
:10011C0000800123237010BD0C00002000000000A3
:10012C00301F000808B5034B1BB103490348AFF35C
:10013C00008008BD0000000010000020301F0008E7
:10014C0080B582B000AF104B5B690F4A43F00103DE
:10015C0053610D4B5B6903F001037B607B680022EC
:10016C0000210E2000F0B9FB0E2000F0D2FB002283
:10017C0000210F2000F0B1FB0F2000F0CAFB00BFE4
:10018C000837BD4680BD00BF0010024080B588B066
:10019C0000AF07F1100300221A605A609A60DA600F
:1001AC002E4B9B692D4A43F0100393612B4B9B699B
:1001BC0003F01003FB60FB68284B9B69274A43F054
:1001CC0020039361254B9B6903F02003BB60BB6844
:1001DC00224B9B69214A43F0080393611F4B9B6997
:1001EC0003F008037B607B681C4B9B691B4A43F044
:1001FC0004039361194B9B6903F004033B603B6858
:10020C0000224FF40051164800F0CEFE00224FF4AD
:10021C000051144800F0C8FE4FF400533B61012319
:10022C007B610023BB610223FB6107F110031946BC
:10023C000B4800F05FFD4FF400533B6101237B61E1
:10024C000023BB610223FB6107F11003194605482B
:10025C0000F050FD00BF2037BD4680BD00100240AD
:10026C0000100140000C014080B500AF00F0FCF91B
:10027C0000F007F8FFF78AFFFFF762FF00F0FAF8CB
:10028C00FEE780B590B000AF07F1180328220021DB
:10029C00184601F03FFE3B1D00221A605A609A601E
:1002AC00DA601A610123BB614FF48033FB610023D8
:1002BC003B620123BB6202237B634FF48033BB633D
:1002CC004FF4E013FB6307F11803184600F084FEAB
:1002DC000346002B01D000F019F80F237B6002239A
:1002EC00BB600023FB604FF480633B6100237B61A8
:1002FC003B1D0221184601F0EFF80346002B01D0FC
:10030C0000F004F800BF4037BD4680BD80B400AF9C
:10031C0000BFBD4680BC704780B485B000AF154BA4
:10032C009B69144A43F001039361124B9B6903F0E0
:10033C000103BB60BB680F4BDB690E4A43F0805373
:10034C00D3610C4BDB6903F080537B607B680A4BF9
:10035C005B68FB60FB6823F0E063FB60FB6843F0C9
:10036C008063FB60044AFB68536000BF1437BD46D2
:10037C0080BC7047001002400000014080B400AF08
:10038C0000BFBD4680BC704780B400AFFEE780B4B0
:10039C0000AFFEE780B400AFFEE780B400AFFEE72D
:1003AC0080B400AF00BFBD4680BC704780B400AFC6
:1003BC0000BFBD4680BC704780B400AF00BFBD46D7
:1003CC0080BC704780B500AF00F094F900BF80BDD1
:1003DC0080B500AF024800F087FB00BF80BD00BFB6
:1003EC002800002080B500AF024800F07DFB00BF64
:1003FC0080BD00BF6C00002080B500AF024801F04A
:10040C0055FA00BF80BD00BFB000002080B400AF23
:10041C00154B1B68144A43F001031360124B5A68C6
:10042C001149124B13404B600F4B1B680E4A23F0C3
:10043C00847323F4803313600B4B1B680A4A23F438
:10044C0080231360084B5B68074A23F4FE03536058
:10045C00054B4FF41F029A60054B4FF000629A60F7
:10046C0000BFBD4680BC7047001002400000FFF882
:10047C0000ED00E080B500AF114B124A1A60104B32
:10048C004FF416525A600E4B00229A600C4B00220D
:10049C00DA600B4B00221A61094B0C225A61084B93
:1004AC0000229A61064B0022DA61054801F0B0F98E
:1004BC000346002B01D0FFF729FF00BF80BD00BF12
:1004CC00B00000200038014080B588B000AF7860E3
:1004DC0007F1100300221A605A609A60DA607B6898
:1004EC001B68474A934240F08680464B9B69454ABD
:1004FC0043F480439361434B9B6903F48043FB605B
:10050C00FB68404B9B693F4A43F0040393613D4BAE
:10051C009B6903F00403BB60BB684FF400733B6141
:10052C0002237B610323FB6107F110031946364854
:10053C0000F0E0FB4FF480633B6100237B61002300
:10054C00BB6107F1100319462F4800F0D3FB2F4B6A
:10055C002F4A1A602D4B00225A602C4B00229A60B5
:10056C002A4B8022DA60294B00221A61274B002289
:10057C005A61264B20229A61244B0022DA612348CF
:10058C0000F0E2F90346002B01D0FFF7BFFE7B68B9
:10059C001E4A5A631D4A7B6853621E4B1E4A1A60E0
:1005AC001C4B10225A601B4B00229A60194B802264
:1005BC00DA60184B00221A61164B00225A61154B57
:1005CC0020229A61134B0022DA61124800F0BCF928
:1005DC000346002B01D0FFF799FE7B680D4A1A6386
:1005EC000C4A7B68536200220021252000F075F92B
:1005FC00252000F08EF900BF2037BD4680BD00BF1E
:10060C000038014000100240000801406C0000203E
:10061C00580002402800002044000240002103E062
:10062C000B4B5B58435004310A480B4B42189A420F
:10063C00F6D30A4A02E0002342F8043B084B9A42E4
:10064C00F9D3FFF7E3FE01F041FCFFF70DFE704715
:10065C007C1F0008000000200C0000200C00002073
:10066C00F4000020FEE7000080B500AF084B1B68CB
:10067C00074A43F010031360032000F023F9002015
:10068C0000F008F8FFF748FE0023184680BD00BFB5
:10069C000020024080B582B000AF7860124B1A681F
:1006AC00124B1B7819464FF47A73B3FBF1F3B2FB80
:1006BC00F3F3184600F03BF90346002B01D001235D
:1006CC000EE07B680F2B0AD8002279684FF0FF30C0
:1006DC0000F003F9064A7B681360002300E0012355
:1006EC0018460837BD4680BD0000002008000020D9
:1006FC000400002080B400AF054B1B781A46054B54
:10070C001B681344034A136000BFBD4680BC70478E
:10071C0008000020F000002080B400AF024B1B68E2
:10072C001846BD4680BC7047F000002080B485B0F0
:10073C0000AF78607B6803F00703FB600C4BDB6851
:10074C00BB60BA684FF6FF031340BB60FB681A022C
:10075C00BB68134343F0BF6343F40033BB60044AEC
:10076C00BB68D36000BF1437BD4680BC704700BF68
:10077C0000ED00E080B400AF044BDB681B0A03F013
:10078C0007031846BD4680BC704700BF00ED00E073
:10079C0080B483B000AF0346FB7197F90730002B90
:1007AC000BDBFB7903F01F02064997F907305B0955
:1007BC00012000FA02F241F8232000BF0C37BD469D
:1007CC0080BC704700E100E080B483B000AF03460A
:1007DC003960FB7197F90730002B0ADB3B68DAB202
:1007EC000C4997F907301201D2B20B4483F800235D
:1007FC000AE03B68DAB20849FB7903F00F03043BCB
:10080C001201D2B20B441A7600BF0C37BD4680BC25
:10081C00704700BF00E100E000ED00E080B489B05B
:10082C0000AFF860B9607A60FB6803F00703FB6106
:10083C00FB69C3F10703042B28BF0423BB61FB69CD
:10084C000433062B02D9FB69033B00E000237B61D8
:10085C004FF0FF32BB6902FA03F3DA43BB681A406C
:10086C007B699A404FF0FF317B6901FA03F3D9435E
:10087C007B680B40134318462437BD4680BC704739
:10088C0080B582B000AF78607B68013BB3F1807FAC
:10089C0001D301230FE00A4A7B68013B53600F210F
:1008AC004FF0FF30FFF790FF054B00229A60044B8E
:1008BC0007221A60002318460837BD4680BD00BFCA
:1008CC0010E000E080B582B000AF78607868FFF788
:1008DC002DFF00BF0837BD4680BD80B586B000AF88
:1008EC000346B9607A60FB7300237B61FFF742FF1C
:1008FC0078617A68B9687869FFF790FF024697F9D2
:10090C000F3011461846FFF75FFF00BF1837BD4682
:10091C0080BD80B582B000AF0346FB7197F90730FC
:10092C001846FFF735FF00BF0837BD4680BD80B5C0
:10093C0082B000AF78607868FFF7A2FF03461846D4
:10094C000837BD4680BD000080B485B000AF78602C
:10095C000023FB607B68002B01D1012343E07B6803
:10096C001B681A46224B1344224AA2FB03231B0981
:10097C009A007B681A647B681F4ADA637B680222E0
:10098C0083F821207B681B681B68FB60FB6823F4E1
:10099C007F5323F03003FB607B685A687B689B684D
:1009AC001A437B68DB681A437B681B691A437B68B4
:1009BC005B691A437B689B691A437B68DB69134349
:1009CC00FA681343FB607B681B68FA681A607B68E3
:1009DC0000229A637B68012283F821207B68002225
:1009EC0083F82020002318461437BD4680BC70477E
:1009FC00F8FFFDBFCDCCCCCC0000024080B584B05C
:100A0C0000AF78600023FB737B6893F82130022BD6
:100A1C0005D07B6804229A630123FB7351E07B6849
:100A2C001B681A687B681B6822F00E021A607B68D0
:100A3C001B681A687B681B6822F001021A607B68CD
:100A4C001B68224A934229D07B681B68204A934238
:100A5C0022D07B681B681F4A93421AD07B681B68A4
:100A6C001D4A934212D07B681B681C4A93420AD0E1
:100A7C007B681B681A4A934202D14FF480130EE034
:100A8C004FF080730BE04FF4803308E04FF4805349
:100A9C0005E04FF4807302E0102300E00123114ABB
:100AAC0053607B68012283F821207B68002283F845
:100ABC0020207B685B6B002B03D07B685B6B7868BA
:100ACC009847FB7B18461037BD4680BD0800024096
:100ADC001C0002403000024044000240580002401A
:100AEC006C0002400000024080B584B000AF78601A
:100AFC007B68DB6B1B68FB607B681B681B68BB60DF
:100B0C007B681B6C04229A40FB681340002B4FD06F
:100B1C00BB6803F00403002B4AD07B681B681B687E
:100B2C0003F02003002B07D17B681B681A687B68D5
:100B3C001B6822F004021A607B681B68664A9342A9
:100B4C0029D07B681B68654A934222D07B681B685E
:100B5C00634A93421AD07B681B68624A934212D054
:100B6C007B681B68604A93420AD07B681B685F4AAB
:100B7C00934202D14FF480030EE04FF080630BE000
:100B8C004FF4802308E04FF4804305E04FF480637A
:100B9C0002E0402300E00423554A53607B68DB6A83
:100BAC00002B00F094807B68DB6A786898478EE0B5
:100BBC007B681B6C02229A40FB681340002B56D0BA
:100BCC00BB6803F00203002B51D07B681B681B68C9
:100BDC0003F02003002B0BD17B681B681A687B6821
:100BEC001B6822F00A021A607B68012283F821201C
:100BFC007B681B68384A934229D07B681B68374A4C
:100C0C00934222D07B681B68354A93421AD07B688A
:100C1C001B68344A934212D07B681B68324A934259
:100C2C000AD07B681B68314A934202D14FF40013FF
:100C3C000EE04FF000730BE04FF4003308E04FF47C
:100C4C00005305E04FF4007302E0202300E0022380
:100C5C00274A53607B68002283F820207B689B6ABC
:100C6C00002B34D07B689B6A786898472FE07B68B0
:100C7C001B6C08229A40FB681340002B28D0BB68E1
:100C8C0003F00803002B23D07B681B681A687B6871
:100C9C001B6822F00E021A607B681A6C7B68DB6B97
:100CAC00012101FA02F25A607B6801229A637B6887
:100CBC00012283F821207B68002283F820207B68A6
:100CCC001B6B002B04D07B681B6B7868984700BFAC
:100CDC0000BF1037BD4680BD080002401C0002401A
:100CEC003000024044000240580002406C000240B8
:100CFC000000024080B48BB000AF786039600023F4
:100D0C007B6200233B6227E101227B6A02FA03F338
:100D1C00FB613B681B68FA691340BB61BA69FB69EC
:100D2C009A4240F016813B685B68122B34D0122B30
:100D3C000DD8022B2BD0022B04D8002B31D0012B39
:100D4C001CD048E0032B43D0112B1BD043E0894A25
:100D5C00934226D0874A934206D8874A934220D0A2
:100D6C00864A93421DD036E0854A934219D0854A73
:100D7C00934216D0844A934213D02CE03B68DB6834
:100D8C003B6228E03B68DB6804333B6223E03B6852
:100D9C00DB6808333B621EE03B68DB680C333B626C
:100DAC0019E03B689B68002B02D104233B6212E0E4
:100DBC003B689B68012B05D108233B627B68FA6971
:100DCC001A6108E008233B627B68FA695A6102E009
:100DDC0000233B6200BFBB69FF2B01D87B6801E09D
:100DEC007B6804337B61BB69FF2B02D87B6A9B0059
:100DFC0002E07B6A083B9B003B617B691A680F2110
:100E0C003B6901FA03F3DB431A40396A3B6901FA87
:100E1C0003F31A437B691A603B685B6803F08053E9
:100E2C00002B00F09680594B9B69584A43F0010304
:100E3C009361564B9B6903F00103BB60BB68544A3A
:100E4C007B6A9B08023352F82330FB607B6A03F009
:100E5C0003039B000F2202FA03F3DB43FA681340EF
:100E6C00FB607B684B4A934213D07B684A4A93429F
:100E7C000DD07B68494A934207D07B68484A93421D
:100E8C0001D1032306E0042304E0022302E0012342
:100E9C0000E000237A6A02F0030292009340FA68A1
:100EAC001343FB603A497B6A9B080233FA6841F8AA
:100EBC0023203B685B6803F48033002B06D0394B4E
:100ECC001A683849BB6913430B6006E0354B1A6846
:100EDC00BB69DB43334913400B603B685B6803F42D
:100EEC000033002B06D02F4B5A682E49BB69134395
:100EFC004B6006E02B4B5A68BB69DB432949134016
:100F0C004B603B685B6803F48013002B06D0254BC9
:100F1C009A682449BB6913438B6006E0214B9A689D
:100F2C00BB69DB431F4913408B603B685B6803F470
:100F3C000013002B06D01B4BDA681A49BB6913430C
:100F4C00CB6006E0174BDA68BB69DB4315491340ED
:100F5C00CB607B6A01337B623B681A687B6A22FA3E
:100F6C0003F3002B7FF4D0AE00BF2C37BD4680BC02
:100F7C00704700BF0000211000001110000012107B
:100F8C00000031100000321000002210001002404E
:100F9C000000014000080140000C0140001001401D
:100FAC00001401400004014080B483B000AF7860AD
:100FBC000B467B8013467B707B78002B03D07A88A2
:100FCC007B681A6103E07B881A047B681A6100BF96
:100FDC000C37BD4680BC704780B586B000AF7860DA
:100FEC007B68002B01D101236CE27B681B6803F04A
:100FFC000103002B00F08780924B5B6803F00C031D
:10100C00042B0CD08F4B5B6803F00C03082B12D114
:10101C008C4B5B6803F48033B3F5803F0BD1894B69
:10102C001B6803F40033002B6CD07B685B68002BCF
:10103C0068D1012346E27B685B68B3F5803F06D13B
:10104C00804B1B687F4A43F4803313602EE07B682F
:10105C005B68002B0CD17B4B1B687A4A23F48033E2
:10106C001360784B1B68774A23F4802313601DE0D0
:10107C007B685B68B3F5A02F0CD1724B1B68714A6F
:10108C0043F4802313606F4B1B686E4A43F4803328
:10109C0013600BE06B4B1B686A4A23F480331360BC
:1010AC00684B1B68674A23F4802313607B685B687A
:1010BC00002B13D0FFF730FB386108E0FFF72CFB57
:1010CC0002463B69D31A642B01D90323FAE15D4B29
:1010DC001B6803F40033002BF0D014E0FFF71CFB6B
:1010EC00386108E0FFF718FB02463B69D31A642B02
:1010FC0001D90323E6E1534B1B6803F40033002BA7
:10110C00F0D100E000BF7B681B6803F00203002BEA
:10111C0063D04C4B5B6803F00C03002B0BD0494B9A
:10112C005B6803F00C03082B1CD1464B5B6803F483
:10113C008033002B16D1434B1B6803F00203002BAA
:10114C0005D07B681B69012B01D00123BAE13D4B13
:10115C001B6823F0F8027B685B69DB003949134399
:10116C000B603AE07B681B69002B20D0364B0122C8
:10117C001A60FFF7D1FA386108E0FFF7CDFA0246A2
:10118C003B69D31A022B01D903239BE12D4B1B681E
:10119C0003F00203002BF0D02A4B1B6823F0F8025B
:1011AC007B685B69DB00274913430B6015E0264B1A
:1011BC0000221A60FFF7B0FA386108E0FFF7ACFACA
:1011CC0002463B69D31A022B01D903237AE11D4B4A
:1011DC001B6803F00203002BF0D17B681B6803F043
:1011EC000803002B3AD07B689B69002B19D0174B56
:1011FC0001221A60FFF790FA386108E0FFF78CFAC9
:10120C0002463B69D31A022B01D903235AE10D4B39
:10121C005B6A03F00203002BF0D0012000F0DAFA35
:10122C001CE00A4B00221A60FFF776FA38610FE0D7
:10123C00FFF772FA02463B69D31A022B08D9032333
:10124C0040E100BF001002400000424280044242D4
:10125C009E4B5B6A03F00203002BE9D17B681B6891
:10126C0003F00403002B00F0A6800023FB75974BC2
:10127C00DB6903F08053002B0DD1944BDB69934A4F
:10128C0043F08053D361914BDB6903F08053BB6017
:10129C00BB680123FB758E4B1B6803F48073002B1A
:1012AC0018D18B4B1B688A4A43F480731360FFF789
:1012BC0033FA386108E0FFF72FFA02463B69D31A7C
:1012CC00642B01D90323FDE0814B1B6803F480736D
:1012DC00002BF0D07B68DB68012B06D17B4B1B6AA3
:1012EC007A4A43F0010313622DE07B68DB68002B24
:1012FC000CD1764B1B6A754A23F001031362734BB6
:10130C001B6A724A23F0040313621CE07B68DB68DF
:10131C00052B0CD16D4B1B6A6C4A43F00403136212
:10132C006A4B1B6A694A43F0010313620BE0674B7B
:10133C001B6A664A23F001031362644B1B6A634AFF
:10134C0023F0040313627B68DB68002B15D0FFF7D6
:10135C00E3F938610AE0FFF7DFF902463B69D31A7B
:10136C0041F28832934201D90323ABE0574B1B6AFD
:10137C0003F00203002BEED014E0FFF7CDF9386137
:10138C000AE0FFF7C9F902463B69D31A41F28832E9
:10139C00934201D9032395E04C4B1B6A03F00203E3
:1013AC00002BEED1FB7D012B05D1484BDB69474A65
:1013BC0023F08053D3617B68DB69002B00F08180C4
:1013CC00424B5B6803F00C03082B61D07B68DB6934
:1013DC00022B46D13F4B00221A60FFF79DF9386172
:1013EC0008E0FFF799F902463B69D31A022B01D9A1
:1013FC00032367E0354B1B6803F00073002BF0D11F
:10140C007B681B6AB3F5803F08D1304B5B6823F4D3
:10141C0000327B689B682D4913434B602B4B5B68F8
:10142C0023F474127B68196A7B685B6A0B43274947
:10143C0013434B60274B01221A60FFF76DF938619B
:10144C0008E0FFF769F902463B69D31A022B01D970
:10145C00032337E01D4B1B6803F00073002BF0D007
:10146C002FE01C4B00221A60FFF756F9386108E098
:10147C00FFF752F902463B69D31A022B01D9032319
:10148C0020E0124B1B6803F00073002BF0D118E026
:10149C007B68DB69012B01D1012313E00B4B5B68EB
:1014AC00FB60FB6803F480327B681B6A9A4206D1AE
:1014BC00FB6803F470127B685B6A9A4201D00123CB
:1014CC0000E0002318461837BD4680BD00100240CE
:1014DC00007000406000424280B584B000AF78607C
:1014EC0039607B68002B01D10123D0E06A4B1B686B
:1014FC0003F007033A689A4210D9674B1B6823F034
:10150C00070265493B6813430B60634B1B6803F090
:10151C0007033A689A4201D00123B8E07B681B6844
:10152C0003F00203002B20D07B681B6803F004033C
:10153C00002B05D0594B5B68584A43F4E063536069
:10154C007B681B6803F00803002B05D0534B5B68CA
:10155C00524A43F460535360504B5B6823F0F002E3
:10156C007B689B684D4913434B607B681B6803F099
:10157C000103002B40D07B685B68012B07D1474BE4
:10158C001B6803F40033002B15D101237FE07B682B
:10159C005B68022B07D1414B1B6803F00073002BD7
:1015AC0009D1012373E03D4B1B6803F00203002BB0
:1015BC0001D101236BE0394B5B6823F003027B689C
:1015CC005B68364913434B60FFF7A6F8F8600AE0F6
:1015DC00FFF7A2F80246FB68D31A41F28832934215
:1015EC0001D9032353E02D4B5B6803F00C027B689D
:1015FC005B689B009A42EBD1274B1B6803F00703F7
:10160C003A689A4210D2244B1B6823F007022249F5
:10161C003B6813430B60204B1B6803F007033A68CD
:10162C009A4201D0012332E07B681B6803F004036B
:10163C00002B08D0194B5B6823F4E0627B68DB68F5
:10164C00164913434B607B681B6803F00803002B9F
:10165C0009D0124B5B6823F460527B681B69DB007A
:10166C000E4913434B6000F021F801460B4B5B68AD
:10167C001B0903F00F030A4AD35C21FA03F3094A4E
:10168C001360094B1B681846FFF704F80023184633
:10169C001037BD4680BD00BF002002400010024044
:1016AC005C1F0008000000200400002090B48AB0E9
:1016BC0000AF2A4B3C1D0FCB84E80F00284B1B8836
:1016CC003B800023FB610023BB6100237B62002372
:1016DC007B6100233B62234B5B68FB61FB6903F07E
:1016EC000C03042B02D0082B03D02DE01E4B3B62C5
:1016FC002DE0FB699B0C03F00F0307F12802134448
:10170C0013F8243C7B61FB6903F48033002B13D06A
:10171C00144B5B685B0C03F0010307F128021344C4
:10172C0013F8283CBB617B690F4A02FB03F2BB69CF
:10173C00B2FBF3F37B6204E07B690C4A02FB03F31C
:10174C007B627B6A3B6202E0074B3B6200BF3B6AF9
:10175C0018462837BD4690BC704700BF481F00088C
:10176C00581F00080010024000127A0000093D00CA
:10177C0080B400AF024B1B681846BD4680BC704756
:10178C000000002080B500AFFFF7F2FF0146054BCB
:10179C005B681B0A03F00703034AD35C21FA03F3CB
:1017AC00184680BD001002406C1F000880B500AFC9
:1017BC00FFF7DEFF0146054B5B68DB0A03F007030E
:1017CC00034AD35C21FA03F3184680BD0010024093
:1017DC006C1F000880B485B000AF78600A4B1B68A2
:1017EC000A4AA2FB03235B0A7A6802FB03F3FB6041
:1017FC0000BFFB685A1EFA60002BF9D100BF1437EA
:10180C00BD4680BC704700BF00000020D34D621065
:10181C0080B582B000AF78607B68002B01D10123CA
:10182C003FE07B6893F83930DBB2002B06D17B6844
:10183C00002283F838207868FEF746FE7B68242265
:10184C0083F839207B681B68DA687B681B6822F494
:10185C000052DA60786800F05FFA7B681B681A69DE
:10186C007B681B6822F490421A617B681B685A697A
:10187C007B681B6822F02A025A617B681B68DA6855
:10188C007B681B6842F40052DA607B680022DA63E2
:10189C007B68202283F839207B68202283F83A2049
:1018AC00002318460837BD4680BD000080B588B0BF
:1018BC0000AF78607B681B681B68FB617B681B68EA
:1018CC00DB68BB617B681B685B697B6100233B61E8
:1018DC000023FB60FB6903F00F033B613B69002BAA
:1018EC000DD1FB6903F02003002B08D0BB6903F07A
:1018FC002003002B03D0786800F08DF9CCE03B6915
:10190C00002B00F0AB807B6903F00103002B05D1A9
:10191C00BB6903F49073002B00F0A080FB6903F00B
:10192C000103002B0AD0BB6903F48073002B05D094
:10193C007B68DB6B43F001027B68DA63FB6903F0C5
:10194C000403002B0AD07B6903F00103002B05D0A4
:10195C007B68DB6B43F002027B68DA63FB6903F0A4
:10196C000203002B0AD07B6903F00103002B05D086
:10197C007B68DB6B43F004027B68DA63FB6903F082
:10198C000803002B0AD07B6903F00103002B05D060
:10199C007B68DB6B43F008027B68DA637B68DB6B8C
:1019AC00002B78D0FB6903F02003002B07D0BB6918
:1019BC0003F02003002B02D0786800F02CF97B6830
:1019CC001B685B6903F04003002B14BF0123002349
:1019DC00DBB2FB607B68DB6B03F00803002B02D1EE
:1019EC00FB68002B31D0786800F077F87B681B68B7
:1019FC005B6903F04003002B23D07B681B685A699A
:101A0C007B681B6822F040025A617B685B6B002B81
:101A1C0013D07B685B6B224A5A637B685B6B1846FE
:101A2C00FEF7ECFF0346002B16D07B685B6B5B6B01
:101A3C007A68526B104698470EE0786800F044F8CC
:101A4C000AE0786800F040F806E0786800F03CF8AE
:101A5C007B680022DA631EE000BF1CE0FB6903F028
:101A6C008003002B08D0BB6903F08003002B03D04C
:101A7C00786800F063F80FE0FB6903F04003002B7B
:101A8C000AD0BB6903F04003002B05D0786800F046
:101A9C00AAF800BF00E000BF2037BD4680BD00BFE4
:101AAC00211B000880B483B000AF786000BF0C37F6
:101ABC00BD4680BC704780B483B000AF786000BF77
:101ACC000C37BD4680BC704780B483B000AF7860E3
:101ADC0000BF0C37BD4680BC704780B483B000AFEC
:101AEC0078607B681B68DA687B681B6822F49072EC
:101AFC00DA607B681B685A697B681B6822F00102FC
:101B0C005A617B68202283F83A2000BF0C37BD460F
:101B1C0080BC704780B584B000AF78607B685B6A2E
:101B2C00FB60FB680022DA85FB680022DA84F86827
:101B3C00FFF7CAFF00BF1037BD4680BD80B485B02B
:101B4C0000AF78607B6893F83930DBB2212B44D13D
:101B5C007B689B68B3F5805F1AD17B681B6AFB605E
:101B6C00FB681B881A467B681B68C2F308025A6024
:101B7C007B681B69002B05D17B681B6A9A1C7B68F0
:101B8C001A620EE07B681B6A5A1C7B681A6208E0BA
:101B9C007B681B6A591C7A6811621A787B681B680F
:101BAC005A607B68DB8C9BB2013B9BB27A6819460E
:101BBC00D184002B0FD17B681B68DA687B681B68AB
:101BCC0022F08002DA607B681B68DA687B681B682D
:101BDC0042F04002DA60002300E00223184614377A
:101BEC00BD4680BC704780B582B000AF78607B6822
:101BFC001B68DA687B681B6822F04002DA607B683D
:101C0C00202283F839207868FFF74CFF0023184610
:101C1C000837BD4680BD80B584B000AF78607B6866
:101C2C0093F83A30DBB2222B71D17B689B68B3F509
:101C3C00805F23D17B689B6AFB607B681B69002BF0
:101C4C000ED17B681B685B689BB2C3F308039AB226
:101C5C00FB681A807B689B6A9A1C7B689A6229E0F5
:101C6C007B681B685B689BB2DBB29AB2FB681A801C
:101C7C007B689B6A5A1C7B689A621BE07B681B69B9
:101C8C00002B0AD17B681B6858687B689B6A591CBF
:101C9C007A689162C2B21A700CE07B681B685B6850
:101CAC00DAB27B689B6A581C7968886202F07F0202
:101CBC00D2B21A707B68DB8D9BB2013B9BB27A6807
:101CCC001946D185002B20D17B681B68DA687B68AC
:101CDC001B6822F02002DA607B681B68DA687B687C
:101CEC001B6822F48072DA607B681B685A697B6817
:101CFC001B6822F001025A617B68202283F83A208B
:101D0C007868FFF7D8FE002302E0002300E00223EE
:101D1C0018461037BD4680BD80B584B000AF7860E2
:101D2C007B681B681B6923F440517B68DA687B680D
:101D3C001B680A431A617B689A687B681B691A43A3
:101D4C007B685B691343FB607B681B68DB6823F46F
:101D5C00B05323F00C037A681268F9680B43D36014
:101D6C007B681B685B6923F440717B689A697B68AC
:101D7C001B680A435A617B681B68524A93424ED1D6
:101D8C00FFF714FDB860BA6813469B0013449A0021
:101D9C001A447B685B689B00B2FBF3F34A4AA2FBD4
:101DAC0003235B091901BA6813469B0013449A007C
:101DBC001A447B685B689B00B2FBF3F2424BA3FBBB
:101DCC0002035B09642000FB03F3D31A1B013233BB
:101DDC003D4AA2FB03235B0903F0F0031944BA68E4
:101DEC0013469B0013449A001A447B685B689B0063
:101DFC00B2FBF3F2344BA3FB02035B09642000FB40
:101E0C0003F3D31A1B0132332F4AA2FB03235B09C2
:101E1C0003F00F027B681B680A449A604DE0FFF7E1
:101E2C00B1FCB860BA6813469B0013449A001A447C
:101E3C007B685B689B00B2FBF3F3234AA2FB032392
:101E4C005B091901BA6813469B0013449A001A44A3
:101E5C007B685B689B00B2FBF3F21B4BA3FB02039A
:101E6C005B09642000FB03F3D31A1B013233164ABF
:101E7C00A2FB03235B0903F0F0031944BA68134671
:101E8C009B0013449A001A447B685B689B00B2FB6E
:101E9C00F3F20D4BA3FB02035B09642000FB03F37D
:101EAC00D31A1B013233084AA2FB03235B0903F04C
:101EBC000F027B681B680A449A6000BF1037BD464E
:101ECC0080BD00BF003801401F85EB5170B5002567
:101EDC000C4E0D4CA41BA410A54209D100F022F805
:101EEC0000250A4E0A4CA41BA410A54205D170BDB6
:101EFC0056F8253098470135EEE756F825309847C7
:101F0C000135F2E7741F0008741F0008741F0008E5
:101F1C00781F000803460244934200D1704703F82F
:101F2C00011BF9E7F8B500BFF8BC08BC9E4670472A
:0C1F3C00F8B500BFF8BC08BC9E4670471A
:101F480002030405060708090A0B0C0D0E0F1010F2
:101F5800010200000000000000000000010203046C
:0C1F680006070809000000000102030445
:041F7400310100082F
:041F78000D0100084F
:0C1F7C000024F400100000000100000030
:0400000508000629C0
:00000001FF
