:020000040800F2
:1000000000500020490E00089B0E00089D0E0008BD
:10001000AD0E0008AF0E0008B10E00080000000091
:10002000000000000000000000000000B30E000807
:10003000B50E000800000000B70E000819130008F4
:10004000990E0008990E0008990E0008990E0008F4
:10005000990E0008990E0008990E0008990E0008E4
:10006000990E0008990E0008990E0008990E0008D4
:10007000990E0008990E0008F9090008990E000869
:10008000990E0008990E0008990E0008990E0008B4
:10009000990E0008990E0008990E0008990E0008A4
:1000A000990E0008990E0008990E0008990E000894
:1000B000990E0008990E0008990E0008990E000884
:1000C000990E0008990E0008990E0008990E000874
:1000D000990E000845090008990E0008990E0008BD
:1000E000990E0008990E0008990E00080000000003
:1000F0000000000000000000000000000000000000
:0C01000000000000000000005FF808F1A3
:10010C0010B5054C237833B9044B13B10448AFF345
:10011C0000800123237010BD440500200000000066
:10012C003014000808B5034B1BB103490348AFF367
:10013C00008008BD000000004805002030140008B5
:10014C00034613F8012B002AFBD1181A013870470B
:10015C0040F0BF6040F40030014BD860704700BFE6
:10016C0000ED00E0C37813B310B4174BDA68D24338
:10017C00C2F30222C2F10401437803FA01F183783D
:10018C000F2424FA02F213400B4302781B01DBB25A
:10019C000E490A4482F800330378580903F01F0310
:1001AC00012202FA03F341F8203010BC70470378A7
:1001BC005A0903F01F03012101FA03F3203203490A
:1001CC0041F82230704700BF00ED00E000E100E094
:1001DC0021F0604121F07F010143014B9960704790
:1001EC0000ED00E00428044A13680CBF43F004033C
:1001FC0023F004031360704710E000E0036823F061
:10020C0001031B041B0C0360002303604360836029
:10021C00C360364B984221D0354B984224D0354B95
:10022C00984227D0344B98422AD0344B98422DD048
:10023C00334B984230D0334B984233D0324B9842A8
:10024C0036D0324B984239D0314B98423CD0314B5E
:10025C0098423FD0304B984242D070472F4A536857
:10026C0043F00F03536070472C4A536843F0F0037C
:10027C0053607047294A536843F470635360704766
:10028C00264A536843F4704353607047234A5368BB
:10029C0043F4702353607047204A536843F470034F
:1002AC00536070471D4A536843F070635360704746
:1002BC001B4A536843F00F0353607047184A536846
:1002CC0043F0F00353607047154A536843F470636E
:1002DC0053607047124A536843F47043536070473D
:1002EC000F4A536843F470235360B6E7080002408A
:1002FC001C00024030000240440002405800024002
:10030C006C00024080000240080402401C040240C1
:10031C0030040240440402405804024000000240F1
:10032C000004024010B4026822F4FF4222F0700272
:10033C008B680C6A23430C6923434C6923438C69F7
:10034C002343CC6923434C6A23438C6A23431343D2
:10035C000360CB6843600B6883604B68C36010BC60
:10036C00704721B1036843F00103036070470368D1
:10037C0023F001031B041B0C036070471AB10368C4
:10038C00194301607047036823EA0101016070475B
:10039C0010F0805F14BF024B024B5860704700BFD7
:1003AC00000402400000024010F0805F14BF044BB8
:1003BC00044B1B68034214BF01200020704700BF90
:1003CC000004024000000240034B044A5A6002F150
:1003DC0088325A60704700BF0020024023016745F5
:1003EC00024A136943F080031361704700200240F6
:1003FC00014BD860704700BF002002400B4BDB68FC
:10040C0013F0010F0DD1094BDB6813F0040F0AD167
:10041C00064BDB6803F01003002B14BF03200420F1
:10042C007047012070470220704700BF0020024037
:10043C0010B50446FFF7E2FF012809D134B1FFF7EC
:10044C00DDFF013C012803D1002CF8D1052002E08E
:10045C00002C08BF052010BD38B504464FF43020E1
:10046C00FFF7E6FF042800D038BD0A4D2B6943F096
:10047C0002032B616C612B6943F040032B614FF439
:10048C003020FFF7D5FF2B6923F00203DB04DB0CD4
:10049C002B61E9E70020024030B583B005460C46DD
:1004AC00002301934FF40050FFF7C2FF042801D042
:1004BC0003B030BD124A136943F001031361A3B2B8
:1004CC002B804FF40050FFF7B3FF042807D00C4AE1
:1004DC00136923F00103DB04DB0C1361E8E702353D
:1004EC000195019B210C19804FF40050FFF7A0FFE0
:1004FC00034A136923F00103DB04DB0C1361D7E718
:10050C0000200240F0B5CB7803F00F0613F0100F6B
:10051C001CBF8B781E430B78FBB1056800230127A9
:10052C004FF00F0E05E0482C08BF02610133082B79
:10053C0012D007FA03F20C8832EA0404F6D19C00BC
:10054C000EFA04FC25EA0C0506FA04F42543CC78D3
:10055C00282CE8D14261E9E705600B88FF2B22D9F2
:10056C00476808234FF0010C4FF00F0E02E00133E7
:10057C00102B17D00CFA03F40D8834EA0502F6D1CF
:10058C009A00203A0EFA02F527EA050706FA02F25B
:10059C001743CA78282A08BF4461CA78482A08BF7A
:1005AC000461E4E74760F0BD10B4274B5B6803F0CF
:1005BC000C03042B2BD0082B2CD013B1234B036032
:1005CC0001E0224B036020494B68C3F30313204C1A
:1005DC00E35CDAB20368D34043604A68C2F3022298
:1005EC00A25CD2B223FA02F282604A68C2F3C2223F
:1005FC00A25CD2B2D340C3604A68C2F381321549BF
:10060C008A5CD2B2B3FBF2F3036110BC70470F4BA0
:10061C000360D8E70C4A53685268C3F38343023330
:10062C0012F4803F04D10C4A02FB03F30360CAE7C7
:10063C00054A526812F4003F14BF074A034A02FBF2
:10064C0003F30360BFE700BF0010024000127A0002
:10065C00040000200000002000093D0021B1054AE3
:10066C005369184350617047024A536923EA0000EA
:10067C00506170470010024021B1054A936918433C
:10068C0090617047024A936923EA000090617047B9
:10069C000010024021B1054AD3681843D06070475E
:1006AC00024AD36823EA0000D06070470010024071
:1006BC0021B1054A1369184310617047024A136946
:1006CC0023EA0000106170470010024008B5234B6C
:1006DC0098420CD0224B984214D0224B98421CD0FA
:1006EC00214B984224D0214B98422CD008BD01219B
:1006FC004FF48040FFF7CEFF00214FF48040FFF70E
:10070C00C9FFF3E701214FF40030FFF7D1FF0021BF
:10071C004FF40030FFF7CCFFE8E701214FF48020C5
:10072C00FFF7C6FF00214FF48020FFF7C1FFDDE784
:10073C0001214FF40020FFF7BBFF00214FF40020F4
:10074C00FFF7B6FFD2E701214FF48010FFF7B0FF9F
:10075C0000214FF48010FFF7ABFFC7E700380140D2
:10076C000044004000480040004C00400050004055
:10077C0030B587B004460D46038A9BB223F4405330
:10078C00CA881343038283899BB223F4B05323F0AA
:10079C000C038A8813430A8913434A8913439BB277
:1007AC008381838A9BB223F440738A8913438382A7
:1007BC0001A8FFF7F9FE1A4B9C420CBF049B039B4C
:1007CC00A28912F4004F03EB830303EB8303296824
:1007DC0014BF49008900B3FBF1F1124BA3FB0123B9
:1007EC005B091801642202FB1313A28912F4004F57
:1007FC000BD11B0132330B4AA2FB0323C3F343136C
:10080C0003439BB2238107B030BDDA003232054B73
:10081C00A3FB0232C2F3421242EA0003F1E700BF2B
:10082C00003801401F85EB5110B4028A92B20B883C
:10083C004C8823438C882343C9880B4322F4706271
:10084C0013439BB2038210BC704729B183899BB2BE
:10085C0043F4005383817047838923F400531B04B2
:10086C001B0C8381704710B4C1F3421401F01F01BB
:10087C00012303FA01F19C4209D0022C0CBF103069
:10088C00143032B103681943016010BC70470C304E
:10089C00F7E7036823EA01010160F6E722B1838AD6
:1008AC009BB2194381827047838A9BB223EA010170
:1008BC00818270478088C0F30800704710B4C1F380
:1008CC00421201F01F040123A340012A12D0022A74
:1008DC000CBF028A828A92B21340028892B26BB128
:1008EC00090A012303FA01F10A4214BF1846002039
:1008FC0010BC7047828992B21340EEE70020F7E7F4
:10090C00090A01238B40DB439BB203807047000034
:10091C00101E0EDD10B401390C18064A138813F0A2
:10092C00400FFBD011F8013F9380A142F6D110BCCF
:10093C00704770470038014038B52A4B1B681C685B
:10094C0040F225512046FFF7B9FF38B1254B1B79F2
:10095C00B3B140F225512046FFF7D2FF40F2266199
:10096C002046FFF7ABFF38BB40F227712046FFF75C
:10097C00A5FF08212046FFF7A1FF01282DD038BD87
:10098C002046FFF797FF17498B79CA1810725A1C2B
:10099C00C2F385031448A0FB0303DB086C2000FBA7
:1009AC00132303F0FF038B71CA799A42D1D1002231
:1009BC008A7101220A71CCE700250A4B5D71AFF3F5
:1009CC00008040F226612046FFF79AFF2A4640F24B
:1009DC0026612046FFF747FFC6E72046FFF76AFF70
:1009EC00CDE700BF1C000020F712DA4B10B5134BFB
:1009FC001C686069FFF7D8FC80B1104B1B681A6843
:100A0C000F4B9A420BD0AFF3008000210B4B597166
:100A1C00A068FFF7A6FCE068FFF7BAFC10BD40F237
:100A2C0026611846FFF76CFF044B1B68012240F24D
:100A3C0026611868FFF717FFE5E700BF1C000020D0
:100A4C000048004070B58EB001210520FFF714FE60
:100A5C0001214FF48040FFF70FFE25238DF80C3059
:100A6C0000248DF80D4001258DF80E508DF80F5097
:100A7C0003A8FFF777FB0E238DF80C308DF80D4093
:100A8C0002238DF80E308DF80F5003A8FFF76AFB88
:100A9C0003238DF80E3004238DF80F304FF4806350
:100AAC00ADF80C30544D03A92846FFF72BFD182345
:100ABC008DF80F304FF40076ADF80C6003A9284682
:100ACC00FFF720FD4D4D4FF4E1332B60ADF80440A2
:100ADC00ADF80640ADF80860ADF80A40484C01A9E5
:100AEC002068FFF7A1FE2068FFF7F0FD2B68039349
:100AFC002B7903F00F02082A5DD0092A04BF4FF4AA
:100B0C008052ADF8102013F0300258D10022ADF80D
:100B1C00122013F0C00360D10023ADF81430002470
:100B2C00ADF818400C23ADF81630354D0DEB030124
:100B3C002868FFF71DFE012280212868FFF7AEFE12
:100B4C00012240F225512868FFF78DFE40F2255115
:100B5C002868FFF7D5FE01212868FFF776FE294E9D
:100B6C0056F8745B01210846FFF778FDA868FFF77B
:100B7C0045FB2B68043303930496102305936C23D5
:100B8C00069307948023089309940A9420230B93CB
:100B9C004FF400530C930D9403A9A868FFF7C2FB04
:100BAC0001220221A868FFF7E9FB2146A868FFF79C
:100BBC00D8FB0EB070BD0022ADF81020A3E7102AB0
:100BCC0006D0202A04BF4FF40052ADF81220A0E743
:100BDC004FF44052ADF812209BE7402B06D0802BEF
:100BEC0004BF4FF48063ADF8143098E74FF4C06342
:100BFC00ADF8143093E700BF00080140140000204A
:100C0C00FC0000201C0000205AB110B401EB82043F
:100C1C000B46411ACA5843F8042BA342FAD110BC14
:100C2C0070477047F8B507460D461646FFF7CCFBE4
:100C3C006EB105EB86062C467F1B3D1921682846B4
:100C4C00FFF72AFC0428F9D10434B442F5D1FFF79C
:100C5C00C7FBF8BD70B504460E46FFF7B5FB342054
:100C6C00FFF7C6FB56B100252046FFF7F5FB04281D
:100C7C00FAD1013504F58064AE42F5D1FFF7B0FB33
:100C8C00012070BD00B583B000230193012201A99E
:100C9C000348FFF7B9FF019803B05DF804FB00BFF0
:100CAC00FCC700082DE9F043ADF2044D81460F4618
:100CBC0014461C4800F0ECFA4FEA9428414638469A
:100CCC00FFF7C8FF184800F0E3FA184800F0E0FA04
:100CDC00B4F5806F14D34C4600254FF48076A7EB07
:100CEC000907324669462046FFF78EFF32466946B1
:100CFC003819FFF797FF013504F58064A845F0D843
:100D0C000B4800F0C5FA0B4800F0C2FA41464846C1
:100D1C00FFF7A0FF084800F0BBFA0DF2044DBDE848
:100D2C00F08300BF481400086814000888140008F9
:100D3C009C140008B0140008D014000880F3088834
:100D4C007047704710B501684468084A0A40B2F110
:100D5C00005F03D0064800F079FAFEE772B600682F
:100D6C00FFF7ECFF62B6A04710BD00BF0000FE2FDE
:100D7C00F014000838B5204800F08AFA1F4C2046C1
:100D8C0000F086FA1E4D284600F082FA1D4800F04D
:100D9C007FFA284600F07CFA204600F079FA1A48CF
:100DAC0000F076FAFFF76EFFB0F1AA3F13D0B0F166
:100DBC00FF3F09D0154B98421AD0FFF763FF01464D
:100DCC00134800F043FA05E0124800F061FA1248AB
:100DDC00FFF7B8FF38BD114800F05AFA4FF4A042A3
:100DEC000D490F48FFF75EFF0E4800F051FAEEE791
:100DFC000D4800F04DFAEAE7D41500080C15000870
:100E0C00341500085C15000884150008AAAA55556D
:100E1C0014160008A815000800280008C0150008C2
:100E2C0000780008D8150008F015000808B500F087
:100E3C0055FAFFF707FEFFF79DFFFCE7DFF834D00C
:100E4C00002103E00C4B5B58435004310B480C4B16
:100E5C0042189A42F6D30B4A02E0002342F8043BB4
:100E6C00094B9A42F9D300F021F800F051FAFFF740
:100E7C00DDFF7047005000205816000800000020CD
:100E8C0044050020440500206C050020FEE7704757
:100E9C0008B5024800F0FCF9FEE700BF2C1600086C
:100EAC00FEE7FEE7FEE770477047704782B03C4BA9
:100EBC001A6842F001021A6059683A4A0A405A60AC
:100ECC001A6822F0847222F480321A601A6822F4B2
:100EDC0080221A605A6822F4FE025A604FF41F02F4
:100EEC009A600022009201921A6842F480321A60D1
:100EFC001A46136803F400330193009B01330093EB
:100F0C00019B1BB9009BB3F5A06FF2D1244B1B685E
:100F1C0013F4003F14BF012300230193019B012B09
:100F2C0005D0214B4FF000629A6002B070471F4B06
:100F3C001A6842F010021A601A6822F003021A6052
:100F4C001A6842F002021A60A3F580535A685A607C
:100F5C005A685A605A6842F480625A605A6822F49D
:100F6C007C125A605A6842F4E8125A601A6842F0CD
:100F7C0080721A601A46136813F0007FFBD0084B7E
:100F8C005A6822F003025A605A6842F002025A6010
:100F9C001A46536803F00C03082BFAD1C1E700BFC3
:100FAC00001002400000FFF800ED00E000200240BD
:100FBC0070B491421BD31546012302FB03F3B1FB22
:100FCC00F3F4AC42F9D283B1B1FBF3F403FB14118B
:100FDC0093FBF2F3092C056805F101060660CCBF02
:100FEC00373430342C70002BEED170BC7047012399
:100FFC00EAE700002DE9F04182B0019005460B783C
:10100C00002B00F09F800C462527102647E052F855
:10101C00041B019B581C0190197002343CE0904653
:10102C0058F8041B002905DB0A2201A8FFF7C0FFB2
:10103C004246F2E74942019B5A1C01922D221A703A
:10104C00F2E752F8043B19780029E6D00199481CC4
:10105C00019013F8010B087019780029F6D1DCE720
:10106C0090460A2258F8041B01A8FFF7A1FF42463C
:10107C00D3E79046324658F8041B01A8FFF798FFB7
:10108C004246CAE7019B591C01911F70C5E7013408
:10109C000199481C01900B702378002B52D0252B02
:1010AC00F5D16378252BEDD0A3F15801C9B22029D5
:1010BC00B3D8583B202BB0D801A151F823F000BF76
:1010CC007F100008271000082710000827100008C0
:1010DC002710000827100008271000082710000808
:1010EC002710000827100008271000081B10000804
:1010FC002B100008271000082710000827100008E4
:10110C00271000082B1000082710000827100008D3
:10111C0027100008271000082710000827100008C7
:10112C002710000827100008271000084F1000088F
:10113C00271000086D100008271000082710000861
:10114C007F100008019B00221A700198401B02B00E
:10115C00BDE8F081037853B302460020252B2AD03A
:10116C000130134601325B78002BF7D17047043104
:10117C00013016E00B30043113E051F8045B2A46C1
:10118C0012F8014B6CB1451B501912F8014B002C95
:10119C00FAD106E00830043103E0013001E00130FF
:1011AC0013465A1C5B7823B1252BF8D104E00020A0
:1011BC00704730BC704730B4531C5278583A202AD0
:1011CC00EBD801A454F822F0A1110008A7110008D3
:1011DC00A7110008A7110008A7110008A711000803
:1011EC00A7110008A7110008A7110008A7110008F3
:1011FC00A71100087B11000881110008A711000835
:10120C00A7110008A7110008A711000881110008F8
:10121C00A7110008A7110008A7110008A7110008C2
:10122C00A7110008A7110008A7110008A7110008B2
:10123C00A711000887110008A711000881110008E8
:10124C00A7110008A7110008A11100080FB4B0B530
:10125C0082B000AF07F1180454F8045B7C6021469F
:10126C002846FFF777FF073020F00700ADEB000DA5
:10127C00224629466846FFF7BDFE02466946012014
:10128C00FFF746FB0837BD46BDE8B04004B07047D9
:10129C0038B50546FEF754FF0446024629460120A0
:1012AC00FFF736FB0546012205491046FFF730FBD8
:1012BC0001342844201A18BF4FF0FF3038BD00BF4E
:1012CC004416000808B500214FF00060FEF780FFBF
:1012DC004FF4E060FEF73CFF08BD000008B5FFF7D7
:1012EC00F1FF084B42F227325A60074AF02182F88C
:1012FC00231000229A6007221A606FF00400FEF798
:10130C0071FF08BD10E000E000ED00E07047000048
:10131C0070B500260C4D0D4C641BA410A64209D1CF
:10132C0000F080F800260A4D0A4C641BA410A6425B
:10133C0005D170BD55F8043B98470136EEE755F8DA
:10134C00043B98470136F2E74C1600084C1600088F
:10135C004C16000854160008024B13B1024800F05A
:10136C0005B87047000000008513000800230146F3
:10137C001A46184600F016B838B5074D074C641BD2
:10138C00A4101CB9BDE8384000F052B8013C55F827
:10139C0024309847F5E700BF54160008581600088B
:1013AC00704770472DE9F8431C4D0646286898464F
:1013BC000F469146FFF7F4FF194B28461B68D3F8EC
:1013CC0048411CB903F5A674C3F848416568006828
:1013DC001F2D05DDFFF7E5FF4FF0FF30BDE8F8836B
:1013EC009EB1012204EB8501C1F88890D4F88831B4
:1013FC00AA401343022EC4F88831C1F8088102BFF9
:10140C00D4F88C311A43C4F88C216B1C0235636000
:10141C0044F82570FFF7C5FF0020DFE740050020EA
:10142C0048160008F8B500BFF8BC08BC9E467047CB
:0C143C00F8B500BFF8BC08BC9E46704725
:101448003E2053746172742065726173652064650F
:101458007320666C6173682E2E2E2E2E2E0D0000C2
:101468003E2045726173652064657320666C617304
:101478006820646F776E2E2E2E2E2E2E0D00000003
:101488003E20537461727420636F70792E2E2E2E55
:101498002E2E0D003E20436F707920646F776E2EDC
:1014A8002E2E2E2E2E0D00003E20537461727420B5
:1014B80065726173652073726320666C6173682E50
:1014C8002E2E2E2E2E0D00003E20457261736520B3
:1014D80073726320666C61736820646F776E2E2E5A
:1014E8002E2E2E2E0D0000004E6F204170706C695C
:1014F800636174696F6E2053746172742E2E2E2E80
:101508002E0000002A2A2A2A2A2A2A2A2A2A2A2AAD
:101518002A2A2A2A2A2A2A2A2A2A2A2A2A2A2A2A23
:101528002A2A2A2A2A2A2A0D000000002A202020F6
:1015380020202020202020202020202020202020A3
:1015480020202020202020202020202020202A0D9C
:10155800000000002A2020202020202020204F6E7C
:1015680065434D277320426F6F744C6F61646572D9
:101578002020202020202A0D000000003E20436863
:101588006F6F736520612073746172747570206D5C
:101598006574686F642E2E2E2E2E2E0D000000000E
:1015A8003E204E6F726D616C2073746172742E2EC2
:1015B8002E2E2E2E0D0000003E20537461727420D2
:1015C8007570646174652E2E2E2E2E2E0D0000006F
:1015D8003E2055706461746520646F776E2E2E2EE0
:1015E8002E2E2E0D000000003E20526573746F727F
:1015F8006520746F20666163746F72792070726FF2
:101608006772616D2E2E2E2E2E2E0D003E204572F5
:10161800726F723A256C782121212E2E2E2E2E2EB5
:101628000D0A0000426F6F744C6F61646572204848
:101638006172644661756C74210D00000A00000037
:041648001801002065
:08164C006513000831010008DC
:041654000D0100087C
:10165800020406080000000001020304010203045A
:10166800060708098025000008B00100FC000020DA
:101678000000000200000000000000000000000060
:101688000000000000000000000000000000000052
:101698000000000000000000000000000000000042
:1016A8000000000000000000000000000000000032
:1016B8000000000000000000000000000000000022
:1016C8000000000000000000000000000000000012
:1016D8000000000000000000000000000000000002
:1016E80000000000000000000000000000000000F2
:1016F80000000000000000000000000000000000E2
:1017080000000000000000000000000000000000D1
:1017180000000000000000000000000000000000C1
:1017280000000000000000000000000000000000B1
:1017380000000000000000000000000000000000A1
:101748000000000000000000000000000038014018
:101758002500000044000240001000000E000000B8
:101768000020000000000000000000000404002029
:101778006C040020D40400200000000000000000D9
:101788000000000000000000000000000000000051
:101798000000000000000000000000000000000041
:1017A8000000000000000000000000000000000031
:1017B8000000000000000000000000000000000021
:1017C8000000000000000000000000000000000011
:1017D8000000000000000000000000000000000001
:1017E80000000000000000000000000000000000F1
:1017F80000000000000000000000000000000000E1
:1018080000000000000000000000000000000000D0
:1018180001000000000000000E33CDAB34126DE66D
:10182800ECDE05000B0000000000000000000000D6
:1018380000000000000000000000000000000000A0
:101848000000000000000000000000000000000090
:101858000000000000000000000000000000000080
:101868000000000000000000000000000000000070
:041B980060050020C4
:0400000508000E4998
:00000001FF
