:020000040800F2
:100000000050002031260008832600088F260008B3
:10001000952600089B260008A12600080000000085
:10002000000000000000000000000000A7260008FB
:10003000B326000800000000BF260008CB260008F9
:1000400081260008812600088126000881260008F4
:1000500081260008812600088126000881260008E4
:1000600081260008812600088126000881260008D4
:10007000350C0008812600080D0C000881260008B8
:100080008126000881260008812600081D0400083A
:10009000290400088126000881260008812600081E
:1000A0008126000881260008812600088126000894
:1000B0008126000881260008812600088126000884
:1000C0008126000881260008812600088126000874
:1000D00081260008F90B000881260008210C000881
:1000E0008126000881260008812600080000000003
:1000F0000000000000000000000000000000000000
:0C01000000000000000000005FF808F1A3
:10010C0010B5054C237833B9044B13B10448AFF345
:10011C0000800123237010BD740600200000000035
:10012C009029000808B5034B1BB103490348AFF3F2
:10013C00008008BD0000000078060020902900080F
:10014C0080B483B000AF03463960FB7197F9073078
:10015C00002B0BDA3B68DAB20C49FB7903F00F0386
:10016C00043B1201D2B20B441A7609E03B68DAB2B6
:10017C00074997F907301201D2B20B4483F80023D8
:10018C0000BF0C37BD4680BC704700BF00ED00E0DF
:10019C0000E100E080B582B000AF78607B68B3F11D
:1001AC00807F01D3012311E07B6823F07F43094A50
:1001BC00013B53600F214FF0FF30FFF7C1FF054BA0
:1001CC0000229A60034B07221A6000231846083756
:1001DC00BD4680BD10E000E080B485B000AF786013
:1001EC007B68BB600023FB8107E0FB89BA68134482
:1001FC0000221A70FB890133FB81FB89152BF4D982
:10020C007B6801221A7500BF1437BD4680BC70474D
:10021C0080B586B000AF78607B68FB60224B3B6199
:10022C0001F08AF9352001F0F9F90023FB820EE088
:10023C0000BFFB8A03F500333F339B02184601F0E5
:10024C008DF90346042BF4D1FB8A0133FB82FB8A24
:10025C00002BEDD00023FB821FE000BFFB8AFA6865
:10026C0013441B789AB2FB8A0133F9680B441B7850
:10027C009BB21B029BB213449BB21946386901F026
:10028C009FF90346042BE9D1FB8A0133FB823B69BE
:10029C0002333B61FB8A0133FB82FB8A152BDCD9D1
:1002AC0000BF1837BD4680BD00FC000880B586B085
:1002BC0000AF78607B68FB60194B3B610023FB82CD
:1002CC001CE03B691B887B81FB8AFA6813447A89A2
:1002DC00D2B21A70FB8A0133FB82FB8A152B07D82A
:1002EC007B891B0A99B2FB8AFA681344CAB21A704A
:1002FC003B6902333B61FB8A0133FB82FB8A152B82
:10030C00DFD97B681B7D012B05D07868FFF764FF74
:10031C007868FFF77DFF00BF1837BD4680BD00BF72
:10032C0000FC000880B400AF074B1B68074A136041
:10033C00074B1B68054A5360064B1B68034A9360C6
:10034C0000BFBD4680BC7047E8F7FF1F9806002031
:10035C00ECF7FF1FF0F7FF1F80B582B000AF01F084
:10036C00BFFA4FF4803001F0E9FA01F015FB0346B7
:10037C00FB71FB79012B22D14FF4E0114FF480304B
:10038C0001F032FB012001F04DFB00BF002001F019
:10039C001DFD0346002BF9D1022001F053FB002078
:1003AC0001F07AFB4FF4806001F092FB002001F029
:1003BC00ABFB00BF01F062FB0346082BFAD100BF78
:1003CC000837BD4680BD80B500AF00214FF00060FE
:1003DC0000F0DEFD4FF4E06000F066FD00BF80BD74
:1003EC0080B500AFFFF7B8FFFFF7EDFF6FF004002B
:1003FC0000F0E4FD42F22830FFF7CCFEFFF792FF4D
:10040C000248FFF753FF00BF80BD00BFA4060020C9
:10041C0080B400AF00BFBD4680BC704780B586B0CD
:10042C0000AF04233B733B1D1A460021074800F024
:10043C00E1FD3B1D1846AFF300800221034800F09C
:10044C0097FE00BF1837BD4680BD00BF006400405A
:10045C0080B500AF0121082001F040FC01211020E3
:10046C0001F03CFC00BF80BD80B582B000AF03231F
:10047C00BB711023FB714FF40053BB803B1D19461D
:10048C000A4801F025F93B1D1946094801F020F9ED
:10049C004FF40051054801F0F0F94FF400510448B5
:1004AC0001F0F9F900BF0837BD4680BD000C0140D2
:1004BC000010014080B500AFFFF7CAFFFFF7D4FF73
:1004CC0000BF80BD80B500AF0121042001F006FC07
:1004DC000121082001F002FC0121102001F0FEFB9B
:1004EC0000BF80BD80B582B000AF0323BB71102369
:1004FC00FB714FF40053BB803B1D1946114801F0B2
:10050C00E7F84FF40053BB803B1D19460E4801F031
:10051C00DFF80F23BB803B1D19460C4801F0D8F8BF
:10052C004FF40051074801F0B6F94FF4005106485A
:10053C0001F0B1F90F21054801F0ADF900BF083702
:10054C00BD4680BD00100140000C01400008014078
:10055C0080B485B000AF0346FB71FB79012B02D050
:10056C00022B03D005E0064BFB6002E0054BFB6061
:10057C0000BFFB6818461437BD4680BC704700BFEF
:10058C00000000201800002080B582B000AF786019
:10059C007B68DB89002B41D07B68DB89013B9AB2FD
:1005AC007B68DA817B68DB89002B1ED17B685B78EA
:1005BC00013B032B31D801A252F823F0D9050008D6
:1005CC00E305000827060008ED0500087B681B6999
:1005DC007868984722E07B685B69786898471DE0EB
:1005EC007B689A897B68DA8118E07B68DB891A461C
:1005FC007B689B89013B9A4204D17B681B697868B4
:10060C0098470BE07B68DA897B685B899A4205D155
:10061C007B685B697868984700E000BF00BF0837CB
:10062C00BD4680BD80B584B000AF03460A46FB7161
:10063C001346BB71FB791846FFF78AFFF860FB681D
:10064C00BA795A7000BF1037BD4680BD80B584B0F2
:10065C0000AF0346FB710B46BB8013467B80FB79D6
:10066C001846FFF775FFF860FB68BA889A81FB683B
:10067C007A885A8100BF1037BD4680BD80B582B0E4
:10068C0000AF78607B685A687B681B8919461046F6
:10069C0001F0F3F800BF0837BD4680BD80B582B0CD
:1006AC0000AF78607B685A687B681B8919461046D6
:1006BC0001F0F1F800BF0837BD4680BD80B582B0AF
:1006CC0002AFFFF7FFFEFFF70DFF094B009301236D
:1006DC0000220A21074801F02DFE074B009301234D
:1006EC0000220A21034801F025FE00BFBD4680BD53
:1006FC0000000020950500081800002080B500AF10
:10070C0004210120FFF78EFF4FF4FA724FF47A7137
:10071C000120FFF79BFF04210220FFF783FF4FF41A
:10072C007A724FF4FA610220FFF790FF00BF80BD90
:10073C0080B500AF0121052001F0D0FA01214FF462
:10074C00804001F0CBFA0121052001F0C7FA01210C
:10075C004FF4003001F0E0FA0121092001F0BEFA5B
:10076C0001214FF4802001F0D7FA00BF80BD80B585
:10077C0082B000AF25233B7100237B710123BB7139
:10078C000123FB713B1D184600F0A0FB0E233B71AF
:10079C0000237B710223BB710123FB713B1D1846A7
:1007AC0000F094FB26233B7100237B710423BB7167
:1007BC000123FB713B1D184600F088FB11233B7194
:1007CC0000237B710523BB710123FB713B1D184674
:1007DC0000F07CFB27233B7100237B710623BB714C
:1007EC000123FB713B1D184600F070FB0C233B7181
:1007FC0000237B710723BB710123FB713B1D184642
:10080C0000F064FB00BF0837BD4680BD80B582B0E8
:10081C0000AF0323BB710423FB714FF48063BB80D7
:10082C003B1D19461B4800F053FF1823FB714FF476
:10083C000073BB803B1D1946164800F049FF04238A
:10084C00FB710823BB803B1D1946124800F040FF8A
:10085C001823FB710423BB803B1D19460D4800F087
:10086C0037FF0423FB714FF40063BB803B1D19461B
:10087C00094800F02DFF1823FB714FF48063BB80F7
:10088C003B1D1946044800F023FF00BF0837BD4646
:10089C0080BD00BF00080140000C014080B588B04D
:1008AC0000AF7860396000233B8100237B814FF4DB
:1008BC000073BB810023FB817B681B6807F1080276
:1008CC001146184601F0D2FB7B681B68184601F0F4
:1008DC00B7FA3B681B683B613B681B7903F00F035D
:1008EC00DBB2082B02D10023BB8209E03B681B79E9
:1008FC0003F00F03DBB2092B02D14FF48053BB8200
:10090C003B681B7903F03003DBB2002B02D10023D0
:10091C00FB8214E03B681B7903F03003DBB2102B35
:10092C0003D14FF44053FB8209E03B681B7903F081
:10093C003003DBB2202B02D14FF40053FB823B6817
:10094C001B7923F03F03DBB2002B02D100233B8346
:10095C0014E03B681B7923F03F03DBB2402B03D13F
:10096C004FF4C0633B8309E03B681B7923F03F03E2
:10097C00DBB2802B02D14FF480633B830023BB831B
:10098C000C237B837B681B6807F110021146184609
:10099C0001F0B2FA7B681B6801228021184601F035
:1009AC00F6FB7B681B68012240F22551184601F0CA
:1009BC00A7FB7B681B6840F22551184601F073FCBD
:1009CC007B681B680121184601F07BFB00BF2037B8
:1009DC00BD4680BD80B58EB000AF78607B681B686B
:1009EC007B630121012001F05BF97B6B9B6818464E
:1009FC0000F02CFC7B6B1B680433BB607B6874338E
:100A0C00FB6010233B616C237B610023BB61802363
:100A1C00FB6100233B6200237B622023BB624FF40B
:100A2C000053FB6200233B637B6B9B6807F108025E
:100A3C001146184600F0C6FC7B6B9B680122022114
:100A4C00184600F019FD7B6B9B680021184600F0DE
:100A5C00F7FC00BF3837BD4680BD000080B584B0C0
:100A6C0000AF78607B681B681B68FB6040F2255107
:100A7C00F86801F0BEFB0346002B39D00421F8685E
:100A8C0000F030F9034683F00103DBB2002B2AD0CF
:100A9C00F86801F09FFB03461A467B689B79194660
:100AAC00D2B27B680B441A727B689B790133DAB241
:100ABC007B689A717B689B799A082449A1FB021286
:100ACC00D2086C2101FB02F29B1ADAB27B689A7194
:100ADC007B689A797B68DB799A4204D101220421E4
:100AEC00F86800F0CBF840F22551F86801F0DBFB18
:100AFC0040F22661F86801F07CFB0346002B11D014
:100B0C0000220121F86800F0B9F800F0B9F940F2C0
:100B1C002661F86801F0C7FB002240F22661F868F4
:100B2C0001F0EEFA40F22771F86801F062FB08213F
:100B3C00F86801F05EFB0346012B02D1F86801F066
:100B4C0049FB00BF1037BD4680BD00BFF712DA4B22
:100B5C0080B584B000AF78607B681B680833FB609D
:100B6C00FB68DB68184600F0BFFC0346002B35D051
:100B7C007B681B681B681B4A934210D17B681B68FF
:100B8C001B6840F22661184601F08DFB7B681B68E0
:100B9C001B68012240F22661184601F0B1FA4FF4AD
:100BAC000051114800F050FE0346C3F10103DBB2C3
:100BBC001A464FF400510C4800F07BFEAFF3008056
:100BCC007B6800225A71FB681B680021184600F0F4
:100BDC0037FCFB685B68184600F06CFC00BF1037F4
:100BEC00BD4680BD00480040000C014080B500AF00
:100BFC000248FFF733FF00BF80BD00BF500000204C
:100C0C0080B500AF0248FFF7A3FF00BF80BD00BF57
:100C1C005000002080B500AF0248FFF71FFF00BF57
:100C2C0080BD00BF5001002080B500AF0248FFF727
:100C3C008FFF00BF80BD00BF5001002080B485B085
:100C4C0000AF78607B68094A934202D1084BFB6085
:100C5C0005E07B68074A934201D1074BFB60FB68B8
:100C6C0018461437BD4680BC704700BF00380140A1
:100C7C0050000020004800405001002080B584B096
:100C8C0000AF78600B46FB701346BB707868FFF7BB
:100C9C00D5FFF860FB78013B042B1DD801A252F85C
:100CAC0023F000BFC50C0008CD0C0008D50C0008C3
:100CBC00DD0C0008E50C0008FB68BA785A710CE0F2
:100CCC00FB68BA781A7108E0FB68BA785A7104E0CC
:100CDC00FB68BA781A7100E000BF00BF1037BD4640
:100CEC0080BD00BF80B584B000AF78600B46FB7050
:100CFC000023FB737868FFF7A1FFB860FB78013B1A
:100D0C00042B5ED801A252F823F000BF2D0D000871
:100D1C004D0D00086D0D00088D0D0008AD0D00087F
:100D2C00BB685B79002B14BF01230023DBB283F07B
:100D3C000103DBB2FB73FB7B03F00103FB7343E0AA
:100D4C00BB681B79002B14BF01230023DBB283F09B
:100D5C000103DBB2FB73FB7B03F00103FB7333E09A
:100D6C00BB685B79002B14BF01230023DBB283F03B
:100D7C000103DBB2FB73FB7B03F00103FB7323E08A
:100D8C00BB681B79002B14BF01230023DBB283F05B
:100D9C000103DBB2FB73FB7B03F00103FB7313E07A
:100DAC00BB685B7983F00103DBB2002B0BD0BB6813
:100DBC001B7983F00103DBB2002B04D00123FB73FE
:100DCC0001E000BF00E000BFFB7B18461037BD46BA
:100DDC0080BD00BF80B582B000AFFFF7A9FCFFF764
:100DEC00C6FCFFF713FD0F4B7B600F4B4FF41652F5
:100DFC001A600D497868FFF751FD0C48FFF7EAFDC2
:100E0C000B4B7B600B4B4FF496521A600949786878
:100E1C00FFF744FD0848FFF7DDFD00BF0837BD466E
:100E2C0080BD00BF380000203000002050000020A2
:100E3C0038010020300100205001002080B500AFA7
:100E4C000121082000F04AFF00BF80BD80B582B0B0
:100E5C0000AF0323BB711023FB714FF48053BB8095
:100E6C003B1D1946054800F033FC4FF480510348F4
:100E7C0000F011FD00BF0837BD4680BD000C0140DD
:100E8C0080B500AF4FF48051024800F004FD00BF64
:100E9C0080BD00BF000C014080B500AFFFF7CEFF56
:100EAC00FFF7D4FF00BF80BD80B483B000AF786083
:100EBC00054A7B6843F0BF6343F40033D36000BF43
:100ECC000C37BD4680BC704700ED00E080B487B0A5
:100EDC0000AF786000237B6100233B610F23FB6034
:100EEC007B68DB78002B3AD0274BDB68DB431B0A93
:100EFC0003F007037B617B69C3F104033B61FA6870
:100F0C007B6922FA03F3FB607B685B781A463B69CA
:100F1C0002FA03F37B617B689B781A46FB681340EB
:100F2C007A6913437B617B691B017B61174A7B6880
:100F3C001B787969C9B213440A4683F800237B688D
:100F4C001B7803F01F0311497A6812785209D2B248
:100F5C001046012202FA03F341F820300FE07B68BF
:100F6C001B7803F01F0309497A6812785209D2B230
:100F7C00104601229A4000F1200341F8232000BFC3
:100F8C001C37BD4680BC704700ED00E000E100E07E
:100F9C0080B483B000AF786039603B6823F0604365
:100FAC0023F07F0304497A6813438B6000BF0C372E
:100FBC00BD4680BC704700BF00ED00E080B483B03C
:100FCC0000AF78607B68042B06D1094B1B68084A7C
:100FDC0043F00403136005E0054B1B68044A23F03F
:100FEC000403136000BF0C37BD4680BC704700BFC4
:100FFC0010E000E080B485B000AFF8600B467A607A
:10100C00FB72FB7AFA681B331B0113441B68DBB2BF
:10101C0003F00403DAB27B681A727B681B7A002B2C
:10102C000BD1FB7AFA681B331B0113441B685B0D55
:10103C00C3F30A027B681A600AE0FB7AFA681B3376
:10104C001B0113441B68DB0823F060427B685A6069
:10105C00FB7AFA681B331B0113441B68DBB203F0E9
:10106C000203DAB27B685A72FB7AFA681B331B01F3
:10107C00134404331B68DBB203F00F03DAB27B6852
:10108C009A72FB7AFA681B331B01134404331B68F6
:10109C001B0ADAB27B68DA74FB7AFA681B01134418
:1010AC0003F5DC731B68DAB27B68DA72FB7AFA68D8
:1010BC001B01134403F5DC731B681B0ADAB27B6853
:1010CC001A73FB7AFA681B01134403F5DC731B6873
:1010DC001B0CDAB27B685A73FB7AFA681B01134457
:1010EC0003F5DC731B681B0EDAB27B689A73FB7A10
:1010FC00FA681B01134403F5DE731B68DAB27B68D4
:10110C00DA73FB7AFA681B01134403F5DE731B6870
:10111C001B0ADAB27B681A74FB7AFA681B01134457
:10112C0003F5DE731B681B0CDAB27B685A74FB7A0E
:10113C00FA681B01134403F5DE731B681B0EDAB24D
:10114C007B689A74FB7A002B06D1FB68DB6843F052
:10115C002002FB68DA6005E0FB681B6943F02002A3
:10116C00FB681A6100BF1437BD4680BC7047000095
:10117C0080B483B000AF786039603B68B3F5807F92
:10118C0043D0B3F5807F0DD8082B2AD0082B04D878
:10119C00012B1ED0042B20D051E0202B25D0402B2E
:1011AC0027D04CE0B3F5006F3BD0B3F5006F06D8F9
:1011BC00B3F5007F2DD0B3F5806F2ED03FE0B3F5A3
:1011CC00803F1AD0B3F5003F1BD0B3F5004F2FD0A2
:1011DC0035E07B681C4A9A6031E07B680822DA6053
:1011EC002DE07B681022DA6029E07B6808221A6106
:1011FC0025E07B6810221A6121E07B6808225A6086
:10120C001DE07B6810225A6019E07B6804225A604A
:10121C0015E07B6804225A6011E07B6804225A6056
:10122C000DE07B6800229A617B6804225A6006E01C
:10123C007B6800229A617B6804225A6000BF00BF61
:10124C000C37BD4680BC70470101010080B483B0EF
:10125C0000AF78607B681A684FF6FE7313407A68AB
:10126C0013607B6800221A607B6800225A607B68DE
:10127C0000229A607B680022DA607B68434A9342C2
:10128C0006D1434B5B68424A43F00F03536077E04F
:10129C007B68404A934206D13D4B5B683C4A43F025
:1012AC00F00353606CE07B683B4A934206D1384BA9
:1012BC005B68374A43F47063536061E07B68374A7C
:1012CC00934206D1324B5B68314A43F4704353600E
:1012DC0056E07B68324A934206D12D4B5B682C4A10
:1012EC0043F4702353604BE07B682E4A934206D143
:1012FC00274B5B68264A43F47003536040E07B68DD
:10130C00294A934206D1224B5B68214A43F0706311
:10131C00536035E07B68254A934206D1244B5B68C9
:10132C00234A43F00F0353602AE07B68214A93421F
:10133C0006D11F4B5B681E4A43F0F00353601FE05D
:10134C007B681D4A934206D1194B5B68184A43F4DB
:10135C007063536014E07B68184A934206D1144BB7
:10136C005B68134A43F47043536009E07B68144A8A
:10137C00934205D10E4B5B680D4A43F470235360C6
:10138C0000BF0C37BD4680BC704700BF0800024050
:10139C00000002401C0002403000024044000240A9
:1013AC00580002406C0002408000024008040240D9
:1013BC00000402401C040240300402404404024079
:1013CC005804024080B485B000AF786039600023C7
:1013DC00FB607B681B68FB60FB6823F4FF4323F016
:1013EC007003FB603B689A683B681B6A1A433B6856
:1013FC001B691A433B685B691A433B689B691A4338
:10140C003B68DB691A433B685B6A1A433B689B6A1F
:10141C001343FA681343FB607B68FA681A603B68F5
:10142C00DA687B685A603B681A687B689A603B682C
:10143C005A687B68DA6000BF1437BD4680BC7047C1
:10144C0080B483B000AF78600B46FB70FB78002B48
:10145C0006D07B681B6843F001027B681A6006E0CB
:10146C007B681A684FF6FE7313407A68136000BFEE
:10147C000C37BD4680BC704780B485B000AFF860B7
:10148C00B9601346FB71FB79002B06D0FB681A6818
:10149C00BB681A43FB681A6006E0FB681A68BB68F5
:1014AC00DB431A40FB681A6000BF1437BD4680BC92
:1014BC007047000080B483B000AF78607B6803F0A5
:1014CC008053002B03D0064A7B68536002E0054A28
:1014DC007B68536000BF0C37BD4680BC704700BFB3
:1014EC00000402400000024080B485B000AF786078
:1014FC000023FB730023BB607B6803F08053002B3D
:10150C0003D00B4B1B68BB6002E00A4B1B68BB6033
:10151C00BA687B681340002B02D00123FB7301E0F7
:10152C000023FB73FB7B18461437BD4680BC704709
:10153C00000402400000024080B400AF044B054A96
:10154C005A60034B044A5A6000BFBD4680BC7047CA
:10155C000020024023016745AB89EFCD80B584B0F4
:10156C0000AF78600423FB734FF4302000F08EF84A
:10157C000346FB73FB7B042B1BD1104B1B690F4ADF
:10158C0043F0020313610D4A7B6853610B4B1B69DB
:10159C000A4A43F0400313614FF4302000F076F810
:1015AC000346FB73054B1A69044941F6FD7313405E
:1015BC000B61FB7B18461037BD4680BD00200240F6
:1015CC0080B584B000AF78600B467B800423FB733E
:1015DC004FF4005000F05AF80346FB73FB7B042BCE
:1015EC0015D10D4B1B690C4A43F0010313617B6849
:1015FC007A881A804FF4005000F048F80346FB73C9
:10160C00054B1A69044941F6FE7313400B61FB7BD1
:10161C0018461037BD4680BD0020024080B483B010
:10162C0000AF7860034A7B68D36000BF0C37BD46BF
:10163C0080BC70470020024080B483B000AF04230C
:10164C00FB71114BDB6803F00103012B02D1012369
:10165C00FB7113E00C4BDB6803F00403002B02D08E
:10166C000223FB710AE0084BDB6803F01003002B2C
:10167C0002D00323FB7101E00423FB71FB791846B4
:10168C000C37BD4680BC70470020024080B584B04A
:10169C0000AF78600423FB73FFF7CEFF0346FB73A8
:1016AC0006E0FFF7C9FF0346FB737B68013B7B60D9
:1016BC00FB7B012B02D17B68002BF2D17B68002BCA
:1016CC0001D10523FB73FB7B18461037BD4680BD4B
:1016DC0080B489B000AF786039600023FB610023CF
:1016EC003B610023BB610023FB6000237B61002373
:1016FC00BB603B68DB7803F00F03FB613B68DB7876
:10170C0003F01003002B05D03B689B781A46FB694D
:10171C001343FB613B681B88DBB2002B44D07B6816
:10172C001B687B610023BB6138E00122BB6902FAB4
:10173C0003F3FB603B681B881A46FB6813403B6154
:10174C003A69FB689A4226D1BB699B00FB600F2269
:10175C00FB6802FA03F3BB60BB68DB437A69134096
:10176C007B61FA69FB6802FA03F37A6913437B61C4
:10177C003B68DB78282B05D10122BB699A407B683A
:10178C005A6108E03B68DB78482B04D10122BB6925
:10179C009A407B681A61BB690133BB61BB69072B3B
:1017AC00C3D97B687A691A603B681B88FF2B46D9C2
:1017BC007B685B687B610023BB613AE0BB690833E3
:1017CC00012202FA03F3FB603B681B881A46FB6894
:1017DC0013403B613A69FB689A4227D1BB699B0075
:1017EC00FB600F22FB6802FA03F3BB60BB68DB43B0
:1017FC007A6913407B61FA69FB6802FA03F37A6930
:10180C0013437B613B68DB78282B05D1BB6908331C
:10181C0001229A407B685A613B68DB78482B05D1E2
:10182C00BB69083301229A407B681A61BB6901339A
:10183C00BB61BB69072BC1D97B687A695A6000BF51
:10184C002437BD4680BC704780B485B000AF78604B
:10185C000B467B800023FB737B68DA687B88134024
:10186C00002B02D00123FB7301E00023FB73FB7BF5
:10187C0018461437BD4680BC704780B483B000AFA7
:10188C0078600B467B807A887B681A6100BF0C37C6
:10189C00BD4680BC704780B483B000AF78600B4607
:1018AC007B807A887B685A6100BF0C37BD4680BC50
:1018BC00704780B483B000AF78600B467B801346D2
:1018CC007B707B78002B03D07A887B681A6102E0EE
:1018DC007A887B685A6100BF0C37BD4680BC704764
:1018EC0080B400AF134B1B68124A43F00103136022
:1018FC00104B5A680F49104B13404B600D4B1B6833
:10190C000C4A23F0847323F480331360094B1B6857
:10191C00084A23F480231360064B5B68054A23F4C2
:10192C00FE035360034B4FF41F029A6000BFBD4689
:10193C0080BC7047001002400000FFF880B483B0F8
:10194C0000AF7860134B1B68124A23F4803313608A
:10195C00104B1B680F4A23F4802313607B68B3F58C
:10196C00803F03D0B3F5802F07D00DE0094B1B68E7
:10197C00084A43F48033136006E0064B1B68054AA3
:10198C0043F4A023136000BF00BF0C37BD4680BCDE
:10199C00704700BF0010024080B582B000AF00233A
:1019AC003B600023FB710023BB71312000F00EFA69
:1019BC000346BB713B6801333B603B68B3F5A06FDA
:1019CC0002D0BB79002BF0D0312000F0FFF9034698
:1019DC00002B02D00123FB7101E00023FB71FB798A
:1019EC0018460837BD4680BD80B485B000AF78601E
:1019FC0039600023FB600A4B5B68FB60FB6823F4D7
:101A0C007C13FB607A683B681343FA681343FB60F2
:101A1C00034AFB68536000BF1437BD4680BC704757
:101A2C000010024080B483B000AF0346FB71044A3F
:101A3C00FB79136000BF0C37BD4680BC704700BFFC
:101A4C006000424280B485B000AF78600023FB6038
:101A5C00094B5B68FB60FB6823F00303FB60FA68CF
:101A6C007B681343FB60044AFB68536000BF143768
:101A7C00BD4680BC704700BF0010024080B400AF70
:101A8C00044B5B68DBB203F00C03DBB21846BD46BB
:101A9C0080BC70470010024080B485B000AF786005
:101AAC000023FB60094B5B68FB60FB6823F0F003D1
:101ABC00FB60FA687B681343FB60044AFB68536065
:101ACC0000BF1437BD4680BC704700BF00100240F9
:101ADC0080B485B000AF78600023FB60094B5B6875
:101AEC00FB60FB6823F4E063FB60FA687B681343DC
:101AFC00FB60044AFB68536000BF1437BD4680BCD2
:101B0C00704700BF0010024080B485B000AF786011
:101B1C000023FB60094B5B68FB60FB6823F460539C
:101B2C00FB607B68DB00FA681343FB60034AFB68CD
:101B3C00536000BF1437BD4680BC70470010024094
:101B4C0080B487B000AF786000237B6100233B61D9
:101B5C000023FB600023BB604C4B5B6803F00C0361
:101B6C007B617B69042B07D0082B09D0002B33D168
:101B7C007B68474A1A6033E07B68454A1A602FE05D
:101B8C00424B5B6803F470133B61404B5B6803F49E
:101B9C008033FB603B699B0C02333B61FB68002B81
:101BAC0006D13B693B4A02FB03F27B681A6017E0E3
:101BBC00364B5B6803F40033002B06D03B69354A87
:101BCC0002FB03F27B681A600AE03B69304A02FBB5
:101BDC0003F27B681A6003E07B682D4A1A6000BF31
:101BEC002A4B5B6803F0F0037B617B691B097B610B
:101BFC00294A7B6913441B78DBB2BB607B681A688B
:101C0C00BB68DA407B685A60204B5B6803F4E06386
:101C1C007B617B691B0A7B611F4A7B6913441B78C0
:101C2C00DBB2BB607B685A68BB68DA407B689A6041
:101C3C00164B5B6803F460537B617B69DB0A7B6149
:101C4C00154A7B6913441B78DBB2BB607B685A680E
:101C5C00BB68DA407B68DA600C4B5B6803F440438A
:101C6C007B617B699B0B7B610C4A7B6913441B7802
:101C7C00DBB2BB607B68DA68BB68B2FBF3F27B68F3
:101C8C001A6100BF1C37BD4680BC70470010024073
:101C9C0000127A0000093D003002002040020020B2
:101CAC0080B483B000AF78600B46FB70FB78002BE0
:101CBC0006D0094B5A6908497B6813434B6106E00F
:101CCC00054B5A697B68DB43034913404B6100BFEA
:101CDC000C37BD4680BC70470010024080B483B006
:101CEC0000AF78600B46FB70FB78002B06D0094BDD
:101CFC009A6908497B6813438B6106E0054B9A6926
:101D0C007B68DB43034913408B6100BF0C37BD4636
:101D1C0080BC70470010024080B483B000AF786084
:101D2C000B46FB70FB78002B06D0094BDA6908498F
:101D3C007B681343CB6106E0054BDA697B68DB43B8
:101D4C0003491340CB6100BF0C37BD4680BC7047C4
:101D5C000010024080B483B000AF78600B46FB707B
:101D6C00FB78002B06D0094BDA6808497B681343D3
:101D7C00CB6006E0054BDA687B68DB430349134014
:101D8C00CB6000BF0C37BD4680BC704700100240D2
:101D9C0080B483B000AF78600B46FB70FB78002BEF
:101DAC0006D0094B1A6908497B6813430B6106E09E
:101DBC00054B1A697B68DB43034913400B6100BF79
:101DCC000C37BD4680BC70470010024080B487B011
:101DDC0000AF0346FB710023FB6000237B610023F3
:101DEC00FB74FB795B09DBB2FB60FB68012B03D155
:101DFC00124B1B687B6109E0FB68022B03D10F4B74
:101E0C001B6A7B6102E00D4B5B6A7B61FB7903F023
:101E1C001F03FB607A69FB6822FA03F303F00103EA
:101E2C00002B02D00123FB7401E00023FB74FB7C2C
:101E3C0018461C37BD4680BC704700BF00100240DE
:101E4C0080B582B000AF78607B68264A93420AD195
:101E5C0001214FF48040FFF77DFF00214FF48040BB
:101E6C00FFF778FF3AE07B681F4A93420AD10121C1
:101E7C004FF40030FFF78CFF00214FF40030FFF7D8
:101E8C0087FF2BE07B68194A93420AD101214FF45A
:101E9C008020FFF77DFF00214FF48020FFF778FFB3
:101EAC001CE07B68124A93420AD101214FF40020B6
:101EBC00FFF76EFF00214FF40020FFF769FF0DE0E4
:101ECC007B680C4A934209D101214FF48010FFF733
:101EDC005FFF00214FF48010FFF75AFF00BF083757
:101EEC00BD4680BD00380140004400400048004021
:101EFC00004C00400050004080B58CB000AF7860C2
:101F0C0039600023FB620023BB6200237B62002349
:101F1C003B620023FB617B68FB617B681B8A9BB285
:101F2C00FB62FA6A4CF6FF731340FB623B68DB887A
:101F3C001A46FB6A1343FB62FB6A9AB27B681A82ED
:101F4C007B689B899BB2FB62FA6A4EF6F3131340D3
:101F5C00FB623B689A883B681B8913439AB23B68C7
:101F6C005B8913439BB21A46FB6A1343FB62FB6A01
:101F7C009AB27B689A817B689B8A9BB2FB62FA6AF5
:101F8C004FF6FF431340FB623B689B891A46FB6A82
:101F9C001343FB62FB6A9AB27B689A8207F10803CF
:101FAC001846FFF7CDFDFB692E4A934202D17B699F
:101FBC00BB6201E03B69BB627B689B899BB21BB235
:101FCC00002B0CDABA6A13469B0013449A001A448D
:101FDC003B681B685B00B2FBF3F37B620BE0BA6AF5
:101FEC0013469B0013449A001A443B681B689B00E1
:101FFC00B2FBF3F37B627B6A1B4AA2FB03235B09F4
:10200C001B01FB62FB6A1B09642202FB03F37A6A65
:10201C00D31A3B627B689B899BB21BB2002B0CDAF8
:10202C003B6ADB003233104AA2FB03235B0903F04B
:10203C000703FA6A1343FB620BE03B6A1B01323362
:10204C00094AA2FB03235B0903F00F03FA6A13434B
:10205C00FB62FB6A9AB27B681A8100BF3037BD46BF
:10206C0080BD00BF003801401F85EB5180B485B0A6
:10207C0000AF786039600023FB607B681B8A9BB2E1
:10208C00FB60FA684FF2FF031340FB603B681A8851
:10209C003B685B8813439AB23B689B8813439AB2A4
:1020AC003B68DB8813439BB21A46FB681343FB6007
:1020BC00FB689AB27B681A8200BF1437BD4680BC9D
:1020CC00704780B483B000AF78600B46FB70FB7830
:1020DC00002B08D07B689B899BB243F400539AB2C7
:1020EC007B689A8107E07B689B899BB223F4005341
:1020FC009AB27B689A8100BF0C37BD4680BC704792
:10210C0080B487B000AF78600B467B8013467B7041
:10211C0000233B610023FB600023BB6000237B6139
:10212C007B687B617B88DBB25B09DBB23B617B88C4
:10213C0003F01F03FB600122FB6802FA03F3BB6090
:10214C003B69012B03D17B690C337B6109E03B6953
:10215C00022B03D17B6910337B6102E07B69143362
:10216C007B617B78002B06D07B6919687B69BA6828
:10217C000A431A6006E07B691968BB68DA437B691D
:10218C000A401A6000BF1C37BD4680BC704780B443
:10219C0083B000AF78600B467B8013467B707B78F6
:1021AC00002B08D07B689B8A9AB27B8813439AB227
:1021BC007B689A8209E07B689B8A9AB27B88DB43B6
:1021CC009BB213409AB27B689A8200BF0C37BD4613
:1021DC0080BC704780B483B000AF78607B689B880C
:1021EC009BB2C3F308039BB218460C37BD4680BCA8
:1021FC00704780B487B000AF78600B467B800023BB
:10220C00FB6000237B610023BB600023FB747B8895
:10221C00DBB25B09DBB2BB607B8803F01F037B6125
:10222C0001227B6902FA03F37B61BB68012B07D1A6
:10223C007B689B899BB21A467B6913407B6111E0DA
:10224C00BB68022B07D17B681B8A9BB21A467B6941
:10225C0013407B6106E07B689B8A9BB21A467B69C4
:10226C0013407B617B881B0A9BB2FB600122FB68DD
:10227C0002FA03F3FB607B681B889BB21A46FB686F
:10228C001340FB607B69002B05D0FB68002B02D050
:10229C000123FB7401E00023FB74FB7C18461C3704
:1022AC00BD4680BC704780B485B000AF78600B46EB
:1022BC007B800023FB810023BB817B881B0AFB8175
:1022CC00FB89012202FA03F3BB81BB89DB439AB27F
:1022DC007B681A8000BF1437BD4680BC7047000075
:1022EC0080B483B000AF01237B607B689AB20F4B44
:1022FC001B889BB213449AB20C4B1A800B4B1B8855
:10230C009BB2B3F57A7F0CD3084B1B889BB2A3F519
:10231C007A739AB2054B1A80054B1B680133044A39
:10232C00136000BF0C37BD4680BC7047940600207C
:10233C009006002080B487B000AFF860B9607A6076
:10234C00FB700023FB7505E097F91730DBB2013306
:10235C00DBB2FB7597F917202D4913465B0013442C
:10236C00DB000B441B68002B03D097F917301F2B95
:10237C00EADD97F917301F2B41DC97F91720244918
:10238C0013465B001344DB000B44FA681A6097F9A0
:10239C0017201F4913465B001344DB000B44043326
:1023AC00BA681A6097F91720194913465B00134451
:1023BC00DB000B440833BA681A6097F917201449EC
:1023CC0013465B001344DB000B440C337A681A6031
:1023DC0097F917200E4913465B001344DB000B449E
:1023EC001033FA781A7097F91720094913465B00D5
:1023FC001344DB000B4414333A6A1A6001E0FF23E8
:10240C00FB7597F9173018461C37BD4680BC7047D2
:10241C00BC06002080B483B000AF0346FB7197F973
:10242C0007301F2B01DD002343E097F907202349D8
:10243C0013465B001344DB000B441B68002B01D1DB
:10244C00002336E097F907201C4913465B00134420
:10245C00DB000B4400221A6097F90720174913463A
:10246C005B001344DB000B44043300221A6097F921
:10247C000720124913465B001344DB000B440C335A
:10248C0000221A6097F907200C4913465B0013448D
:10249C00DB000B44103300221A7097F90720074910
:1024AC0013465B001344DB000B44143300221A6008
:1024BC00012318460C37BD4680BC7047BC06002073
:1024CC0080B582B000AF0023FB7191E0FA794C49E2
:1024DC0013465B001344DB000B4404331B68002BD6
:1024EC0071D1FA79464913465B001344DB000B4467
:1024FC0010331B78002B78D0FA79414913465B00D6
:10250C001344DB000B441968FA793D4813465B0011
:10251C001344DB00034414331B6818468847FA79CC
:10252C00374913465B001344DB000B440C331B6828
:10253C00002B12D1F979FA7931480B465B000B4428
:10254C00DB000344083319682D4813465B00134421
:10255C00DB0003440433196047E0FA792849134639
:10256C005B001344DB000B440C331B68012B05D1BF
:10257C0097F907301846FFF74DFF36E0F979FA79ED
:10258C001F480B465B000B44DB00034408331968FF
:10259C001B4813465B001344DB00034404331960EF
:1025AC00FA79174913465B001344DB000B440C33D8
:1025BC001B68591E124813465B001344DB0003448E
:1025CC000C33196011E0FA790D4913465B00134482
:1025DC00DB000B4404331B68591E094813465B008F
:1025EC001344DB00034404331960FB790133FB71A2
:1025FC00FB791F2B7FF66AAF00BF0837BD4680BD45
:10260C00BC06002080B500AFFDF7EAFEFEF7E2FB4A
:10261C00FDF750FFFEF740FCFEF750F8FEF76EF8A2
:10262C00FEE70000DFF834D0002103E00C4B5B58D0
:10263C00435004310B480C4B42189A42F6D30B4AC8
:10264C0002E0002342F8043B094B9A42F9D300F014
:10265C003FF800F0F7F8FFF7D5FF70470050002067
:10266C00B829000800000020740600207406002021
:10267C00C8090020FEE780B400AF00BFBD4680BC97
:10268C00704780B400AFFEE780B400AFFEE780B4C3
:10269C0000AFFEE780B400AFFEE780B400AF00BF30
:1026AC00BD4680BC704780B400AF00BFBD4680BC47
:1026BC00704780B400AF00BFBD4680BC704780B58A
:1026CC0000AFFFF70DFEFFF7FBFE00BF80BD000063
:1026DC0080B500AF154B1B68144A43F0010313601F
:1026EC00124B5A681149124B13404B600F4B1B682D
:1026FC000E4A23F0847323F4803313600B4B1B6856
:10270C000A4A23F480231360084B5B68074A23F4BE
:10271C00FE035360054B4FF41F029A6000F00CF857
:10272C00044B4FF000629A6000BF80BD0010024065
:10273C000000FFF800ED00E080B500AF00F002F8FB
:10274C0000BF80BD80B483B000AF00237B6000234A
:10275C003B603A4B1B68394A43F480331360374B68
:10276C001B6803F400333B607B6801337B603B6880
:10277C00002B03D17B68B3F5A06FF0D12F4B1B68F6
:10278C0003F40033002B02D001233B6001E0002353
:10279C003B603B68012B4BD1294B1B68284A43F00B
:1027AC0010031360264B1B68254A23F003031360A8
:1027BC00234B1B68224A43F0020313601F4B1F4A32
:1027CC005B6853601D4B1D4A5B6853601B4B5B6819
:1027DC001A4A43F480635360184B5B68174A23F41E
:1027EC007C135360154B5B68144A43F4E813536035
:1027FC00124B1B68114A43F08073136000BF0F4BE0
:10280C001B6803F00073002BF9D00C4B5B680B4A70
:10281C0023F003035360094B5B68084A43F002033F
:10282C00536000BF054B5B6803F00C03082BF9D118
:10283C0000BF0C37BD4680BC704700BF0010024083
:10284C000020024070B500250C4E0D4CA41BA410AA
:10285C00A54209D100F096F800250A4E0A4CA41B9B
:10286C00A410A54205D170BD56F825309847013506
:10287C00EEE756F8253098470135F2E7AC29000809
:10288C00AC290008AC290008B4290008024B13B18C
:10289C00024800F005B8704700000000B928000895
:1028AC00002301461A46184600F016B838B5074DF5
:1028BC00074C641BA4101CB9BDE8384000F068B884
:1028CC00013C55F824309847F5E700BFB4290008BF
:1028DC00B8290008704770472DE9F843264C064686
:1028EC00206898460F469146FFF7F4FF234B1D686E
:1028FC00D5F8480118B905F5A670C5F84801436824
:10290C001F2B19DD1E4B33B92068FFF7E4FF4FF086
:10291C00FF30BDE8F8834FF4C870AFF30080002897
:10292C00F2D00022D5F8483142600360C5F8480166
:10293C00C0F88821C0F88C2143689EB1012200EBBD
:10294C008305C5F88890D0F888119A401143022E5F
:10295C00C0F88811C5F8088102BFD0F88C110A4361
:10296C00C0F88C215A1C0233426040F82370206856
:10297C00FFF7B1FF0020CCE770060020A829000863
:10298C0000000000F8B500BFF8BC08BC9E467047BC
:0C299C00F8B500BFF8BC08BC9E467047B0
:0429A80048020020C1
:0829AC00992800083101000820
:0429B4000D01000809
:1029B800010200000010014000200000E803F401BB
:1029C80089060008A906000802020000000C014060
:1029D80000200000E803F40189060008A9060008A1
:1029E8008025000008B001000038014025000000E3
:1029F80044000240001000000E000000002000000B
:102A08003800002000000002000000000000000064
:102A180000000000000000000000000000000000AE
:102A2800000000000000000000000000000000009E
:102A3800000000000000000000000000000000008E
:102A4800000000000000000000000000000000007E
:102A5800000000000000000000000000000000006E
:102A6800000000000000000000000000000000005E
:102A7800000000000000000000000000000000004E
:102A8800000000000000000000000000000000003E
:102A9800000000000000000000000000000000002E
:102AA800000000000000000000000000000000001E
:102AB800000000000000000000000000000000000E
:102AC80000000000000000000000000000000000FE
:102AD80000000000000000000000000000000000EE
:102AE8008025000008B001000048004027000000D1
:102AF8001C000240100000000C0000002000000034
:102B08003801002000000002000000000000000062
:102B180000000000000000000000000000000000AD
:102B2800000000000000000000000000000000009D
:102B3800000000000000000000000000000000008D
:102B4800000000000000000000000000000000007D
:102B5800000000000000000000000000000000006D
:102B6800000000000000000000000000000000005D
:102B7800000000000000000000000000000000004D
:102B8800000000000000000000000000000000003D
:102B9800000000000000000000000000000000002D
:102BA800000000000000000000000000000000001D
:102BB800000000000000000000000000000000000D
:102BC80000000000000000000000000000000000FD
:102BD80000000000000000000000000000000000ED
:102BE80000000000010203040102030406070809AB
:102BF8000204060800000000000000003405002060
:102C08009C050020040600200000000000000000D1
:102C180000000000000000000000000000000000AC
:102C2800000000000000000000000000000000009C
:102C3800000000000000000000000000000000008C
:102C4800000000000000000000000000000000007C
:102C5800000000000000000000000000000000006C
:102C6800000000000000000000000000000000005C
:102C7800000000000000000000000000000000004C
:102C8800000000000000000000000000000000003C
:102C9800000000000000000000000000000000002C
:102CA80001000000000000000E33CDAB34126DE6C9
:102CB800ECDE05000B000000000000000000000032
:102CC80000000000000000000000000000000000FC
:102CD80000000000000000000000000000000000EC
:102CE80000000000000000000000000000000000DC
:102CF80000000000000000000000000000000000CC
:04302800BC090020BF
:040000050800263198
:00000001FF
