:020000040800F2
:10000000005000208D0D0008DF0D0008EB0D0008EA
:10001000F10D0008F70D0008FD0D000800000000BC
:10002000000000000000000000000000030E0008B7
:100030000F0E0008000000001B0E0008270E00082D
:10004000DD0D0008DD0D0008DD0D0008DD0D0008E8
:10005000DD0D0008DD0D0008DD0D0008DD0D0008D8
:10006000DD0D0008DD0D0008DD0D0008DD0D0008C8
:10007000DD0D0008DD0D0008DD0D0008DD0D0008B8
:10008000DD0D0008DD0D0008DD0D0008DD0D0008A8
:10009000DD0D0008DD0D0008DD0D0008DD0D000898
:1000A000DD0D0008DD0D0008DD0D0008DD0D000888
:1000B000DD0D0008DD0D0008DD0D0008DD0D000878
:1000C000DD0D0008DD0D0008DD0D0008DD0D000868
:1000D000DD0D0008DD0D0008DD0D0008DD0D000858
:1000E000DD0D0008DD0D0008DD0D0008000000003A
:1000F0000000000000000000000000000000000000
:0C01000000000000000000005FF808F1A3
:10010C0010B5054C237833B9044B13B10448AFF345
:10011C0000800123237010BD440400200000000067
:10012C00E810000808B5034B1BB103490348AFF3B3
:10013C00008008BD0000000048040020E810000802
:10014C0080B483B000AF03463960FB7197F9073078
:10015C00002B0BDA3B68DAB20C49FB7903F00F0386
:10016C00043B1201D2B20B441A7609E03B68DAB2B6
:10017C00074997F907301201D2B20B4483F80023D8
:10018C0000BF0C37BD4680BC704700BF00ED00E0DF
:10019C0000E100E080B582B000AF78607B68B3F11D
:1001AC00807F01D3012311E07B6823F07F43094A50
:1001BC00013B53600F214FF0FF30FFF7C1FF054BA0
:1001CC0000229A60034B07221A6000231846083756
:1001DC00BD4680BD10E000E080B485B000AF786013
:1001EC007B68BB600023FB8107E0FB89BA68134482
:1001FC0000221A70FB890133FB81FB89152BF4D982
:10020C007B6801221A7500BF1437BD4680BC70474D
:10021C0080B586B000AF78607B68FB60224B3B6199
:10022C0000F0F4F9352000F063FA0023FB820EE0B5
:10023C0000BFFB8A03F500333F339B02184600F0E6
:10024C00F7F90346042BF4D1FB8A0133FB82FB8ABA
:10025C00002BEDD00023FB821FE000BFFB8AFA6865
:10026C0013441B789AB2FB8A0133F9680B441B7850
:10027C009BB21B029BB213449BB21946386900F027
:10028C0009FA0346042BE9D1FB8A0133FB823B6953
:10029C0002333B61FB8A0133FB82FB8A152BDCD9D1
:1002AC0000BF1837BD4680BD00FC000880B586B085
:1002BC0000AF78607B68FB60194B3B610023FB82CD
:1002CC001CE03B691B887B81FB8AFA6813447A89A2
:1002DC00D2B21A70FB8A0133FB82FB8A152B07D82A
:1002EC007B891B0A99B2FB8AFA681344CAB21A704A
:1002FC003B6902333B61FB8A0133FB82FB8A152B82
:10030C00DFD97B681B7D012B05D07868FFF764FF74
:10031C007868FFF77DFF00BF1837BD4680BD00BF72
:10032C0000FC000880B400AF074B1B68074A136041
:10033C00074B1B68054A5360064B1B68034A9360C6
:10034C0000BFBD4680BC7047E8F7FF1F600400206B
:10035C00ECF7FF1FF0F7FF1F80B582B000AF00F085
:10036C0021FA4FF4803000F04BFA00F077FA034694
:10037C00FB71FB79012B22D14FF4E0114FF480304B
:10038C0000F094FA012000F0AFFA00BF002000F05A
:10039C00E9FB0346002BF9D1022000F0B5FA00204E
:1003AC0000F0DCFA4FF4806000F0F4FA002000F06A
:1003BC000DFB00BF00F0C4FA0346082BFAD100BFB6
:1003CC000837BD4680BD80B582B000AF00214FF02C
:1003DC00006000F0E9F84FF4E06000F071F82523BC
:1003EC003B7100237B710123BB710123FB713B1D0E
:1003FC00184600F077F80E233B7100237B71022323
:10040C00BB710123FB713B1D184600F06BF81423E4
:10041C003B7100237B710323BB710123FB713B1DDB
:10042C00184600F05FF826233B7100237B710423F0
:10043C00BB710123FB713B1D184600F053F81123CF
:10044C003B7100237B710523BB710123FB713B1DA9
:10045C00184600F047F827233B7100237B710623D5
:10046C00BB710123FB713B1D184600F03BF80C23BC
:10047C003B7100237B710723BB710123FB713B1D77
:10048C00184600F02FF800BF0837BD4680BD0000AD
:10049C0080B500AFFFF760FFFFF795FF6FF004002A
:1004AC0000F098F842F22830FFF774FEFFF73AFF9D
:1004BC000248FFF7FBFE00BF80BD00BF6C040020AC
:1004CC0080B483B000AF7860054A7B6843F0BF63AB
:1004DC0043F40033D36000BF0C37BD4680BC70477B
:1004EC0000ED00E080B487B000AF786000237B6142
:1004FC0000233B610F23FB607B68DB78002B3AD039
:10050C00274BDB68DB431B0A03F007037B617B692A
:10051C00C3F104033B61FA687B6922FA03F3FB60C5
:10052C007B685B781A463B6902FA03F37B617B6854
:10053C009B781A46FB6813407A6913437B617B698D
:10054C001B017B61174A7B681B787969C9B213441C
:10055C000A4683F800237B681B7803F01F031149BC
:10056C007A6812785209D2B21046012202FA03F3C9
:10057C0041F820300FE07B681B7803F01F0309491A
:10058C007A6812785209D2B2104601229A4000F1D0
:10059C00200341F8232000BF1C37BD4680BC7047A8
:1005AC0000ED00E000E100E080B483B000AF7860C3
:1005BC0039603B6823F0604323F07F0304497A6879
:1005CC0013438B6000BF0C37BD4680BC704700BF27
:1005DC0000ED00E080B483B000AF78607B68042B42
:1005EC0006D1094B1B68084A43F00403136005E06D
:1005FC00054B1B68044A23F00403136000BF0C373F
:10060C00BD4680BC704700BF10E000E080B400AF76
:10061C00044B054A5A60034B044A5A6000BFBD465E
:10062C0080BC70470020024023016745AB89EFCDA9
:10063C0080B584B000AF78600423FB734FF4302096
:10064C0000F08EF80346FB73FB7B042B1BD1104B85
:10065C001B690F4A43F0020313610D4A7B68536117
:10066C000B4B1B690A4A43F0400313614FF43020D3
:10067C0000F076F80346FB73054B1A69044941F602
:10068C00FD7313400B61FB7B18461037BD4680BDD4
:10069C000020024080B584B000AF78600B467B80B0
:1006AC000423FB734FF4005000F05AF80346FB731D
:1006BC00FB7B042B15D10D4B1B690C4A43F001033A
:1006CC0013617B687A881A804FF4005000F048F868
:1006DC000346FB73054B1A69044941F6FE7313403C
:1006EC000B61FB7B18461037BD4680BD00200240D5
:1006FC0080B483B000AF7860034A7B68D36000BFDE
:10070C000C37BD4680BC70470020024080B483B0DB
:10071C0000AF0423FB71114BDB6803F00103012BC9
:10072C0002D10123FB7113E00C4BDB6803F00403D3
:10073C00002B02D00223FB710AE0084BDB6803F0AC
:10074C001003002B02D00323FB7101E00423FB7187
:10075C00FB7918460C37BD4680BC70470020024020
:10076C0080B584B000AF78600423FB73FFF7CEFF35
:10077C000346FB7306E0FFF7C9FF0346FB737B6878
:10078C00013B7B60FB7B012B02D17B68002BF2D100
:10079C007B68002B01D10523FB73FB7B18461037BC
:1007AC00BD4680BD80B400AF134B1B68124A43F0AA
:1007BC0001031360104B5A680F49104B13404B60E8
:1007CC000D4B1B680C4A23F0847323F480331360A5
:1007DC00094B1B68084A23F480231360064B5B68A3
:1007EC00054A23F4FE035360034B4FF41F029A6037
:1007FC0000BFBD4680BC7047001002400000FFF8EF
:10080C0080B483B000AF7860134B1B68124A23F49A
:10081C0080331360104B1B680F4A23F48023136042
:10082C007B68B3F5803F03D0B3F5802F07D00DE084
:10083C00094B1B68084A43F48033136006E0064BEF
:10084C001B68054A43F4A023136000BF00BF0C379C
:10085C00BD4680BC704700BF0010024080B582B01E
:10086C0000AF00233B600023FB710023BB713120E0
:10087C0000F078F90346BB713B6801333B603B6881
:10088C00B3F5A06F02D0BB79002BF0D0312000F073
:10089C0069F90346002B02D00123FB7101E0002310
:1008AC00FB71FB7918460837BD4680BD80B485B016
:1008BC0000AF786039600023FB600A4B5B68FB601B
:1008CC00FB6823F47C13FB607A683B681343FA687B
:1008DC001343FB60034AFB68536000BF1437BD46EB
:1008EC0080BC70470010024080B483B000AF034658
:1008FC00FB71044AFB79136000BF0C37BD4680BC0A
:10090C00704700BF6000424280B485B000AF786091
:10091C000023FB60094B5B68FB60FB6823F003035F
:10092C00FB60FA687B681343FB60044AFB68536006
:10093C0000BF1437BD4680BC704700BF001002409A
:10094C0080B400AF044B5B68DBB203F00C03DBB28A
:10095C001846BD4680BC70470010024080B485B07C
:10096C0000AF78600023FB60094B5B68FB60FB68A1
:10097C0023F0F003FB60FA687B681343FB60044AC6
:10098C00FB68536000BF1437BD4680BC704700BF86
:10099C000010024080B485B000AF78600023FB608B
:1009AC00094B5B68FB60FB6823F4E063FB60FA684F
:1009BC007B681343FB60044AFB68536000BF143729
:1009CC00BD4680BC704700BF0010024080B485B0AB
:1009DC0000AF78600023FB60094B5B68FB60FB6831
:1009EC0023F46053FB607B68DB00FA681343FB6005
:1009FC00034AFB68536000BF1437BD4680BC704788
:100A0C000010024080B487B000AF786000237B6197
:100A1C0000233B610023FB600023BB604C4B5B68F5
:100A2C0003F00C037B617B69042B07D0082B09D0E6
:100A3C00002B33D17B68474A1A6033E07B68454A08
:100A4C001A602FE0424B5B6803F470133B61404B20
:100A5C005B6803F48033FB603B699B0C02333B61A6
:100A6C00FB68002B06D13B693B4A02FB03F27B6817
:100A7C001A6017E0364B5B6803F40033002B06D08A
:100A8C003B69354A02FB03F27B681A600AE03B695A
:100A9C00304A02FB03F27B681A6003E07B682D4A44
:100AAC001A6000BF2A4B5B6803F0F0037B617B6923
:100ABC001B097B61294A7B6913441B78DBB2BB6041
:100ACC007B681A68BB68DA407B685A60204B5B68AD
:100ADC0003F4E0637B617B691B0A7B611F4A7B69C2
:100AEC0013441B78DBB2BB607B685A68BB68DA4086
:100AFC007B689A60164B5B6803F460537B617B697F
:100B0C00DB0A7B61154A7B6913441B78DBB2BB6043
:100B1C007B685A68BB68DA407B68DA600C4B5B68B0
:100B2C0003F440437B617B699B0B7B610C4A7B69C3
:100B3C0013441B78DBB2BB607B68DA68BB68B2FB22
:100B4C00F3F27B681A6100BF1C37BD4680BC70474E
:100B5C000010024000127A0000093D000000002045
:100B6C001000002080B487B000AF0346FB71002357
:100B7C00FB6000237B610023FB74FB795B09DBB218
:100B8C00FB60FB68012B03D1124B1B687B6109E0F6
:100B9C00FB68022B03D10F4B1B6A7B6102E00D4BF0
:100BAC005B6A7B61FB7903F01F03FB607A69FB686E
:100BBC0022FA03F303F00103002B02D00123FB7490
:100BCC0001E00023FB74FB7C18461C37BD4680BC3F
:100BDC00704700BF0010024080B58CB000AF786049
:100BEC0039600023FB620023BB6200237B6200237D
:100BFC003B620023FB617B68FB617B681B8A9BB2B9
:100C0C00FB62FA6A4CF6FF731340FB623B68DB88AD
:100C1C001A46FB6A1343FB62FB6A9AB27B681A8220
:100C2C007B689B899BB2FB62FA6A4EF6F313134006
:100C3C00FB623B689A883B681B8913439AB23B68FA
:100C4C005B8913439BB21A46FB6A1343FB62FB6A34
:100C5C009AB27B689A817B689B8A9BB2FB62FA6A28
:100C6C004FF6FF431340FB623B689B891A46FB6AB5
:100C7C001343FB62FB6A9AB27B689A8207F1080302
:100C8C001846FFF7BFFEFB692E4A934202D17B69DF
:100C9C00BB6201E03B69BB627B689B899BB21BB268
:100CAC00002B0CDABA6A13469B0013449A001A44C0
:100CBC003B681B685B00B2FBF3F37B620BE0BA6A28
:100CCC0013469B0013449A001A443B681B689B0014
:100CDC00B2FBF3F37B627B6A1B4AA2FB03235B0927
:100CEC001B01FB62FB6A1B09642202FB03F37A6A99
:100CFC00D31A3B627B689B899BB21BB2002B0CDA2C
:100D0C003B6ADB003233104AA2FB03235B0903F07E
:100D1C000703FA6A1343FB620BE03B6A1B01323395
:100D2C00094AA2FB03235B0903F00F03FA6A13437E
:100D3C00FB62FB6A9AB27B681A8100BF3037BD46F2
:100D4C0080BD00BF003801401F85EB5180B584B0D9
:100D5C0000AFFFF79DFB4FF416533B600023BB80A5
:100D6C000023FB8000233B810023BB810C237B8170
:100D7C003B4619460148FFF72FFFFEE700380140BC
:100D8C00DFF834D0002103E00C4B5B5843500431A6
:100D9C000B480C4B42189A42F6D30B4A02E0002344
:100DAC0042F8043B094B9A42F9D300F03DF800F0AD
:100DBC00F5F8FFF7CBFF704700500020101100082A
:100DCC000000002044040020440400208C04002077
:100DDC00FEE780B400AF00BFBD4680BC704780B456
:100DEC0000AFFEE780B400AFFEE780B400AFFEE7D3
:100DFC0080B400AFFEE780B400AF00BFBD4680BC3E
:100E0C00704780B400AF00BFBD4680BC704780B453
:100E1C0000AF00BFBD4680BC704780B400AF00BFC0
:100E2C00BD4680BC7047000080B500AF154B1B68F9
:100E3C00144A43F001031360124B5A681149124BC8
:100E4C0013404B600F4B1B680E4A23F0847323F442
:100E5C00803313600B4B1B680A4A23F48023136006
:100E6C00084B5B68074A23F4FE035360054B4FF4B1
:100E7C001F029A6000F00CF8044B4FF000629A606D
:100E8C0000BF80BD001002400000FFF800ED00E044
:100E9C0080B500AF00F002F800BF80BD80B483B015
:100EAC0000AF00237B6000233B603A4B1B68394A40
:100EBC0043F480331360374B1B6803F400333B60FF
:100ECC007B6801337B603B68002B03D17B68B3F5F7
:100EDC00A06FF0D12F4B1B6803F40033002B02D012
:100EEC0001233B6001E000233B603B68012B4BD1AD
:100EFC00294B1B68284A43F010031360264B1B68D0
:100F0C00254A23F003031360234B1B68224A43F04A
:100F1C00020313601F4B1F4A5B6853601D4B1D4A35
:100F2C005B6853601B4B5B681A4A43F480635360E5
:100F3C00184B5B68174A23F47C135360154B5B68A2
:100F4C00144A43F4E8135360124B1B68114A43F0E4
:100F5C008073136000BF0F4B1B6803F00073002BF2
:100F6C00F9D00C4B5B680B4A23F003035360094B1D
:100F7C005B68084A43F00203536000BF054B5B6893
:100F8C0003F00C03082BF9D100BF0C37BD4680BC15
:100F9C00704700BF001002400020024070B50025D1
:100FAC000C4E0D4CA41BA410A54209D100F096F8D0
:100FBC0000250A4E0A4CA41BA410A54205D170BDF5
:100FCC0056F8253098470135EEE756F82530984706
:100FDC000135F2E70411000804110008041100089F
:100FEC000C110008024B13B1024800F005B8704711
:100FFC000000000011100008002301461A46184694
:10100C0000F016B838B5074D074C641BA4101CB97A
:10101C00BDE8384000F068B8013C55F824309847DA
:10102C00F5E700BF0C11000810110008704770475D
:10103C002DE9F843264C0646206898460F46914603
:10104C00FFF7F4FF234B1D68D5F8480118B905F5D7
:10105C00A670C5F8480143681F2B19DD1E4B33B928
:10106C002068FFF7E4FF4FF0FF30BDE8F8834FF442
:10107C00C870AFF300800028F2D00022D5F84831B8
:10108C0042600360C5F84801C0F88821C0F88C2183
:10109C0043689EB1012200EB8305C5F88890D0F817
:1010AC0088119A401143022EC0F88811C5F80881A6
:1010BC0002BFD0F88C110A43C0F88C215A1C0233A1
:1010CC00426040F823702068FFF7B1FF0020CCE7A6
:1010DC00400400200011000800000000F8B500BF1B
:1010EC00F8BC08BC9E467047F8B500BFF8BC08BCFD
:0410FC009E46704755
:0411000018000020B3
:08110400F10F000831010008A1
:04110C000D010008C9
:10111000000000000102030401020304060708099D
:101120000204060800000000000000000403002084
:101130006C030020D4030020000000000000000029
:10114000000000000000000000000000000000009F
:10115000000000000000000000000000000000008F
:10116000000000000000000000000000000000007F
:10117000000000000000000000000000000000006F
:10118000000000000000000000000000000000005F
:10119000000000000000000000000000000000004F
:1011A000000000000000000000000000000000003F
:1011B000000000000000000000000000000000002F
:1011C000000000000000000000000000000000001F
:1011D00001000000000000000E33CDAB34126DE6BC
:1011E000ECDE05000B000000000000000000000025
:1011F00000000000000000000000000000000000EF
:1012000000000000000000000000000000000000DE
:1012100000000000000000000000000000000000CE
:1012200000000000000000000000000000000000BE
:0415500082040020F1
:0400000508000D8D55
:00000001FF
