:020000040800F2
:100000000050002055220008A7220008B322000853
:10001000B9220008BF220008C52200080000000025
:10002000000000000000000000000000CB220008DB
:10003000D722000800000000E3220008EF22000899
:10004000A5220008A5220008A5220008A522000874
:10005000A5220008A5220008A5220008A522000864
:10006000A5220008A5220008A5220008A522000854
:10007000C1090008A522000899090008A522000866
:10008000A5220008A5220008A52200081D040008DA
:1000900029040008A5220008A5220008A5220008BE
:1000A000A5220008A5220008A5220008A522000814
:1000B000A5220008A5220008A5220008A522000804
:1000C000A5220008A5220008A5220008A5220008F4
:1000D000A522000885090008A5220008AD0900082E
:1000E000A5220008A5220008A522000800000000A3
:1000F0000000000000000000000000000000000000
:0C01000000000000000000005FF808F1A3
:10010C0010B5054C237833B9044B13B10448AFF345
:10011C0000800123237010BD440600200000000065
:10012C00C025000808B5034B1BB103490348AFF3C6
:10013C00008008BD0000000048060020C025000813
:10014C0080B483B000AF03463960FB7197F9073078
:10015C00002B0BDA3B68DAB20C49FB7903F00F0386
:10016C00043B1201D2B20B441A7609E03B68DAB2B6
:10017C00074997F907301201D2B20B4483F80023D8
:10018C0000BF0C37BD4680BC704700BF00ED00E0DF
:10019C0000E100E080B582B000AF78607B68B3F11D
:1001AC00807F01D3012311E07B6823F07F43094A50
:1001BC00013B53600F214FF0FF30FFF7C1FF054BA0
:1001CC0000229A60034B07221A6000231846083756
:1001DC00BD4680BD10E000E080B485B000AF786013
:1001EC007B68BB600023FB8107E0FB89BA68134482
:1001FC0000221A70FB890133FB81FB89152BF4D982
:10020C007B6801221A7500BF1437BD4680BC70474D
:10021C0080B586B000AF78607B68FB60224B3B6199
:10022C0001F00AF9352001F079F90023FB820EE088
:10023C0000BFFB8A03F500333F339B02184601F0E5
:10024C000DF90346042BF4D1FB8A0133FB82FB8AA4
:10025C00002BEDD00023FB821FE000BFFB8AFA6865
:10026C0013441B789AB2FB8A0133F9680B441B7850
:10027C009BB21B029BB213449BB21946386901F026
:10028C001FF90346042BE9D1FB8A0133FB823B693E
:10029C0002333B61FB8A0133FB82FB8A152BDCD9D1
:1002AC0000BF1837BD4680BD00FC000880B586B085
:1002BC0000AF78607B68FB60194B3B610023FB82CD
:1002CC001CE03B691B887B81FB8AFA6813447A89A2
:1002DC00D2B21A70FB8A0133FB82FB8A152B07D82A
:1002EC007B891B0A99B2FB8AFA681344CAB21A704A
:1002FC003B6902333B61FB8A0133FB82FB8A152B82
:10030C00DFD97B681B7D012B05D07868FFF764FF74
:10031C007868FFF77DFF00BF1837BD4680BD00BF72
:10032C0000FC000880B400AF074B1B68074A136041
:10033C00074B1B68054A5360064B1B68034A9360C6
:10034C0000BFBD4680BC7047E8F7FF1F6006002069
:10035C00ECF7FF1FF0F7FF1F80B582B000AF01F084
:10036C003FFA4FF4803001F069FA01F095FA034638
:10037C00FB71FB79012B22D14FF4E0114FF480304B
:10038C0001F0B2FA012001F0CDFA00BF002001F01B
:10039C009DFC0346002BF9D1022001F0D3FA00207A
:1003AC0001F0FAFA4FF4806001F012FB002001F02A
:1003BC002BFB00BF01F0E2FA0346082BFAD100BF79
:1003CC000837BD4680BD80B500AF00214FF00060FE
:1003DC0000F050FD4FF4E06000F0D8FC00BF80BD91
:1003EC0080B500AFFFF7B8FFFFF7EDFF6FF004002B
:1003FC0000F056FD42F22830FFF7CCFEFFF792FFDB
:10040C000248FFF753FF00BF80BD00BF6C06002001
:10041C0080B400AF00BFBD4680BC704780B586B0CD
:10042C0000AF04233B733B1D1A460021054800F026
:10043C0053FD0221034800F00DFE00BF1837BD46E6
:10044C0080BD00BF0064004080B500AF01210820D2
:10045C0001F0C4FB0121102001F0C0FB00BF80BDE6
:10046C0080B582B000AF0323BB711023FB714FF436
:10047C000053BB803B1D19460A4801F0A9F83B1DEF
:10048C001946094801F0A4F84FF40051054801F051
:10049C0074F94FF40051044801F07DF900BF08379E
:1004AC00BD4680BD000C01400010014080B500AF7E
:1004BC00FFF7CAFFFFF7D4FF00BF80BD80B500AFC8
:1004CC000121052001F08AFB01214FF4804001F04D
:1004DC0085FB0121052001F081FB01214FF4003047
:1004EC0001F09AFB0121092001F078FB01214FF466
:1004FC00802001F091FB00BF80BD80B582B000AFC1
:10050C0025233B7100237B710123BB710123FB71FC
:10051C003B1D184600F04CFC0E233B7100237B71F5
:10052C000223BB710123FB713B1D184600F040FCFC
:10053C0026233B7100237B710423BB710123FB71C8
:10054C003B1D184600F034FC11233B7100237B71DA
:10055C000523BB710123FB713B1D184600F028FCE1
:10056C0027233B7100237B710623BB710123FB7195
:10057C003B1D184600F01CFC0C233B7100237B71C7
:10058C000723BB710123FB713B1D184600F010FCC7
:10059C0000BF0837BD4680BD80B582B000AF0323D5
:1005AC00BB710423FB714FF48063BB803B1D194668
:1005BC001B4801F00DF81823FB714FF40073BB803E
:1005CC003B1D1946164801F003F80423FB71082360
:1005DC00BB803B1D1946124800F0FAFF1823FB7133
:1005EC000423BB803B1D19460D4800F0F1FF04238A
:1005FC00FB714FF40063BB803B1D1946094800F0AA
:10060C00E7FF1823FB714FF48063BB803B1D194639
:10061C00044800F0DDFF00BF0837BD4680BD00BFB9
:10062C0000080140000C014080B588B000AF786034
:10063C00396000233B8100237B814FF40073BB8125
:10064C000023FB817B681B6807F1080211461846E2
:10065C0001F08CFC7B681B68184601F071FB3B6851
:10066C001B683B613B681B7903F00F03DBB2082B63
:10067C0002D10023BB8209E03B681B7903F00F0316
:10068C00DBB2092B02D14FF48053BB823B681B7940
:10069C0003F03003DBB2002B02D10023FB8214E009
:1006AC003B681B7903F03003DBB2102B03D14FF402
:1006BC004053FB8209E03B681B7903F03003DBB24B
:1006CC00202B02D14FF40053FB823B681B7923F0A3
:1006DC003F03DBB2002B02D100233B8314E03B68C9
:1006EC001B7923F03F03DBB2402B03D14FF4C063E3
:1006FC003B8309E03B681B7923F03F03DBB2802B83
:10070C0002D14FF480633B830023BB830C237B8398
:10071C007B681B6807F110021146184601F06CFB50
:10072C007B681B6801228021184601F0B0FC7B68B5
:10073C001B68012240F22551184601F061FC7B68D0
:10074C001B6840F22551184601F02DFD7B681B6893
:10075C000121184601F035FC00BF2037BD4680BD95
:10076C0080B58EB000AF78607B681B687B6301211D
:10077C00012001F015FA7B6B9B68184600F0D8FC41
:10078C007B6B1B680433BB607B687433FB6010238A
:10079C003B616C237B610023BB618023FB610023E5
:1007AC003B6200237B622023BB624FF40053FB624D
:1007BC0000233B637B6B9B6807F1080211461846CC
:1007CC0000F072FD7B6B9B6801220221184600F041
:1007DC00C5FD7B6B9B680021184600F0A3FD00BF94
:1007EC003837BD4680BD000080B584B000AF78605E
:1007FC007B681B681B68FB6040F22551F86801F0B0
:10080C0078FC0346002B39D00421F86800F030F94D
:10081C00034683F00103DBB2002B2AD0F86801F009
:10082C0059FC03461A467B689B791946D2B27B6801
:10083C000B441A727B689B790133DAB27B689A712C
:10084C007B689B799A082449A1FB0212D2086C217F
:10085C0001FB02F29B1ADAB27B689A717B689A7977
:10086C007B68DB799A4204D101220421F86800F0FC
:10087C00CBF840F22551F86801F095FC40F2266166
:10088C00F86801F036FC0346002B11D00022012140
:10089C00F86800F0B9F800F065FA40F22661F868E3
:1008AC0001F081FC002240F22661F86801F0A8FBFF
:1008BC0040F22771F86801F01CFC0821F86801F07F
:1008CC0018FC0346012B02D1F86801F003FC00BFB1
:1008DC001037BD4680BD00BFF712DA4B80B584B02F
:1008EC0000AF78607B681B680833FB60FB68DB68D3
:1008FC00184600F079FD0346002B35D07B681B6849
:10090C001B681B4A934210D17B681B681B6840F222
:10091C002661184601F047FC7B681B681B680122A6
:10092C0040F22661184601F06BFB4FF40051114860
:10093C0000F00AFF0346C3F10103DBB21A464FF481
:10094C0000510C4800F035FFAFF300807B680022AB
:10095C005A71FB681B680021184600F0E3FCFB6829
:10096C005B68184600F026FD00BF1037BD4680BD01
:10097C0000480040000C014080B500AF0248FFF772
:10098C0033FF00BF80BD00BF2000002080B500AF4A
:10099C000248FFF7A3FF00BF80BD00BF200000206E
:1009AC0080B500AF0248FFF71FFF00BF80BD00BF3E
:1009BC002001002080B500AF0248FFF78FFF00BF79
:1009CC0080BD00BF2001002080B485B000AF7860EE
:1009DC007B68094A934202D1084BFB6005E07B68B7
:1009EC00074A934201D1074BFB60FB68184614374A
:1009FC00BD4680BC704700BF00380140200000207D
:100A0C00004800402001002080B584B000AF786021
:100A1C000B46FB701346BB707868FFF7D5FFF86088
:100A2C00FB78013B042B1DD801A252F823F000BF28
:100A3C00510A0008590A0008610A0008690A0008EE
:100A4C00710A0008FB68BA785A710CE0FB68BA7836
:100A5C001A7108E0FB68BA785A7104E0FB68BA783E
:100A6C001A7100E000BF00BF1037BD4680BD00BF4B
:100A7C0080B584B000AF78600B46FB700023FB732D
:100A8C007868FFF7A1FFB860FB78013B042B5ED8B8
:100A9C0001A252F823F000BFB90A0008D90A0008D5
:100AAC00F90A0008190B0008390B0008BB685B79C0
:100ABC00002B14BF01230023DBB283F00103DBB254
:100ACC00FB73FB7B03F00103FB7343E0BB681B79F7
:100ADC00002B14BF01230023DBB283F00103DBB234
:100AEC00FB73FB7B03F00103FB7333E0BB685B79A7
:100AFC00002B14BF01230023DBB283F00103DBB214
:100B0C00FB73FB7B03F00103FB7323E0BB681B79D6
:100B1C00002B14BF01230023DBB283F00103DBB2F3
:100B2C00FB73FB7B03F00103FB7313E0BB685B7986
:100B3C0083F00103DBB2002B0BD0BB681B7983F075
:100B4C000103DBB2002B04D00123FB7301E000BFD7
:100B5C0000E000BFFB7B18461037BD4680BD00BFD0
:100B6C0080B584B000AF78600B46FB707868FFF7F7
:100B7C002BFFF860FB68FA78DA71FB68DB791BB243
:100B8C0018461037BD4680BD80B586B000AFF86002
:100B9C00B9601346FB714FF6FF73BB82F868FFF721
:100BAC0013FF3861FB79002B02D1B7F9143033E015
:100BBC003B69DB79FA799A4202D03B69FA79DA71AE
:100BCC000421F868FFF754FF0346002B22D00023C2
:100BDC00FB750AE0FA7DFB7DB9680B4439690A4460
:100BEC00127A1A70FB7D0133FB75FA7DFB799A4200
:100BFC00F0D3FB79BB823B6900229A71002204215D
:100C0C00F868FFF701FF3B6908336C220021184696
:100C1C0001F04CFCB7F9143018461837BD4680BDAE
:100C2C0080B586B000AFF860B9601346FB714FF623
:100C3C00FF73FB8200237B75F868FFF7C5FE3861F4
:100C4C000121F868FFF714FF034683F00103DBB2C0
:100C5C00002B2AD0FB79FB8200237B750CE07B7D7B
:100C6C00BA681A447B7D11783A6913440A4683F8B2
:100C7C0074207B7D01337B757A7DFB799A42EED3B0
:100C8C0001220121F868FFF7BFFE3B691B689B68D6
:100C9C00FA7992B21146184600F07DFB3B691B684D
:100CAC009B680121184600F03DFBB7F91630184639
:100CBC001837BD4680BD000080B582B000AFFFF78D
:100CCC00FDFBFFF71AFCFFF767FC0F4B7B600F4B2C
:100CDC004FF416521A600D497868FFF7A5FC0C48C2
:100CEC00FFF73EFD0B4B7B600B4B4FF496521A609B
:100CFC0009497868FFF798FC0848FFF731FD00BFF9
:100D0C000837BD4680BD00BF080000200000002051
:100D1C0020000020080100200001002020010020FC
:100D2C0080B500AF0121082000F058FF00BF80BD46
:100D3C0080B582B000AF0323BB711023FB714FF45D
:100D4C008053BB803B1D1946054800F041FC4FF415
:100D5C008051034800F01FFD00BF0837BD4680BD21
:100D6C00000C014080B500AF4FF48051024800F0F8
:100D7C0012FD00BF80BD00BF000C014080B500AF6C
:100D8C00FFF7CEFFFFF7D4FF00BF80BD80B483B068
:100D9C0000AF7860054A7B6843F0BF6343F40033CF
:100DAC00D36000BF0C37BD4680BC704700ED00E03F
:100DBC0080B487B000AF786000237B6100233B6177
:100DCC000F23FB607B68DB78002B3AD0274BDB686A
:100DDC00DB431B0A03F007037B617B69C3F104034C
:100DEC003B61FA687B6922FA03F3FB607B685B78F2
:100DFC001A463B6902FA03F37B617B689B781A46BF
:100E0C00FB6813407A6913437B617B691B017B612F
:100E1C00174A7B681B787969C9B213440A4683F870
:100E2C0000237B681B7803F01F0311497A68127842
:100E3C005209D2B21046012202FA03F341F82030D3
:100E4C000FE07B681B7803F01F0309497A6812785E
:100E5C005209D2B2104601229A4000F1200341F807
:100E6C00232000BF1C37BD4680BC704700ED00E05E
:100E7C0000E100E080B483B000AF786039603B687B
:100E8C0023F0604323F07F0304497A6813438B609B
:100E9C0000BF0C37BD4680BC704700BF00ED00E0C2
:100EAC0080B483B000AF78607B68042B06D1094B0B
:100EBC001B68084A43F00403136005E0054B1B68EC
:100ECC00044A23F00403136000BF0C37BD4680BCFA
:100EDC00704700BF10E000E080B485B000AFF86050
:100EEC000B467A60FB72FB7AFA681B331B011344C6
:100EFC001B68DBB203F00403DAB27B681A727B68FE
:100F0C001B7A002B0BD1FB7AFA681B331B011344A1
:100F1C001B685B0DC3F30A027B681A600AE0FB7A5C
:100F2C00FA681B331B0113441B68DB0823F0604277
:100F3C007B685A60FB7AFA681B331B0113441B68ED
:100F4C00DBB203F00203DAB27B685A72FB7AFA68FE
:100F5C001B331B01134404331B68DBB203F00F0378
:100F6C00DAB27B689A72FB7AFA681B331B01134462
:100F7C0004331B681B0ADAB27B68DA74FB7AFA68F2
:100F8C001B01134403F5DC731B68DAB27B68DA725D
:100F9C00FB7AFA681B01134403F5DC731B681B0A0C
:100FAC00DAB27B681A73FB7AFA681B01134403F5F7
:100FBC00DC731B681B0CDAB27B685A73FB7AFA6819
:100FCC001B01134403F5DC731B681B0EDAB27B6840
:100FDC009A73FB7AFA681B01134403F5DE731B68E2
:100FEC00DAB27B68DA73FB7AFA681B01134403F5F7
:100FFC00DE731B681B0ADAB27B681A74FB7AFA6818
:10100C001B01134403F5DE731B681B0CDAB27B68FF
:10101C005A74FB7AFA681B01134403F5DE731B68E0
:10102C001B0EDAB27B689A74FB7A002B06D1FB6834
:10103C00DB6843F02002FB68DA6005E0FB681B69A3
:10104C0043F02002FB681A6100BF1437BD4680BC18
:10105C007047000080B483B000AF786039603B68A3
:10106C00B3F5807F43D0B3F5807F0DD8082B2AD001
:10107C00082B04D8012B1ED0042B20D051E0202BA0
:10108C0025D0402B27D04CE0B3F5006F3BD0B3F507
:10109C00006F06D8B3F5007F2DD0B3F5806F2ED03E
:1010AC003FE0B3F5803F1AD0B3F5003F1BD0B3F54A
:1010BC00004F2FD035E07B681C4A9A6031E07B688A
:1010CC000822DA602DE07B681022DA6029E07B6868
:1010DC0008221A6125E07B6810221A6121E07B68E6
:1010EC0008225A601DE07B6810225A6019E07B6868
:1010FC0004225A6015E07B6804225A6011E07B6878
:10110C0004225A600DE07B6800229A617B680422FD
:10111C005A6006E07B6800229A617B6804225A6060
:10112C0000BF00BF0C37BD4680BC704701010100F9
:10113C0080B483B000AF78607B681A684FF6FE739A
:10114C0013407A6813607B6800221A607B68002267
:10115C005A607B6800229A607B680022DA607B68A8
:10116C00434A934206D1434B5B68424A43F00F0318
:10117C00536077E07B68404A934206D13D4B5B68F5
:10118C003C4A43F0F00353606CE07B683B4A93426B
:10119C0006D1384B5B68374A43F47063536061E0A7
:1011AC007B68374A934206D1324B5B68314A43F431
:1011BC007043536056E07B68324A934206D12D4B04
:1011CC005B682C4A43F4702353604BE07B682E4AD7
:1011DC00934206D1274B5B68264A43F47003536055
:1011EC0040E07B68294A934206D1224B5B68214A36
:1011FC0043F07063536035E07B68254A934206D117
:10120C00244B5B68234A43F00F0353602AE07B684E
:10121C00214A934206D11F4B5B681E4A43F0F003F0
:10122C0053601FE07B681D4A934206D1194B5B68E3
:10123C00184A43F47063536014E07B68184A934275
:10124C0006D1144B5B68134A43F47043536009E0B6
:10125C007B68144A934205D10E4B5B680D4A43F4EC
:10126C007023536000BF0C37BD4680BC704700BF75
:10127C0008000240000002401C0002403000024006
:10128C0044000240580002406C00024080000240C2
:10129C0008040240000402401C04024030040240D6
:1012AC00440402405804024080B485B000AF78601A
:1012BC0039600023FB607B681B68FB60FB6823F4D0
:1012CC00FF4323F07003FB603B689A683B681B6A22
:1012DC001A433B681B691A433B685B691A433B68BA
:1012EC009B691A433B68DB691A433B685B6A1A4388
:1012FC003B689B6A1343FA681343FB607B68FA688C
:10130C001A603B68DA687B685A603B681A687B68CD
:10131C009A603B685A687B68DA6000BF1437BD4638
:10132C0080BC704780B483B000AF78600B46FB7014
:10133C00FB78002B06D07B681B6843F001027B68AE
:10134C001A6006E07B681A684FF6FE7313407A68E1
:10135C00136000BF0C37BD4680BC704780B485B0AD
:10136C0000AFF860B9601346FB71FB79002B06D017
:10137C00FB681A68BB681A43FB681A6006E0FB68D6
:10138C001A68BB68DB431A40FB681A6000BF14374D
:10139C00BD4680BC704780B483B000AF78600B460C
:1013AC007B807A887B685A6000BF0C37BD4680BC56
:1013BC007047000080B483B000AF78607B6803F0A6
:1013CC008053002B03D0064A7B68536002E0054A29
:1013DC007B68536000BF0C37BD4680BC704700BFB4
:1013EC00000402400000024080B485B000AF786079
:1013FC000023FB730023BB607B6803F08053002B3E
:10140C0003D00B4B1B68BB6002E00A4B1B68BB6034
:10141C00BA687B681340002B02D00123FB7301E0F8
:10142C000023FB73FB7B18461437BD4680BC70470A
:10143C00000402400000024080B400AF044B054A97
:10144C005A60034B044A5A6000BFBD4680BC7047CB
:10145C000020024023016745AB89EFCD80B584B0F5
:10146C0000AF78600423FB734FF4302000F08EF84B
:10147C000346FB73FB7B042B1BD1104B1B690F4AE0
:10148C0043F0020313610D4A7B6853610B4B1B69DC
:10149C000A4A43F0400313614FF4302000F076F811
:1014AC000346FB73054B1A69044941F6FD7313405F
:1014BC000B61FB7B18461037BD4680BD00200240F7
:1014CC0080B584B000AF78600B467B800423FB733F
:1014DC004FF4005000F05AF80346FB73FB7B042BCF
:1014EC0015D10D4B1B690C4A43F0010313617B684A
:1014FC007A881A804FF4005000F048F80346FB73CA
:10150C00054B1A69044941F6FE7313400B61FB7BD2
:10151C0018461037BD4680BD0020024080B483B011
:10152C0000AF7860034A7B68D36000BF0C37BD46C0
:10153C0080BC70470020024080B483B000AF04230D
:10154C00FB71114BDB6803F00103012B02D101236A
:10155C00FB7113E00C4BDB6803F00403002B02D08F
:10156C000223FB710AE0084BDB6803F01003002B2D
:10157C0002D00323FB7101E00423FB71FB791846B5
:10158C000C37BD4680BC70470020024080B584B04B
:10159C0000AF78600423FB73FFF7CEFF0346FB73A9
:1015AC0006E0FFF7C9FF0346FB737B68013B7B60DA
:1015BC00FB7B012B02D17B68002BF2D17B68002BCB
:1015CC0001D10523FB73FB7B18461037BD4680BD4C
:1015DC0080B489B000AF786039600023FB610023D0
:1015EC003B610023BB610023FB6000237B61002374
:1015FC00BB603B68DB7803F00F03FB613B68DB7877
:10160C0003F01003002B05D03B689B781A46FB694E
:10161C001343FB613B681B88DBB2002B44D07B6817
:10162C001B687B610023BB6138E00122BB6902FAB5
:10163C0003F3FB603B681B881A46FB6813403B6155
:10164C003A69FB689A4226D1BB699B00FB600F226A
:10165C00FB6802FA03F3BB60BB68DB437A69134097
:10166C007B61FA69FB6802FA03F37A6913437B61C5
:10167C003B68DB78282B05D10122BB699A407B683B
:10168C005A6108E03B68DB78482B04D10122BB6926
:10169C009A407B681A61BB690133BB61BB69072B3C
:1016AC00C3D97B687A691A603B681B88FF2B46D9C3
:1016BC007B685B687B610023BB613AE0BB690833E4
:1016CC00012202FA03F3FB603B681B881A46FB6895
:1016DC0013403B613A69FB689A4227D1BB699B0076
:1016EC00FB600F22FB6802FA03F3BB60BB68DB43B1
:1016FC007A6913407B61FA69FB6802FA03F37A6931
:10170C0013437B613B68DB78282B05D1BB6908331D
:10171C0001229A407B685A613B68DB78482B05D1E3
:10172C00BB69083301229A407B681A61BB6901339B
:10173C00BB61BB69072BC1D97B687A695A6000BF52
:10174C002437BD4680BC704780B485B000AF78604C
:10175C000B467B800023FB737B68DA687B88134025
:10176C00002B02D00123FB7301E00023FB73FB7BF6
:10177C0018461437BD4680BC704780B483B000AFA8
:10178C0078600B467B807A887B681A6100BF0C37C7
:10179C00BD4680BC704780B483B000AF78600B4608
:1017AC007B807A887B685A6100BF0C37BD4680BC51
:1017BC00704780B483B000AF78600B467B801346D3
:1017CC007B707B78002B03D07A887B681A6102E0EF
:1017DC007A887B685A6100BF0C37BD4680BC704765
:1017EC0080B400AF134B1B68124A43F00103136023
:1017FC00104B5A680F49104B13404B600D4B1B6834
:10180C000C4A23F0847323F480331360094B1B6858
:10181C00084A23F480231360064B5B68054A23F4C3
:10182C00FE035360034B4FF41F029A6000BFBD468A
:10183C0080BC7047001002400000FFF880B483B0F9
:10184C0000AF7860134B1B68124A23F4803313608B
:10185C00104B1B680F4A23F4802313607B68B3F58D
:10186C00803F03D0B3F5802F07D00DE0094B1B68E8
:10187C00084A43F48033136006E0064B1B68054AA4
:10188C0043F4A023136000BF00BF0C37BD4680BCDF
:10189C00704700BF0010024080B582B000AF00233B
:1018AC003B600023FB710023BB71312000F00EFA6A
:1018BC000346BB713B6801333B603B68B3F5A06FDB
:1018CC0002D0BB79002BF0D0312000F0FFF9034699
:1018DC00002B02D00123FB7101E00023FB71FB798B
:1018EC0018460837BD4680BD80B485B000AF78601F
:1018FC0039600023FB600A4B5B68FB60FB6823F4D8
:10190C007C13FB607A683B681343FA681343FB60F3
:10191C00034AFB68536000BF1437BD4680BC704758
:10192C000010024080B483B000AF0346FB71044A40
:10193C00FB79136000BF0C37BD4680BC704700BFFD
:10194C006000424280B485B000AF78600023FB6039
:10195C00094B5B68FB60FB6823F00303FB60FA68D0
:10196C007B681343FB60044AFB68536000BF143769
:10197C00BD4680BC704700BF0010024080B400AF71
:10198C00044B5B68DBB203F00C03DBB21846BD46BC
:10199C0080BC70470010024080B485B000AF786006
:1019AC000023FB60094B5B68FB60FB6823F0F003D2
:1019BC00FB60FA687B681343FB60044AFB68536066
:1019CC0000BF1437BD4680BC704700BF00100240FA
:1019DC0080B485B000AF78600023FB60094B5B6876
:1019EC00FB60FB6823F4E063FB60FA687B681343DD
:1019FC00FB60044AFB68536000BF1437BD4680BCD3
:101A0C00704700BF0010024080B485B000AF786012
:101A1C000023FB60094B5B68FB60FB6823F460539D
:101A2C00FB607B68DB00FA681343FB60034AFB68CE
:101A3C00536000BF1437BD4680BC70470010024095
:101A4C0080B487B000AF786000237B6100233B61DA
:101A5C000023FB600023BB604C4B5B6803F00C0362
:101A6C007B617B69042B07D0082B09D0002B33D169
:101A7C007B68474A1A6033E07B68454A1A602FE05E
:101A8C00424B5B6803F470133B61404B5B6803F49F
:101A9C008033FB603B699B0C02333B61FB68002B82
:101AAC0006D13B693B4A02FB03F27B681A6017E0E4
:101ABC00364B5B6803F40033002B06D03B69354A88
:101ACC0002FB03F27B681A600AE03B69304A02FBB6
:101ADC0003F27B681A6003E07B682D4A1A6000BF32
:101AEC002A4B5B6803F0F0037B617B691B097B610C
:101AFC00294A7B6913441B78DBB2BB607B681A688C
:101B0C00BB68DA407B685A60204B5B6803F4E06387
:101B1C007B617B691B0A7B611F4A7B6913441B78C1
:101B2C00DBB2BB607B685A68BB68DA407B689A6042
:101B3C00164B5B6803F460537B617B69DB0A7B614A
:101B4C00154A7B6913441B78DBB2BB607B685A680F
:101B5C00BB68DA407B68DA600C4B5B6803F440438B
:101B6C007B617B699B0B7B610C4A7B6913441B7803
:101B7C00DBB2BB607B68DA68BB68B2FBF3F27B68F4
:101B8C001A6100BF1C37BD4680BC70470010024074
:101B9C0000127A0000093D00000200201002002013
:101BAC0080B483B000AF78600B46FB70FB78002BE1
:101BBC0006D0094B5A6908497B6813434B6106E010
:101BCC00054B5A697B68DB43034913404B6100BFEB
:101BDC000C37BD4680BC70470010024080B483B007
:101BEC0000AF78600B46FB70FB78002B06D0094BDE
:101BFC009A6908497B6813438B6106E0054B9A6927
:101C0C007B68DB43034913408B6100BF0C37BD4637
:101C1C0080BC70470010024080B483B000AF786085
:101C2C000B46FB70FB78002B06D0094BDA69084990
:101C3C007B681343CB6106E0054BDA697B68DB43B9
:101C4C0003491340CB6100BF0C37BD4680BC7047C5
:101C5C000010024080B483B000AF78600B46FB707C
:101C6C00FB78002B06D0094BDA6808497B681343D4
:101C7C00CB6006E0054BDA687B68DB430349134015
:101C8C00CB6000BF0C37BD4680BC704700100240D3
:101C9C0080B483B000AF78600B46FB70FB78002BF0
:101CAC0006D0094B1A6908497B6813430B6106E09F
:101CBC00054B1A697B68DB43034913400B6100BF7A
:101CCC000C37BD4680BC70470010024080B487B012
:101CDC0000AF0346FB710023FB6000237B610023F4
:101CEC00FB74FB795B09DBB2FB60FB68012B03D156
:101CFC00124B1B687B6109E0FB68022B03D10F4B75
:101D0C001B6A7B6102E00D4B5B6A7B61FB7903F024
:101D1C001F03FB607A69FB6822FA03F303F00103EB
:101D2C00002B02D00123FB7401E00023FB74FB7C2D
:101D3C0018461C37BD4680BC704700BF00100240DF
:101D4C0080B582B000AF78607B68264A93420AD196
:101D5C0001214FF48040FFF77DFF00214FF48040BC
:101D6C00FFF778FF3AE07B681F4A93420AD10121C2
:101D7C004FF40030FFF78CFF00214FF40030FFF7D9
:101D8C0087FF2BE07B68194A93420AD101214FF45B
:101D9C008020FFF77DFF00214FF48020FFF778FFB4
:101DAC001CE07B68124A93420AD101214FF40020B7
:101DBC00FFF76EFF00214FF40020FFF769FF0DE0E5
:101DCC007B680C4A934209D101214FF48010FFF734
:101DDC005FFF00214FF48010FFF75AFF00BF083758
:101DEC00BD4680BD00380140004400400048004022
:101DFC00004C00400050004080B58CB000AF7860C3
:101E0C0039600023FB620023BB6200237B6200234A
:101E1C003B620023FB617B68FB617B681B8A9BB286
:101E2C00FB62FA6A4CF6FF731340FB623B68DB887B
:101E3C001A46FB6A1343FB62FB6A9AB27B681A82EE
:101E4C007B689B899BB2FB62FA6A4EF6F3131340D4
:101E5C00FB623B689A883B681B8913439AB23B68C8
:101E6C005B8913439BB21A46FB6A1343FB62FB6A02
:101E7C009AB27B689A817B689B8A9BB2FB62FA6AF6
:101E8C004FF6FF431340FB623B689B891A46FB6A83
:101E9C001343FB62FB6A9AB27B689A8207F10803D0
:101EAC001846FFF7CDFDFB692E4A934202D17B69A0
:101EBC00BB6201E03B69BB627B689B899BB21BB236
:101ECC00002B0CDABA6A13469B0013449A001A448E
:101EDC003B681B685B00B2FBF3F37B620BE0BA6AF6
:101EEC0013469B0013449A001A443B681B689B00E2
:101EFC00B2FBF3F37B627B6A1B4AA2FB03235B09F5
:101F0C001B01FB62FB6A1B09642202FB03F37A6A66
:101F1C00D31A3B627B689B899BB21BB2002B0CDAF9
:101F2C003B6ADB003233104AA2FB03235B0903F04C
:101F3C000703FA6A1343FB620BE03B6A1B01323363
:101F4C00094AA2FB03235B0903F00F03FA6A13434C
:101F5C00FB62FB6A9AB27B681A8100BF3037BD46C0
:101F6C0080BD00BF003801401F85EB5180B485B0A7
:101F7C0000AF786039600023FB607B681B8A9BB2E2
:101F8C00FB60FA684FF2FF031340FB603B681A8852
:101F9C003B685B8813439AB23B689B8813439AB2A5
:101FAC003B68DB8813439BB21A46FB681343FB6008
:101FBC00FB689AB27B681A8200BF1437BD4680BC9E
:101FCC00704780B483B000AF78600B46FB70FB7831
:101FDC00002B08D07B689B899BB243F400539AB2C8
:101FEC007B689A8107E07B689B899BB223F4005342
:101FFC009AB27B689A8100BF0C37BD4680BC704793
:10200C0080B487B000AF78600B467B8013467B7042
:10201C0000233B610023FB600023BB6000237B613A
:10202C007B687B617B88DBB25B09DBB23B617B88C5
:10203C0003F01F03FB600122FB6802FA03F3BB6091
:10204C003B69012B03D17B690C337B6109E03B6954
:10205C00022B03D17B6910337B6102E07B69143363
:10206C007B617B78002B06D07B6919687B69BA6829
:10207C000A431A6006E07B691968BB68DA437B691E
:10208C000A401A6000BF1C37BD4680BC704780B444
:10209C0083B000AF78600B467B8013467B707B78F7
:1020AC00002B08D07B689B8A9AB27B8813439AB228
:1020BC007B689A8209E07B689B8A9AB27B88DB43B7
:1020CC009BB213409AB27B689A8200BF0C37BD4614
:1020DC0080BC704780B483B000AF78607B689B880D
:1020EC009BB2C3F308039BB218460C37BD4680BCA9
:1020FC00704780B487B000AF78600B467B800023BC
:10210C00FB6000237B610023BB600023FB747B8896
:10211C00DBB25B09DBB2BB607B8803F01F037B6126
:10212C0001227B6902FA03F37B61BB68012B07D1A7
:10213C007B689B899BB21A467B6913407B6111E0DB
:10214C00BB68022B07D17B681B8A9BB21A467B6942
:10215C0013407B6106E07B689B8A9BB21A467B69C5
:10216C0013407B617B881B0A9BB2FB600122FB68DE
:10217C0002FA03F3FB607B681B889BB21A46FB6870
:10218C001340FB607B69002B05D0FB68002B02D051
:10219C000123FB7401E00023FB74FB7C18461C3705
:1021AC00BD4680BC704780B485B000AF78600B46EC
:1021BC007B800023FB810023BB817B881B0AFB8176
:1021CC00FB89012202FA03F3BB81BB89DB439AB280
:1021DC007B681A8000BF1437BD4680BC7047000076
:1021EC0080B58CB000AF4FF6FF73FB85FEF7F8F8A7
:1021FC00FEF762FDFEF75AF9FEF7C0FD022110480A
:10220C00FEF7AEFC04210E48FEF732FC0346002B11
:10221C00F8D03B1D022219460948FEF7B5FC0346CF
:10222C00FB85FB8DDAB23B1D19460648FEF7F8FC20
:10223C003B1D28220021184600F038F9E2E700BFC8
:10224C000038014000480040DFF834D0002103E0A2
:10225C000C4B5B58435004310B480C4B42189A42C0
:10226C00F6D30B4A02E0002342F8043B094B9A4296
:10227C00F9D300F03DF800F0F5F8FFF7B1FF704727
:10228C0000500020E8250008000000204406002033
:10229C00440600208C060020FEE780B400AF00BF8F
:1022AC00BD4680BC704780B400AFFEE780B400AF81
:1022BC00FEE780B400AFFEE780B400AFFEE780B469
:1022CC0000AF00BFBD4680BC704780B400AF00BFFC
:1022DC00BD4680BC704780B400AF00BFBD4680BC1B
:1022EC00704780B400AF00BFBD4680BC7047000093
:1022FC0080B500AF154B1B68144A43F00103136003
:10230C00124B5A681149124B13404B600F4B1B6810
:10231C000E4A23F0847323F4803313600B4B1B6839
:10232C000A4A23F480231360084B5B68074A23F4A2
:10233C00FE035360054B4FF41F029A6000F00CF83B
:10234C00044B4FF000629A6000BF80BD0010024049
:10235C000000FFF800ED00E080B500AF00F002F8DF
:10236C0000BF80BD80B483B000AF00237B6000232E
:10237C003B603A4B1B68394A43F480331360374B4C
:10238C001B6803F400333B607B6801337B603B6864
:10239C00002B03D17B68B3F5A06FF0D12F4B1B68DA
:1023AC0003F40033002B02D001233B6001E0002337
:1023BC003B603B68012B4BD1294B1B68284A43F0EF
:1023CC0010031360264B1B68254A23F0030313608C
:1023DC00234B1B68224A43F0020313601F4B1F4A16
:1023EC005B6853601D4B1D4A5B6853601B4B5B68FD
:1023FC001A4A43F480635360184B5B68174A23F402
:10240C007C135360154B5B68144A43F4E813536018
:10241C00124B1B68114A43F08073136000BF0F4BC3
:10242C001B6803F00073002BF9D00C4B5B680B4A54
:10243C0023F003035360094B5B68084A43F0020323
:10244C00536000BF054B5B6803F00C03082BF9D1FC
:10245C0000BF0C37BD4680BC704700BF0010024067
:10246C000020024070B500250C4E0D4CA41BA4108E
:10247C00A54209D100F09EF800250A4E0A4CA41B77
:10248C00A410A54205D170BD56F8253098470135EA
:10249C00EEE756F8253098470135F2E7DC250008C1
:1024AC00DC250008DC250008E4250008034602446E
:1024BC00934200D1704703F8011BF9E7024B13B1AB
:1024CC00024800F005B8704700000000E92400083D
:1024DC00002301461A46184600F016B838B5074DC9
:1024EC00074C641BA4101CB9BDE8384000F068B858
:1024FC00013C55F824309847F5E700BFE425000867
:10250C00E8250008704770472DE9F843264C06462D
:10251C00206898460F469146FFF7F4FF234B1D6841
:10252C00D5F8480118B905F5A670C5F848014368F7
:10253C001F2B19DD1E4B33B92068FFF7E4FF4FF05A
:10254C00FF30BDE8F8834FF4C870AFF3008000286B
:10255C00F2D00022D5F8483142600360C5F848013A
:10256C00C0F88821C0F88C2143689EB1012200EB91
:10257C008305C5F88890D0F888119A401143022E33
:10258C00C0F88811C5F8088102BFD0F88C110A4335
:10259C00C0F88C215A1C0233426040F8237020682A
:1025AC00FFF7B1FF0020CCE740060020D82500083B
:1025BC0000000000F8B500BFF8BC08BC9E46704790
:0C25CC00F8B500BFF8BC08BC9E46704784
:0425D80018020020C5
:0825DC00C924000831010008C8
:0425E4000D010008DD
:1025E8008025000008B001000038014025000000E7
:1025F80044000240001000000E000000002000000F
:102608000800002000000002000000000000000098
:1026180000000000000000000000000000000000B2
:1026280000000000000000000000000000000000A2
:102638000000000000000000000000000000000092
:102648000000000000000000000000000000000082
:102658000000000000000000000000000000000072
:102668000000000000000000000000000000000062
:102678000000000000000000000000000000000052
:102688000000000000000000000000000000000042
:102698000000000000000000000000000000000032
:1026A8000000000000000000000000000000000022
:1026B8000000000000000000000000000000000012
:1026C8000000000000000000000000000000000002
:1026D80000000000000000000000000000000000F2
:1026E8008025000008B001000048004027000000D5
:1026F8001C000240100000000C0000002000000038
:102708000801002000000002000000000000000096
:1027180000000000000000000000000000000000B1
:1027280000000000000000000000000000000000A1
:102738000000000000000000000000000000000091
:102748000000000000000000000000000000000081
:102758000000000000000000000000000000000071
:102768000000000000000000000000000000000061
:102778000000000000000000000000000000000051
:102788000000000000000000000000000000000041
:102798000000000000000000000000000000000031
:1027A8000000000000000000000000000000000021
:1027B8000000000000000000000000000000000011
:1027C8000000000000000000000000000000000001
:1027D80000000000000000000000000000000000F1
:1027E80000000000010203040102030406070809AF
:1027F8000204060800000000000000000405002094
:102808006C050020D4050020000000000000000036
:1028180000000000000000000000000000000000B0
:1028280000000000000000000000000000000000A0
:102838000000000000000000000000000000000090
:102848000000000000000000000000000000000080
:102858000000000000000000000000000000000070
:102868000000000000000000000000000000000060
:102878000000000000000000000000000000000050
:102888000000000000000000000000000000000040
:102898000000000000000000000000000000000030
:1028A80001000000000000000E33CDAB34126DE6CD
:1028B800ECDE05000B000000000000000000000036
:1028C8000000000000000000000000000000000000
:1028D80000000000000000000000000000000000F0
:1028E80000000000000000000000000000000000E0
:1028F80000000000000000000000000000000000D0
:042C28008206002000
:040000050800225578
:00000001FF
